:020000040800F2
:1000000078220020E52700083D0200083F02000892
:1000100043020008470200084B02000800000000ED
:100020000000000000000000000000004F02000877
:100030005102000800000000530200083147000888
:10004000FF270008FF270008FF270008FF270008F8
:10005000FF270008FF270008FF270008FF270008E8
:10006000FF270008FF270008FF270008FF270008D8
:10007000FF270008FF270008FF270008FF270008C8
:10008000FF270008FF270008FF270008FF270008B8
:10009000FF270008FF270008FF270008FF270008A8
:1000A000FF270008FF270008FF270008FF27000898
:1000B000674A0008FB4A0008FF270008FF270008DE
:1000C000FF270008FF270008FF270008FF27000878
:1000D000FF270008714F0008A7500008AD51000825
:1000E000FF270008FF270008FF270008FF27000858
:1000F000FF270008FF270008FF270008FF27000848
:10010000FF270008FF270008FF270008FF27000837
:10011000FF270008FF270008FF270008FF27000827
:10012000FF270008FF270008FF270008FF27000817
:1001300000F002F800F073F80AA090E8000C824486
:100140008344AAF10107DA4501D100F068F8AFF263
:10015000090EBAE80F0013F0010F18BFFB1A43F0A5
:100160000103184734D3000054D300000A444FF071
:10017000000C10F8013B13F0070408BF10F8014B06
:100180001D1108BF10F8015B641E05D010F8016B4B
:10019000641E01F8016BF9D113F0080F1EBF10F8AF
:1001A000014BAD1C0C1B09D16D1E58BF01F801CBD2
:1001B000FAD505E014F8016B01F8016B6D1EF9D555
:1001C0009142D6D37047000000230024002500266A
:1001D000103A28BF78C1FBD8520728BF30C148BFAA
:1001E0000B60704766290CF0FA84642909F01E80C0
:1001F000732909F06085002070471FB509F0A4FD40
:100200000400002000210BF011FB401C6060002066
:1002100000210BF0F5FAE0601FBD10B510BD0AF02B
:1002200059F81146FFF7E9FF03F01EFF0AF080F8C6
:1002300003B4FFF7F2FF03BC0AF0C4F8704700BF35
:10024000FEE700BFFEE700BFFEE700BFFEE7704726
:10025000704770470CB50020019000906C48006812
:1002600040F480306A49086000BF6948006800F4C3
:10027000003000900198401C0190009818B9019836
:10028000B0F5A06FF1D16248006800F4003010B101
:100290000120009001E0002000900098012843D147
:1002A0005C48006840F010005A4908600846006841
:1002B00020F0030008600846006840F00200086073
:1002C00053484068524948600846406848600846BC
:1002D000406840F4806048600846406820F47C1024
:1002E00048600846406840F4E810486008460068E6
:1002F00040F08070086000BF4548006800F0007062
:100300000028F9D04248406820F003004049486086
:100310000846406840F00200486000BF3C48406822
:1003200000F00C000828F9D10CBD10B5FFF792FFC2
:1003300010BD10B53648006840F00100344908602F
:10034000084640683449084031494860084600681A
:10035000324908402E4908600846006820F4802091
:1003600008600846406820F4FE0048604FF41F0013
:100370008860FFF7DAFF4FF000602949086010BD80
:1003800010B5002100200022214B5B6803F00C0116
:1003900021B1042906D0082928D107E0214B224C9D
:1003A000236027E01F4B204C236023E0184B5B6841
:1003B00003F47010164B5B6803F48032022303EBE6
:1003C000904022B9194B4343174C23600DE0104B6A
:1003D0005B6803F4003323B1144B4343124C236096
:1003E00003E0104B4343104C236003E00D4B0E4CD5
:1003F000236000BF00BF064B5B68C3F303130C4CC4
:10040000E15C094B1B68CB40074C236010BD00002A
:1004100000100240002002400000FFF8FFFFF6FE3F
:1004200008ED00E000127A000000002000093D0005
:100430000400002010B50446CC48844208D10121B4
:10044000042000F02DFB0021042000F029FB46E0F1
:10045000C748844208D10121082000F021FB002177
:10046000082000F01DFB3AE0C248844208D1012177
:10047000102000F015FB0021102000F011FB2EE0F1
:10048000BD48844208D10121202000F009FB002151
:10049000202000F005FB22E0B848844208D1012169
:1004A000402000F0FDFA0021402000F0F9FA16E0AB
:1004B000B348844208D10121802000F0F1FA0021E4
:1004C000802000F0EDFA0AE0AE48844207D1012115
:1004D000801500F0E5FA0021A01500F0E1FA10BD4A
:1004E00010B50121084600F0DBFA0021012000F0E0
:1004F000D7FA10BD2DE9F041024600250026002064
:1005000000230024002791F803C00CF00F0591F898
:1005100003C00CF0100CBCF1000F03D091F802C026
:100520004CEA050591F800C0BCF1000F31D0146809
:1005300000202BE04FF0010C0CFA00F3B1F800C0E2
:100540000CEA03069E4220D183004FF00F0C0CFAF8
:1005500003F7BC4305FA03FC4CEA040491F803C01A
:10056000BCF1280F06D14FF0010C0CFA00FCC2F8C8
:1005700014C00AE091F803C0BCF1480F05D14FF058
:10058000010C0CFA00FCC2F810C0401C0828D1D3A2
:100590001460B1F800C0BCF1FF0F34DD54680020D6
:1005A0002EE000F1080C4FF0010808FA0CF3B1F846
:1005B00000C00CEA03069E4221D183004FF00F0CCD
:1005C0000CFA03F7BC4305FA03FC4CEA040491F867
:1005D00003C0BCF1280F05D100F1080C08FA0CF893
:1005E000C2F8148091F803C0BCF1480F07D100F1A4
:1005F000080C4FF0010808FA0CF8C2F81080401CF3
:100600000828CED35460BDE8F0814FF6FF71018019
:10061000022181700421C170704702460020936856
:100620000B400BB1012000E00020704701468868B4
:1006300080B2704702460020D3680B400BB1012006
:1006400000E0002070470146C86880B27047016131
:100650007047416170470AB1016100E04161704734
:10066000C16070474FF480320A43826181618261C8
:1006700082698269704702460020434B18684FF632
:100680008073184040EA021008433F4B18607047DF
:100690003E49C8617047F0B50A4600230024002196
:1006A000002500F00046B6F1004F02D1364EF16948
:1006B00001E0354E7168C0F3034583B200F4401683
:1006C000B6F5401F08D121F070612F4E766826F0F4
:1006D00070662D4F7E6012E000F48016B6F5801F24
:1006E00006D1032606FA05F4A14341F0706106E045
:1006F000460D360103FA06F6B14341F0706122B1AE
:10070000460D360103FA06F6314300F00046B6F115
:10071000004F02D11C4EF16101E01B4E7160F0BD33
:1007200030B500228B071C0F0F2303FA04F2164B7F
:1007300008338C1053F824309343134C08348D1035
:1007400044F8253023468C1053F824308C07240FAE
:1007500000FA04F423430C4C08348D1044F825307F
:1007600030BD0A49DC3108607047000000080140D4
:10077000000C01400010014000140140001801402D
:10078000001C014000200140000001400000204208
:10079000DF48006840F00100DD4908600846406815
:1007A000DC490840DA49486008460068DA490840F0
:1007B000D74908600846006820F480200860084691
:1007C000406820F4FE0048604FF41F0088607047C6
:1007D000CF49096821F48031CD4A1160114609687A
:1007E00021F480211160B0F5803F03D0B0F5802F57
:1007F0000ED106E0C649096841F48031C44A11604F
:1008000007E0C349096841F4A021C14A116000E032
:1008100000BF00BF704710B5014600220023002032
:100820004A11012A02D1BA4C236806E0022A02D1F9
:10083000B74C236A01E0B64C636A01F01F02012441
:1008400094401C400CB1012000E0002010BD38B5E0
:10085000002000900024002500BF3120FFF7DBFFBF
:1008600005460098401C00900098B0F5A06F01D09C
:10087000002DF2D03120FFF7CEFF08B1012400E0B7
:100880000024204638BD01460020A14A106820F00F
:10089000F80040EAC10010607047A0490860704746
:1008A000024600209A4B586820F47C1042EA01036B
:1008B0001843974B5860704798490866704701463F
:1008C0000020934A506820F00300084350607047AE
:1008D0008F48406800F00C007047014600208C4AA9
:1008E000506820F0F0000843506070470146002037
:1008F000874A506820F4E060084350607047014622
:100900000020834A506820F4605040EAC1005060E3
:10091000704729B17E4A527A02437D4B5A7204E0F5
:100920007B4A527A82437A4B5A7270477B49D8315C
:100930000860704701460020754A506820F4404026
:100940000843506070470021714A20321170704A8C
:1009500082F82010012802D004280AD104E00121E5
:100960006B4A2032117005E00521694A203211706E
:1009700000E000BF00BF70476949086070476449E4
:10098000096A0143624A1162704765494439086047
:10099000704730B500210022002400235C4D6D68B3
:1009A00005F00C0121B1042905D0082923D105E067
:1009B0005C4D056022E05B4D05601FE0544D6D68A5
:1009C00005F47012524D6D6805F48034022505EB74
:1009D00092421CB9544D554305600BE04C4D6D6877
:1009E00005F400351DB1504D5543056002E04D4DF5
:1009F0005543056002E04B4D056000BF00BF444D0C
:100A00006D6805F0F0010909484D6B5C0568DD4033
:100A100045603F4D6D6805F4E061090A434D6B5C2C
:100A20004568DD4085603A4D6D6805F46051C90A3E
:100A30003E4D6B5C4568DD40C560354D6D6805F425
:100A40004041890B3A4D6B5CC568B5FBF3F5056118
:100A500030BD29B12E4A526902432D4B5A6104E040
:100A60002B4A526982432A4B5A61704729B1284A5E
:100A700092690243264B9A6104E0254A92698243B7
:100A8000234B9A61704729B1214AD2690243204B16
:100A9000DA6104E01E4AD26982431D4BDA61704775
:100AA00029B11B4AD2680243194BDA6004E0184AA4
:100AB000D2688243164BDA60704729B1144A126932
:100AC0000243134B1A6104E0114A12698243104B2E
:100AD0001A61704712494039086070470F49C8646D
:100AE00070470B49C87170470948406A40F08070F0
:100AF00007494862704701460020054A92680A404B
:100B00000AB1012000E00020704701498872704757
:100B1000001002400000FFF8FFFFF6FE0000424216
:100B20008004424200127A0000093D0014000020B7
:100B30002400002031490143314A1160704770B5EB
:100B4000002100230F22C47804B32D4C246804F440
:100B5000E064C4F5E064210AC1F10403CA404478AA
:100B600004FA03F18478144021430901254C0678E6
:100B7000A155047804F01F050124AC4005786D11DF
:100B8000AD0005F1E025C5F8004109E0047804F066
:100B90001F050124AC401C4D0678761145F826400F
:100BA00070BD1A4A0A400243154B1B1F1A6070475A
:100BB00039B1134A121D12680243114B1B1D1A60F2
:100BC00006E00F4A121D126882430D4B1B1D1A606E
:100BD0007047042808D14FF0E021096941F0040171
:100BE0004FF0E022116107E04FF0E021096921F0A8
:100BF00004014FF0E0221161704700000000FA0587
:100C00000CED00E000E400E080E100E080FFFF1F69
:100C100010B50446FB48844209D101218803FFF73F
:100C20003FFF00214FF48040FFF73AFF32E0F648E3
:100C3000844209D101214804FFF73FFF00214FF40E
:100C40000030FFF73AFF25E0F048844209D1012146
:100C50008804FFF732FF00214FF48020FFF72DFFBB
:100C600018E0EB48844209D10121C804FFF725FFB1
:100C700000214FF40020FFF720FF0BE0E5488442FD
:100C800008D101210805FFF718FF00214FF480105B
:100C9000FFF713FF10BD2DE9F04786B005460E465D
:100CA0000024A24600BFA1460027B08900B100BFC2
:100CB0002F462C8A4CF6FF700440F08804432C82A7
:100CC000AC894EF6F3100440B0883189084371892D
:100CD00008430443AC81AC8A4FF6FF400440B0891E
:100CE0000443AC8201A8FFF754FEC648874202D1F4
:100CF000DDF810A001E0DDF80CA0A88900F40040A8
:100D000040B10AEBCA0000EB0A1031684900B0FBA1
:100D1000F1F807E00AEBCA0000EB0A10316889001D
:100D2000B0FBF1F86420B8FBF0F004012009642165
:100D300001FB1089A88900F4004040B1322000EB8B
:100D4000C900B0FBF1F000F00700044308E03220D6
:100D500000EB09106421B0FBF1F000F00F00044338
:100D60002C8106B0BDE8F0874FF4165101600021D8
:100D70008180C18001810C214181002181817047E6
:100D800010B502460020108A4FF2FF0318400B886E
:100D90004C8823438C882343CC88234318431082F8
:100DA00010BD0021018041808180C180704721B148
:100DB000828942F40052828104E082894DF6FF73F9
:100DC0001A4082817047F0B50346002400260025B2
:100DD000002040F66A17B94200D100BF1846C1F39F
:100DE000421401F01F06012707FA06F5012C01D174
:100DF0000C3004E0022C01D1103000E014301AB1A4
:100E000007682F43076002E00768AF430760F0BD43
:100E10001AB1838A0B43838202E0838A8B438382E5
:100E20007047028A4FF6F0731A400282028A0A4320
:100E30000282704782894FF2FF731A408281828951
:100E40000A438281704721B1828942F00202828185
:100E500004E082894FF6FD731A4082817047028A4E
:100E60004FF6DF731A400282028A0A4302827047F9
:100E700021B1028A42F48042028204E0028A4BF6E7
:100E8000FF731A4002827047C1F3080282807047E4
:100E900001468888C0F308007047818941F001014C
:100EA00081817047028BD2B20283028B42EA012217
:100EB00002837047028B02F47F420283028B0A4353
:100EC0000283704721B1828A42F02002828204E0CC
:100ED000828A4FF6DF731A408282704721B1828A7C
:100EE00042F01002828204E0828A4FF6EF731A40C9
:100EF0008282704721B1828A42F00802828204E035
:100F0000828A4FF6F7731A408282704721B1828934
:100F100042F40042828103E08289C2F30E028281A0
:100F2000704721B1828A42F40062828204E0828AA0
:100F30004FF2FF731A4082827047828A4FF6FB732A
:100F40001A408282828A0A438282704721B1828A51
:100F500042F00202828204E0828A4FF6FD731A4058
:100F60008282704702460020B1F5007F00D100BFA9
:100F700013880B400BB1012000E00020704701F402
:100F80000072B2F5007F00D100BFCA4302807047F3
:100F900070B50246002400230025002040F66A16A2
:100FA000B14200D100BFC1F3421501F01F03012679
:100FB00006FA03F3012D02D19689334006E0022D93
:100FC00002D1168A334001E0968A33400C12012682
:100FD00006FA04F41688344013B10CB1012000E085
:100FE000002070BD10B50022002340F66A14A14213
:100FF00000D100BF0A1201249440A3B2DC43048054
:1010000010BD00000038014000440040004800408E
:10101000004C00400050004010B50446FE48844299
:1010200008D10121C014FFF73BFD0021E014FFF7B8
:1010300037FDC4E0B4F1804F08D101210846FFF725
:101040003CFD00210120FFF738FDB8E0F348844261
:1010500008D101210220FFF730FD00210220FFF717
:101060002CFDACE0EE48844208D101210420FFF7BA
:1010700024FD00210420FFF720FDA0E0E948844280
:1010800008D101210820FFF718FD00210820FFF7F3
:1010900014FD94E0E448844208D101211020FFF7B8
:1010A0000CFD00211020FFF708FD88E0DF48844296
:1010B00008D101212020FFF700FD00212020FFF7AB
:1010C000FCFC7CE0DA48844208D101214014FFF79F
:1010D000E7FC00216014FFF7E3FC70E0D548844290
:1010E00009D10121C804FFF7DBFC00214FF40020E7
:1010F000FFF7D6FC63E0D048844209D101210805FE
:10110000FFF7CEFC00214FF48010FFF7C9FC56E03A
:10111000CA48844209D101214805FFF7C1FC0021DA
:101120004FF40010FFF7BCFC49E0C548844208D1E9
:1011300001214020FFF7C1FC00214020FFF7BDFC4A
:101140003DE0C048844208D101218020FFF7B5FC72
:1011500000218020FFF7B1FC31E0BB48844208D178
:1011600001218015FFF7A9FC0021A015FFF7A5FCC0
:1011700025E0B648844209D101210804FFF790FC1C
:1011800000214FF48030FFF78BFC18E0B048844218
:1011900009D101214804FFF783FC00214FF40030FE
:1011A000FFF77EFC0BE0AB48844208D101218804A4
:1011B000FFF776FC00214FF48020FFF771FC10BD93
:1011C00000220288944B98420ED0994B98420BD043
:1011D000B0F1804F08D0914B984205D0904B984287
:1011E00002D0904B984204D14FF68F731A404B882F
:1011F0001A438D4B984207D08C4B984204D04FF63F
:10120000FF431A40CB881A4302808B8883850B8862
:101210000385814B98420BD0854B984208D08B4B6D
:10122000984205D08A4B984202D08A4B984201D10D
:101230000B7A038601238382704770B50024002255
:101240000023058C4FF6FE7635400584028C83889A
:10125000048B4FF68F752C40B51E2C400D882C4307
:10126000751E2A400D892A434D882A436A4DA8429B
:101270000BD06F4DA84208D0744DA84205D0744DD4
:10128000A84202D0734DA84213D14FF6F7752A40F9
:101290004D892A434FF6FB752A408D882A434FF625
:1012A000FF652B404FF6FF552B408D892B43CD8991
:1012B0002B4383800483CD888586028470BD70B5FE
:1012C000002400220023058C4FF6EF76354005847C
:1012D000028C8388048B48F6FF752C404FF6FF453F
:1012E0002C400D884FF6FF7606EA05252C434FF675
:1012F000DF752A400D8906EA05152A434D8806EA5E
:1013000005152A43444DA84202D0494DA8421DD19B
:101310004FF67F752A404D894FF6FF7606EA051590
:101320002A434FF6BF752A408D8806EA05152A43E1
:101330004FF6FF352B404FF2FF752B408D8906EAA3
:1013400085052B43CD8906EA85052B4383800483DD
:10135000CD880587028470BD70B50024002200236B
:10136000058C4FF6FF6635400584028C8388848B9C
:101370004FF68F752C404FF6FC752C400D882C4392
:101380004FF6FF552A400D894FF6FF7606EA0525F0
:101390002A434D8806EA05252A431F4DA84202D05C
:1013A000234DA8421DD14FF2FF752A404D894FF6BB
:1013B000FF7606EA05252A434FF6FF352A408D8839
:1013C00006EA05252A434EF6FF752B404DF6FF75BC
:1013D0002B408D8906EA05152B43CD8906EA0515B4
:1013E0002B4383808483CD888587028470BD70B54C
:1013F000002200230024058C4EF6FF76354005843C
:10140000038C8488828B48F6FF752A404FF6FF458F
:101410002A400D8820E00000002C0140000400401C
:1014200000080040000C0040001000400014004084
:1014300000340140004C0140005001400054014084
:1014400000180040001C0040002000400040014007
:1014500000440140004801404FF6FF7606EA0525AA
:101460002A434DF6FF752B400D8906EA05352B43BF
:101470004D8806EA05352B43FA4DA84202D0FA4DB5
:10148000A84208D14BF6FF752C408D894FF6FF76A8
:1014900006EA85152C4384808283CD88A0F84050CD
:1014A000038470BD828B4FF2FF331A408283828B9C
:1014B0004FF6FF7303EA01231A4382837047F0B5A6
:1014C0000C461546002200210026078C4EF6FF7CB4
:1014D00007EA0C070784828B018C4FF6FF7707EA37
:1014E000043640F6FF473A404FF6FF7707EA0527F4
:1014F0003A434FF6FF7707EA03373A43D94FB842EA
:101500000ED0D94FB8420BD0B0F1804F08D0D74F92
:10151000B84205D0D64FB84202D0D64FB84206D115
:101520004DF6FF77394046F48057394305E047F6DA
:10153000FF57394044F48057394382830184F0BD1A
:10154000828B4FF6F3731A408283828B0A43828325
:101550007047F0B50C461546002200210026078C86
:101560004FF6FF6C07EA0C070784828B018C4FF65D
:10157000FF7707EA04264FF60C773A404FF6FF77DD
:1015800007EA03172F433A43B64FB8420ED0B64F7F
:10159000B8420BD0B0F1804F08D0B44FB84205D05C
:1015A000B34FB84202D0B34FB84206D14FF6FF57FF
:1015B000394046F48077394305E04FF2FF57394010
:1015C00044F48077394382830184F0BD028B4FF26B
:1015D000FF331A400283028B4FF6FF7303EA0123A5
:1015E0001A4302837047F0B50C46154600220021CD
:1015F0000026078C4FF6EF7C07EA0C070784028B66
:10160000018C4FF6FF7707EA041640F6FF473A4091
:101610004FF6FF7707EA03373A434FF6FF7707EABB
:1016200005273A438F4FB8420ED08F4FB8420BD0A8
:10163000B0F1804F08D08D4FB84205D08C4FB842E2
:1016400002D08C4FB84206D14FF6DF77394046F0D2
:101650001007394305E04FF65F77394044F0100733
:10166000394302830184F0BD028B4FF6F3731A40B5
:101670000283028B0A4302837047F0B50C4615467D
:1016800000220021068C4FF6FE773E400684028B36
:10169000018C4FF60C7632407E1C06EA03162E4370
:1016A0003243704EB0420ED06F4EB0420BD0B0F10C
:1016B000804F08D06D4EB04205D06D4EB04202D082
:1016C0006C4EB04206D14FF6FD76314044F0010633
:1016D000314305E04FF6F576314044F001063143E1
:1016E00002830184F0BD70B505460C465D48854215
:1016F0000ED05D4885420BD0B5F1804F08D05B48D5
:10170000854205D05A48854202D05A48854200D1C8
:1017100000E000BF208850B92389A288618828464C
:10172000FFF7ABFFE1882846FFF79EFF25E0208802
:1017300004280AD12389A28861882846FFF753FF2D
:10174000E1882846FFF742FF17E0208808280AD1E1
:101750002389A28861882846FFF7FBFEE188284696
:10176000FFF7EEFE09E02389A28861882846FFF78B
:10177000A6FEE1882846FFF795FE70BD2DE9F041F1
:1017800005460C4600260127608808B9022600E0BD
:101790000026A088012801D1022700E00127208827
:1017A000A0B92389A28861882846FFF766FFE188EF
:1017B0002846FFF759FF23893A4631462846FFF766
:1017C00012FFE1882846FFF701FF13E02389A28872
:1017D00061882846FFF707FFE1882846FFF7F6FEF5
:1017E00023893A4631462846FFF747FFE1882846D5
:1017F000FFF73AFFBDE8F0810A884B881A438B88CF
:101800001A43CB881A430B891A434B891A438B8995
:101810001A43A0F8442070474FF6FF7181800021E1
:101820000180C180418001727047002101804180A8
:101830008180C180018141818181C1817047002106
:1018400001804180012181800021C1800181704798
:101850000021018041808180C1800181418181819D
:1018600070470000002C014000340140000400409B
:1018700000080040000C004021B1028842F0010243
:10188000028004E002884FF6FE731A40028070471F
:1018900031B1B0F8442042F40042A0F8442005E001
:1018A000B0F84420C2F30E02A0F8442070471AB1E9
:1018B00083890B43838102E083898B438381704753
:1018C0008182704741EA0203A0F8483070471AB19C
:1018D00083890B43838102E083898B438381704733
:1018E00001894FF6F8721140018170470A460021C4
:1018F00001894FF68F73194011430181704730B54C
:1019000004460D4629462046FFF7F0FF208940F0A7
:101910000700208130BD2DE9F04104460D461646F2
:101920001F46602D06D13B46012231462046FFF777
:101930005AFE05E03B46012231462046FFF79DFE58
:1019400029462046FFF7D2FF208940F0070020817A
:10195000BDE8F08130B50C4600210189C9B24FF6CF
:10196000FF7505EA0325154325432943018130BD51
:101970002DE9F04105460E46174698460024434699
:101980003A4631462846FFF7E5FF2C894FF6F870B6
:10199000044044F007044FF68F70044044F0700494
:1019A0002C81BDE8F081F0B504460D4616461F4671
:1019B0003B46324629462046FFF7CCFF208940F4BB
:1019C00080402081F0BD0185828270470A46002157
:1019D00001884FF68F731940114301807047F0B5AD
:1019E0000C4615461E460021002200230189028B69
:1019F000038C4FF6F877394021434FF6FC473A40C5
:101A000040F201173A434FF6DD773B404FF6FF7740
:101A100007EA06172F433B43018102830384F0BD8D
:101A20000A460021018B4FF68F7319401143018341
:101A300070470A460021018B48F6FF7319404FF6A4
:101A4000FF7303EA02231943018370470A4600210A
:101A5000818B4FF68F7319401143818370470A467B
:101A60000021818B48F6FF7319404FF6FF7303EA9C
:101A7000022319438183704721B1028842F080021A
:101A8000028004E002884FF67F731A40028070479C
:101A900021B1828842F00402828004E082884FF6FD
:101AA000FB731A408280704721B1828842F008029D
:101AB000828004E082884FF6F7731A408280704774
:101AC00021B1828842F00102828004E082884FF6D0
:101AD000FE731A40828070470A460021018B4FF640
:101AE000F77319401143018370470A460021018BA7
:101AF0004FF2FF7319404FF6FF7303EA02231943B5
:101B0000018370470A460021818B4FF6F773194015
:101B10001143818370470A460021818B4FF2FF7386
:101B200019404FF6FF7303EA02231943818370477C
:101B30000A460021018B4FF6FB73194011430183C4
:101B400070470A460021018B4FF6FF3319404FF6CC
:101B5000FF7303EA02231943018370470A460021F9
:101B6000818B4FF6FB7319401143818370470A46FE
:101B70000021818B4FF6FF3319404FF6FF7303EAC4
:101B800002231943818370470A460021018B4FF6D7
:101B90007F7319401143018370470A460021018B6E
:101BA000C1F30E014FF6FF7303EA022319430183C9
:101BB00070470A460021818B4FF67F73194011430D
:101BC000818370470A460021818BC1F30E014FF6D5
:101BD000FF7303EA02231943818370470A460021F9
:101BE000018C4FF6FD7319401143018470470A467A
:101BF0000021018C4FF6F77319401143018470479F
:101C00000A460021018C4FF6DF7319404FF6FF732F
:101C100003EA02131943018470470A460021018C2C
:101C20004FF67F7319404FF6FF7303EA021319430F
:101C3000018470470A460021018C4FF6FF5319407A
:101C40004FF6FF7303EA02231943018470470A46E3
:101C50000021018C4FF2FF7319404FF6FF7303EA26
:101C600002231943018470470A460021018C4DF676
:101C7000FF7319404FF6FF7303EA023319430184DF
:101C8000704730B5002301248C40A3B2048C9C43E0
:101C90000484048C02FA01F5ADB22C43048430BDF7
:101CA00030B5002304248C40A3B2048C9C430484EC
:101CB000048C02FA01F5ADB22C43048430BD70B53A
:101CC0000346002000241846183001258D40ACB290
:101CD0001D8CA5431D8409B1082909D100EB6100C1
:101CE000056825F0700505600568154305600EE080
:101CF0000D1FC5F34E052844056825F4E045056031
:101D000005684FF6FF7606EA02263543056070BD8A
:101D100021B1028842F00202028004E002884FF6FC
:101D2000FD731A400280704721B1028842F004021C
:101D3000028004E002884FF6FB731A40028070476D
:101D400021B1828842F08002828004E082884FF6CE
:101D50007F731A408280704702884FF6F7731A40EB
:101D6000028002880A430280704782884FF68F7390
:101D70001A40828082880A438280704702894FF627
:101D8000F8731A40028102890A430281704702896E
:101D90004FF67F731A40028102890A43028170471D
:101DA00081847047818570478186704701877047BD
:101DB00081877047A0F84010704702884FF6FF43B4
:101DC0001A40028002880A43028070470146888ECA
:101DD00070470146088F70470146888F704701465B
:101DE000B1F8400070470146888C70470146088D65
:101DF000704702460020138A0B400BB1012000E01F
:101E000000207047CA430282704730B50246002066
:101E100000230024158A05EA0103958905EA0104D7
:101E200013B10CB1012000E0002030BDCA43028292
:101E30007047000010B50446BE48844208D1012115
:101E40008014FEF72DFE0021A014FEF729FE16E0F7
:101E5000B948844208D101210014FEF72EFE00216A
:101E60002014FEF72AFE0AE0B448844207D101217B
:101E7000C013FEF722FE0021E013FEF71EFE10BD88
:101E800010B50022028802F441520B884C8823438B
:101E90008C882343CC8823430C8923434C892343D8
:101EA0008C892343CC8923431A430280838B4FF2CE
:101EB000FF74234083830B8A038210BD2DE9F04F0A
:101EC00085B005460C464FF0000902274FF0000888
:101ED0004FF0010B0026B246A88B4FF2400108409C
:101EE000A88302202884B5F81C90A068022801D19C
:101EF00000BF38E0A08810B94FF0010B01E04FF0AF
:101F0000020B8D48854200D100E000BF6846FEF715
:101F100040FDDDF800A0E088B0F5007F0AD14FEA6F
:101F20001A2000EB80004000A168B0FBF1F0401DDA
:101F300086B20BE04FEA4B10BAFBF0F000EB8000EA
:101F40004000A168B0FBF1F0401D86B20A20B6FB4C
:101F5000F0F606F00108A6EB0800C0F34F074FF6B5
:101F6000FF7000EA0828022F01DBFF2F02DD0227A5
:101F70004FF00008E08840EA080038432884A08831
:101F8000A1890843618808432188084340F4006020
:101F900040EA0909A5F81C9005B0BDE8F08F0021C2
:101FA000018041808180C180018141818181C18125
:101FB0000721018270470021018041808180C1801A
:101FC0000221816000218181704721B1028842F0A5
:101FD0004002028004E002884FF6BF731A4002807C
:101FE000704721B1828B42F48062828304E0828B4D
:101FF0004FF6FF331A408283704730B50024002328
:102000000C110125A540ABB21AB185881D4385800E
:1020100002E085889D43858030BD1AB183880B43DB
:10202000838002E083888B4383807047818170477F
:102030000146888970474FF6FF62914204D00288BA
:1020400042F48072028004E002884FF6FF631A4077
:102050000280704721B1828842F00402828004E04D
:1020600082884FF6FB731A408280704702884FF2D5
:10207000FF731A40028002880A4302807047018879
:1020800041F480510180704721B1028842F400522E
:10209000028004E002884DF6FF731A400280704708
:1020A00002460020012901D0108B00E0908A704781
:1020B0000146088A7047B1F5804F04D1028842F486
:1020C0008042028004E002884BF6FF731A400280CF
:1020D00070470246002013890B400BB1012000E03D
:1020E00000207047CA4302817047F0B502460020C5
:1020F00000240023002501F00F070126BE40B4B2E2
:102100000B1101269E40B3B2968806EA0305168994
:10211000264016B10DB1012000E00020F0BD10B541
:10212000002201F00F040123A3409AB2D34303819C
:1021300010BD00000030014000380040003C00406D
:1021400010B50446FA48844208D101214015FEF733
:10215000A7FC00216015FEF7A3FC17E0F5488442B8
:1021600008D101210015FEF79BFC00212015FEF788
:1021700097FC0BE0F048844208D10121C803FEF728
:102180008FFC00214FF40040FEF78AFC10BD30B5F3
:102190000246002000235068E84C20400D790C686E
:1021A00044EA0524204350609068E54C2040D1E982
:1021B00002542C434D7944EA450420439060D06A90
:1021C00020F470000C7C641EE4B2234340EA035008
:1021D000D06230BD00210160017141718160C16038
:1021E00001210174704721B1826842F001028260CE
:1021F00003E0826822F001028260704721B18268A8
:1022000042F48072826003E0826822F4807282600D
:10221000704710B50023CBB21AB144681C43446028
:1022200002E044689C43446010BD816841F00801AD
:1022300081607047014600208A6802F008020AB1F6
:10224000012000E000207047816841F004018160B6
:102250007047014600208A6802F004020AB101209A
:1022600000E00020704721B1826842F4A002826041
:1022700003E0826822F4A0028260704701460020D9
:102280008A6802F480020AB1012000E00020704751
:1022900010B50A4600210023416821F46041531E15
:1022A00041EA4331416010BD21B1426842F400620D
:1022B000426003E0426822F4006242607047F0B579
:1022C00004460D4600200021092D11DDE068A5F12E
:1022D0000A0606EB4607072606FA07F18843A5F12A
:1022E0000A0606EB460603FA06F10843E0600CE036
:1022F000206905EB4507072606FA07F1884305EB39
:10230000450603FA06F108432061072A0FDA606BDD
:10231000561E06EB86071F2606FA07F18843561E4F
:1023200006EB860605FA06F10843606322E00D2AF3
:102330000FDA206BD61F06EB86071F2606FA07F179
:102340008843D61F06EB860605FA06F1084320638C
:1023500010E0E06AA2F10D0606EB86071F2606FADA
:1023600007F18843A2F10D0606EB860605FA06F191
:102370000843E062F0BD21B1826842F480128260BD
:1023800003E0826822F48012826070470146C86CC4
:1023900080B2704766484C300068704721B142688F
:1023A00042F48062426003E0426822F4806242604C
:1023B000704721B1426842F48052426003E04268B3
:1023C00022F48052426070470A460021816821F45D
:1023D000E04111438160704721B1826842F40042BC
:1023E000826003E0826822F400428260704721B17B
:1023F000826842F40212826003E0826822F40212D0
:1024000082607047014600208A6802F400120AB117
:10241000012000E000207047F0B50446154600207A
:1024200000220026092911DDE068A1F10A0707EB67
:10243000470C072707FA0CF29043A1F10A0707EBB4
:10244000470703FA07F21043E0600CE0206901EB54
:10245000410C072707FA0CF2904301EB410703FAFE
:1024600007F210432061A06BC0F30156EF1C06F188
:10247000010CA7EB0C0707EB870C1F2707FA0CF2E0
:102480009043EF1C06F1010CA7EB0C0707EB870745
:1024900001FA07F21043A063F0BD10B50A4600210F
:1024A0000023816B21F44011531E41EA03518163E3
:1024B00010BD08B5002300930090009B0B440093CF
:1024C000009B1A6008BD08B50246002000900092EB
:1024D00001F12800009B184400900098006880B229
:1024E00008BD0A4600214168164B1940114341605E
:1024F00070474162826270470A460021416821F0BC
:102500001F0111434160704740B109490831096812
:1025100041F40001064A0832116007E0044908311D
:10252000096821F40001024A083211607047000076
:102530000024014000280140003C0140FFFEF0FF64
:10254000FDF7F1FFFFFD3FFF0246002013680B403F
:102550000BB1012000E000207047CA4302607047C1
:1025600070B502460020002300240B125568CEB23D
:1025700005EA060415681D4015B10CB1012000E004
:10258000002070BD00220A12D34303607047000090
:1025900001684FF6FE721140016000210160416048
:1025A0008160C1608D49884208D18C4908394968E9
:1025B00041F00F01894A083A51608AE08749143195
:1025C000884208D185490839496841F0F001834AB9
:1025D000083A51607DE081492831884208D17F491D
:1025E0000839496841F470617C4A083A516070E0EA
:1025F0007A493C31884208D178490839496841F420
:102600007041764A083A516063E07449503188421B
:1026100008D172490839496841F470216F4A083A73
:10262000516056E06D496431884208D16B490839E0
:10263000496841F47001694A083A516049E06749C4
:102640007831884208D165490839496841F070619C
:10265000624A083A51603CE06149884206D1011F54
:10266000096841F00F01021F116032E05C4914312A
:10267000884208D15A49091F096841F0F001584AB7
:10268000121F116025E056492831884208D154496B
:10269000091F096841F47061514A121F116018E066
:1026A0004F493C31884208D14D49091F096841F41E
:1026B00070414B4A121F11600BE04949503188426A
:1026C00007D14749091F096841F47021444A121F84
:1026D0001160704710B50022026847F6F0739A4304
:1026E0000C6A8B6823430C6923434C6923438C6930
:1026F0002343CC6923434C6A23438C6A23431A4304
:102700000260CB6843600B6883604B68C36010BD98
:102710000021016041608160C160016141618161AE
:10272000C161016241628162704721B1026842F079
:102730000102026004E002684FF6FE731A40026074
:1027400070471AB103680B43036002E003688B43D0
:1027500003607047416070470146486880B2704727
:1027600001460020002201F080531BB11C4B083BA6
:102770001A6802E0194B083B1A6802EA01030BB120
:10278000012000E00020704700F0805119B1144989
:10279000091F086002E01149083948607047014686
:1027A0000020002201F080531BB10D4B083B1A683A
:1027B00002E00A4B083B1A6802EA01030BB1012050
:1027C00000E00020704700F0805119B10449091F52
:1027D000086002E00149083948607047080002407B
:1027E000080402400948804709480047FEE7FEE721
:1027F000FEE7FEE7FEE7FEE7FEE7FEE7FEE7FEE7B1
:1028000004480549054A064B704700003303000899
:1028100031010008781C002078220020781E00205A
:10282000781E002010B5012002F0CDFD40F2FF70AF
:1028300002F08BFFC022F849F84802F063FF002045
:1028400002F0C1FD10BD10B5F5480078012808D090
:1028500001F078FFF3490968401AF3490968884292
:1028600008D90020EE49087001F06CFFED490860BE
:10287000FFF7D8FF10BD70B504460D46EB48006861
:10288000844203D1EA480068854210D040F2DC500F
:10289000431B04F2DC52E7A1EF4806F063FCEE486C
:1028A00002F036FDE1480460E148056070BD00BFFC
:1028B000FCE770B501F046FFE8490968401A44F6A4
:1028C0002061884202D90020E5490870E548407837
:1028D000732800D070BDE349097AC1F17F0001F08F
:1028E00007FDE1490978884202DA7F20DD49087254
:1028F000DC494979C1F17F0001F0FAFCDA49097835
:10290000884202DA7F20D7494871D649097AC1F155
:102910007F0001F0EDFC642806DD0120D04908703D
:1029200001F010FFCD490860CE48007AC0F17F0069
:10293000C400CC484079C0F17F00C500601BCB4982
:1029400008606019CA490860C8480068B0F57A7F15
:1029500004DD4FF47A70C549086007E0C348006899
:1029600010F57A7F02DAC348C0490860C0480068A1
:10297000B0F57A7F04DD4FF47A70BD49086007E056
:10298000BB48006810F57A7F02DABA48B849086097
:10299000B6480068B8490968884205D1B44800685B
:1029A000B6490968884214D0AD48007848B101F0B2
:1029B000C9FEAA490860AE480168AC480068FFF744
:1029C0005AFFAA480068AC490860A9480068AB49AA
:1029D000086000BF7EE72DE9F04F8DB00546002668
:1029E000284602F095FC287823286ED128795028B3
:1029F000FBD168795328F8D1A8794328F5D1E87933
:102A00004B28F2D1287B2128EFD168783038642117
:102A10004843A978303901EB810100EB4101E878A6
:102A20003038084484B2687A303864214843A97A3F
:102A3000303901EB810100EB4101E87A30380F18A1
:102A400017F5FA7F61DBB7F5FA7F5EDC082C5CDAFC
:102A5000287A2B2803D0287A2D2800D17F423846A7
:102A600009F09DF9CDE908016C498C3151F8240039
:102A700009F095F9CDE90401814901EB0411886859
:102A800009F004FD7F4A804BCDE9000108F016FFF4
:102A9000CDE90201DDE9042309F00EFCCDE90601D0
:102AA000DDE9082308F00AFFCDE90A0108F0D4FEA9
:102AB00082465A488C3040F824707449504609F0D8
:102AC000DDFF03D2DFF8C4A107E021E070495046E2
:102AD00009F0D4FE01D2DFF8B8A1504609F082FE19
:102AE000674901EB04114880654800EB0410C0F809
:102AF00008A00020624901EB0411C86001F022FE29
:102B0000484908600120464908700DB0BDE8F08FC3
:102B10002878232846D12879502843D16879442839
:102B200040D1A87953283DD1E87954283AD1287A60
:102B3000212837D16878303864214843A978303962
:102B400001EB810100EB4101E8783038084484B2A0
:102B5000082C0FDA00204A4901EB0411C8604849EB
:102B600001EB0411886809F03DFE454901EB0411B1
:102B7000488016E0FF2C14D1002410E000204049CA
:102B800001EB0411C8603E4901EB0411886809F0AB
:102B900029FE3B4901EB04114880601C84B2082CDB
:102BA000ECDBB2E755E1A85D232813D10024701CAB
:102BB00086B208E0A85D04EB840100EB41003038E8
:102BC00084B2701C86B2A85D0028EBD0A85D5028A6
:102BD000E8D0EFE7A85D502860D14FF00009701CE5
:102BE00086B212E0A85D09F035FE2A490B904846EE
:102BF00009F078FE0A900B9909F074FC8346264987
:102C000009F078FF8146701C86B2A85D0028C9D003
:102C1000A85D5428C6D0E5E700F87F00B80A002078
:102C2000400000204400002000010020040100209A
:102C3000080100207B233030365025303464423088
:102C4000303030212330303750253034644230303A
:102C50003030217D00000000B8020020F800002084
:102C6000FC000020D4010020FD000020E80000202E
:102C7000EC00002018FCFFFFF0000020F400002012
:102C800038020020D655815A0C1EA63F00101C4564
:102C90000000FA430000204100004042A85D542893
:102CA0007ED14FF00008701C86B209E0A85D08EBE9
:102CB000880100EB410030381FFA80F8701C86B2A2
:102CC000A85D10B1A85D2128F0D1082C75DAFE4965
:102CD000484609F0D3FD70D8FC49484609F0CEFEBD
:102CE0006BD842F21070804567DCF94951F8240036
:102CF00009F098FD8346494609F0F4FB8146F54901
:102D0000484609F0BBFE01D2DFF8C893EF494846B8
:102D100009F0B4FD01D2DFF8B493B8F1140F11DA61
:102D2000484609F05FFDEC4901EB04114880EA4890
:102D300000EB0410C0F808900020E74901EB0411F3
:102D4000C8603AE0484609F04DFDE34901EB041143
:102D50004880E14800EB0410A0F80480DE4901EB54
:102D60000411888809F032F80022DC4BCDE9040117
:102D700008F060FECDE90801D74901EB041148884D
:102D800009F068FD0590D44800EB041081680598AF
:102D900009F0B0FE834609F079FBCDE9060100E0B9
:102DA00055E0DDE9082308F045FECDE90A0108F009
:102DB00053FDC94901EB0411C860FF2C49D100241F
:102DC00042E0C34951F8241001F2DC5009F02AFD19
:102DD0008146484609F006FDBF4901EB04114880D1
:102DE000BD4800EB0410A0F80480BB4901EB0411BE
:102DF000888808F0EBFF0022B84BCDE9040108F009
:102E000019FECDE90801B44901EB0411488809F025
:102E100021FD0590B04800EB04108168059809F089
:102E200069FE834609F032FBCDE90601DDE908239E
:102E300008F000FECDE90A0108F00EFDA64901EBFD
:102E40000411C860601C84B2082C02DAB9E7701C57
:102E500086B2A85D00287FF4A6AE00BF55E62DE936
:102E6000FF470446894692469B4901EB0411A1F8AD
:102E70000290994901EB0411A1F804A0964901EBD5
:102E80000411888808F0A2FF07460022934B08F03F
:102E9000D1FD05460E46904901EB0411488809F022
:102EA000D9FC80468C4800EB04108168404609F04C
:102EB00021FE074609F0EAFA2A463346CDE9000129
:102EC00008F0B8FDCDE9020108F0C6FC824901EB2B
:102ED0000411C860824951F8240009F0D7FA4B4622
:102EE0002246CDF800A0CDE902017EA1844806F07B
:102EF00039F9834802F0E4F9BDE8FF872DE9FC5F6A
:102F00000646894692461F464FF00008C34686F0A3
:102F100000460021304609F0B1FC02D20020BDE895
:102F2000FC9F4FF0000B002413E0204609F07AFCD0
:102F300001906B4810380090524649463046019B3C
:102F400004F00DFA20B9444500DAA0464FF0010B19
:102F5000641E14F1870FE8DABBF1000F1BD0404666
:102F600009F060FC01905E481038009052464946D6
:102F70003046019B04F0F3F9002508E05848303052
:102F800050F825103A462846FFF769FF6D1C042DBE
:102F9000F4DB0120C3E70020C1E770B50246002141
:102FA0000020002323E0545C542C1ED14C1C145DE3
:102FB000303C4FF47A756C438D1C555D303D05EB0C
:102FC000C50606EB051504EB8505CC1C145D303CED
:102FD00004EB840405EB44050C1D145D303C2B19F7
:102FE000834200DD1846091D01E0491C00BF545C06
:102FF000002CD8D170BD10B50446012002F0E3F9D1
:103000004FF480613F4806F067FBE1017F223D48B5
:1030100002F012FB3B48FFF7C0FF3B49086039480C
:10302000FFF7D9FC224639A1354806F09BF8344811
:1030300002F046F9002002F0C6F910BD02680B68E4
:1030400003600A60704713B5012002F0BCF9DDE9A6
:103050000001884203DD01A96846FFF7EFFF19E090
:103060004FF48061274806F037FB0098C1018022A9
:10307000244802F0E1FA234802F022F928A002F0E5
:103080001FF9204802F053F925A002F050F90098EA
:10309000401C0090DDE900018842E1DD002002F0E3
:1030A00092F91CBD012080F3138800BF00BF1D48AA
:1030B000006800F4E0601C490843001D19490860DD
:1030C000BFF34F8F00BF31E000401C450000FA43C2
:1030D000440B002000101C45380200200000344042
:1030E000F00100202325303364502530346454250A
:1030F0003034642128252E3166290D0A0000000095
:10310000B8020020B80600204800002040446F4765
:10311000726F7570202564204F4B210D0A0000004E
:103120000D0A00000CED00E00000FA0500BFFEE70C
:103130002DE9F14F88B0FDA1089801F094F883467D
:10314000BBF1000F03D0FBA002F0BAF8D7E2FCA15C
:10315000089801F088F88346BBF1000F24D00120C5
:10316000F94908704FF0000A10E00020F74901EB20
:103170000A11C860F54901EB0A11886809F032FBB1
:10318000F24901EB0A1148800AF1010ABAF1080F6D
:10319000EBDBEFA002F0BCF800210846FFF76BFB69
:1031A000FF20EE490870AAE2EDA1089801F05BF853
:1031B0008346BBF1000F26D006AAEBA1089806F0C3
:1031C0000DF90028C2D00020E049069A01EB021157
:1031D000C860DE49069A01EB0211886809F002FB1B
:1031E000DA49069A01EB02114880E2A1E548069A05
:1031F00005F0B8FFE34802F08BF84FF48061E14836
:1032000006F06AFA7BE2E0A1089801F02CF8834608
:10321000BBF1000F01D0FFF745FFDDA1089801F0D9
:1032200022F88346BBF1000F0CD004AB05AADAA14B
:10323000089806F0D3F8002888D0DDE90410FFF7DD
:1032400002FF5CE2D7A1089801F00DF88346BBF1BC
:10325000000F0DD005AAD5A1089806F0BFF80028E8
:10326000A1D00120B84908700598FFF7C4FE46E2D6
:10327000D1A1089800F0F7FF8346BBF1000F23D0DF
:10328000CF48D04BD04AD1A10090089806F0A6F8BC
:10329000002888D00120AC490870CB480068C94993
:1032A000096888420BD0C8480068CC490860C44807
:1032B0000068CB4908600020A34908701FE2C2489B
:1032C0000068FFF798FE1AE2C6A1089800F0CBFF4D
:1032D0008346BBF1000F26D004AB05AAC3A1089812
:1032E00006F07CF800288DD00598142802DD142003
:1032F000059006E0059810F1140F02DA6FF0130044
:1033000005900498142802DD1420049006E0049827
:1033100010F1140F02DA6FF013000490DDE90410CD
:10332000FFF7A9FAEBE1B4A1089800F09CFF8346EF
:10333000BBF1000F47D0FF2088490870B0A001F012
:10334000E7FF4FF0000A3AE0B14830F82A0000F2F7
:10335000DC507E4901EB0A1148804FF4FA607B494A
:1033600001EB0A118880794901EB0A11888808F07D
:103370002DFD06460022A74B08F05CFBCDE90001BD
:10338000724901EB0A11488809F064FA07466F4850
:1033900000EB0A108168384609F0ACFB064609F0DC
:1033A00075F88046DDE9002308F044FB044608F088
:1033B00053FA664901EB0A11C8600AF1010ABAF131
:1033C000080FC1DB9BE194A1089800F04CFF8346F5
:1033D000BBF1000F04D000210846FFF74CFA8EE144
:1033E00090A1089800F03FFF8346BBF1000F03D087
:1033F0008EA001F065FF82E18DA1089800F033FFF7
:103400008346BBF1000F34D005AA8BA18D4805F08F
:10341000E5FF002886D051490598087008460078D5
:1034200003280BD008460078042807D00846007807
:10343000012803D008460078092807D10021084652
:10344000FFF719FA0020804908700DE04348007822
:1034500018B901207D49087006E00C210846FFF7E5
:103460000AFA0120794908706421012001F04DF821
:1034700045E177A1089800F0F6FE8346BBF1000F06
:103480001CD0FF20354908700A2000F0C8FE30A08B
:10349000FFF7A1FA0A2000F0C2FE71A001F038FF88
:1034A0000A2000F0BCFE77A001F00AFF0A2000F01D
:1034B000B6FE6421012001F028F820E173A10898EC
:1034C00000F0D1FE8346BBF1000F2DD002A803A966
:1034D00004AB05AACDE900106EA1089805F07EFFA7
:1034E00010B371A001F0ECFE039809F09BF90446BB
:1034F000049809F097F90546059809F093F90646EE
:1035000022462946029BFFF7F9FC70B101210520F4
:1035100000F018FF322000F082FE0021052000F0AC
:1035200011FF322000F07BFEE9E0C9E02444525351
:103530002100000068656C6C6F20776F7264210059
:1035400024445354210000002501002038020020AB
:10355000233235355044535421000000240100200B
:10356000244453543A000000244453543A2564211F
:1035700000000000232530336450445354210D0AC9
:1035800000000000B8020020245253542100000023
:10359000245054473A000000245054473A25642DE3
:1035A00025642100244447533A0000002444475333
:1035B0003A25642100000000244447543A000000EA
:1035C0003C000020380000203400002024444754F0
:1035D0003A25642D25642C25642100002C00002050
:1035E00030000020244443523A0000002444435257
:1035F0003A25642C2564210024444A52210000000D
:1036000023323535503135303054323030302100AE
:10361000440B002000003440244341525F53544F78
:103620005021000024474554412100004141410000
:1036300024534D4F4445000024534D4F44452564C9
:1036400021000000B8060020500100205E0100208B
:1036500024534D4152545F53544F502100000000F9
:103660007B233030365031353030543030303021DB
:103670002330303750313530305430303030217DC8
:1036800000000000404F4B2100000000244B4D5330
:103690003A000000244B4D533A25642C25642C2518
:1036A000642C25642100000054727920746F206618
:1036B000696E64206265737420706F733A0D0A003E
:1036C0000121052000F03EFE322000F0A8FD00217F
:1036D000052000F037FE322000F0A1FD0121052079
:1036E00000F030FE322000F09AFD0021052000F0AD
:1036F00029FE322000F093FDFAA001F0E1FD09B0AF
:10370000BDE8F08F2DE9F04107460E460025787898
:10371000397800EB0120F9490880F94800880988C8
:1037200088426ED0F5480088F6490880F348008842
:10373000F34909880840F14908800024EDE00120A0
:10374000A040EE490988084000287DD10120A04012
:10375000EB490988084000287FD04FF48061EA488F
:1037600005F0BAFF732E0DD1E84951F8240005F099
:103770001DFF8046E54850F824104246E24805F017
:1037800034FF10E0412E0DD1E14951F8240005F03D
:103790000DFF8046DE4850F824104246DA4805F016
:1037A00024FF00E0B7E0DBA1D74800F05CFDC5B224
:1037B0001DB10021681ED44A1154D7A1D24800F08F
:1037C00052FDF8B1002240F22551D448FDF7FBFA32
:1037D0000020D3490870CC490B31D24805F0C2FE15
:1037E000D049C94805F0BEFE0120CD49087001222C
:1037F00040F22551C948FDF7E6FA0120CA49087090
:1038000026E09CE0C9A1C04800F02DFD00B30022D5
:1038100040F22551C148FDF7D6FA0020C049087092
:10382000B9490B31BF4805F09DFEBE49B64805F0C9
:1038300099FE0120BA490870012240F22551B7488B
:10384000FDF7C1FA022001E064E006E0B649087025
:103850004FF6FF70AA4908805CE04FF48061AA48E7
:1038600005F03AFF732E0DD1A84951F8240005F058
:103870009DFE8046A54850F824104246A24805F017
:10388000B4FE10E0412E0DD1A14951F8240005F0FD
:103890008DFE80469E4850F8241042469A4805F016
:1038A000A4FE00E037E09BA1974800F0DCFCC5B225
:1038B00085B39549481998A100F0D5FC90B192487C
:1038C0004119984805F04EFE964805F06FFE401EDF
:1038D000944900220A548C4805F044FE8A48FFF7B8
:1038E00027FC17E08849481990A100F0BCFC88B17A
:1038F000854841198B4805F035FE8A4805F056FE8B
:10390000401E884900220A547F4805F02BFE7E485D
:10391000FFF761F800BF601CC4B2102CFFF60FAFB8
:1039200078480088764908800121052000F00AFDCA
:103930000A2000F074FC0021052000F003FDBDE822
:10394000F08110B57A4800787A49C978884205D163
:10395000774840787749097988420BD07548417893
:10396000C01CFFF7CFFE7348C078714908707148DA
:103970000079487010BD10B500F0E4FE6E4909688A
:10398000401A322800D210BD00F0DCFE6A490860FF
:10399000684800F050FE00BFF5E710B567480078B2
:1039A00000285CD100F0CEFE0021654AD2E9003249
:1039B000C31A61EB0201634800680022C01A8A4101
:1039C00050DA00F0BFFE00215D4A03C25E48006885
:1039D00048B15E48006830B90120584908705CA0C1
:1039E00001F06EFC10BD5D480068FFF704FB5C4809
:1039F00000685C490968884218DA584800685949E3
:103A0000096888420CD156480068544908604E48FD
:103A1000006820B14D480068401E4C490860E1E74D
:103A20004E480068401C4D4908601BE04B48006848
:103A30004C49096888420CD14948006847490860E8
:103A40004148006820B141480068401E3F49086075
:103A5000C8E742480068401E4049086002E00A206A
:103A60003849086000BFBDE704E003788B4200D10D
:103A70000270401C0378002BF7D1704701460022EA
:103A800015E00878472811D1491C07E0087802EBB7
:103A9000820300EB4300303882B2491C08782328A7
:103AA00002D008782428F1D110467047491C0878C4
:103AB0000028E6D1401EF8E7F8B5044600250120AD
:103AC00001F081FC607824285AD1A078212857D1B0
:103AD0000021254880F88810FEF7A4FE23A001F0FD
:103AE000EFFBF8BD43616E27742066696E64206247
:103AF00065737420706F7321212100001E01002066
:103B00001C01002020010020B80600204C000020ED
:103B10008C0000205E0000002400000000380140FE
:103B200022010020B8020020230100202300000011
:103B3000E4000020D4010020E00000202501002046
:103B4000D8000020480000203C0000203000002069
:103B50004047726F7570446F6E6521002C00002025
:103B60003400002038000020B80A002040434C45B3
:103B70004152205052455F434D44204F4B2100009D
:103B80006078242830D1FD48FD4BFE4AFEA100900C
:103B9000204605F023FC30B3FA480068F84909686C
:103BA000884207D1F7480068C1018022FB4801F034
:103BB00043FD0EE08121F94805F0B0FD611CF74896
:103BC00005F0D0FC204605F0F1FC801EF3490022F0
:103BD0000A542521F148083880F88810FEF722FEA3
:103BE000EFA001F06DFBF8BD2046FFF747FF05464B
:103BF000681C10B1A079232803D0EEA001F060FB6F
:103C0000F1E77B223C212046FFF72EFF7D223E215B
:103C10002046FFF729FFE801C11700EB11510913F6
:103C2000A0EB013131B9EE01F11706EB1151081388
:103C300001F08BFD204605F0B9FC401C86B2E9017D
:103C40003246204601F05EFDDBA001F039FBDAA030
:103C500001F06DFB002001F0B6FB00BFC3E710B51B
:103C6000D648007848B3D6480078012803D1D54813
:103C7000FFF75EFA16E0D2480078022803D1D14857
:103C8000FEF7A9FE0EE0CE480078032803D1CD4808
:103C9000FEF7A1FE06E0CA480078042802D1C94810
:103CA000FFF70AFF0020C6490870C44908700122C6
:103CB00040F22551C448FDF786F810BD10B500F05C
:103CC00041FDC2490968401AB0F57A7F14D900F065
:103CD00039FDBE490860BE48007820B100210D20A2
:103CE00000F030FB03E001210D2000F02BFBB84871
:103CF0000078C043B649087010BD62B6704710B571
:103D00000121052000F01EFB00210D2000F01AFB10
:103D1000642000F084FA0021052000F013FB01214B
:103D20000D2000F00FFB642000F079FA012105203E
:103D300000F008FB00210D2000F004FB642000F0DF
:103D40006EFA0021052000F0FDFA01210D2000F09F
:103D5000F9FA642000F063FA0121052000F0F2FA7C
:103D600000210D2000F0EEFA642000F058FA002146
:103D7000052000F0E7FA01210D2000F0E3FA6420AD
:103D800000F04DFA10BD10B5472144F6206000F058
:103D900010FD10BD10B500208E49086027E07F4857
:103DA00084308C49096830F8210000F2DC508A49DF
:103DB000884A126801EB021148808749854A1268D7
:103DC00001EB0211488808F045FD8349814A1268D9
:103DD00001EB0211886000207F497E4A126801EBE6
:103DE0000211C8607B480068401C7A490860794825
:103DF00000680828D3DB6948083890F8880025282F
:103E000031D166496F4805F0ADFB64480838007A47
:103E1000242803D16148FFF78BF924E010206D4975
:103E2000086016E0302167486A4A126881540246E9
:103E300068480068401C115466480068801C115492
:103E400064480068C01C1154624800680F30614922
:103E500008605C4805F0AAFB5E4909688842E1D821
:103E60005848FEF7B8FD10BD10B54FF4E13000F032
:103E7000CBFE012240F225515848FCF7A4FF58A080
:103E800001F055FAAFF6880001F042FA10BD10B506
:103E90004FF4E13000F059FF012240F225514A4829
:103EA000FCF791FF52A001F00BFA10BD10B500F025
:103EB00033FC10BD10B500F06CFB10BD10B5012037
:103EC00001F081FA01F0C3FAC0224D4933480838A5
:103ED00001F0B2FB3148083800684A49884205D0F1
:103EE00008462E4908390860002048602B480838E9
:103EF000D0F8AC00252818D00020364908600BE027
:103F0000002126488430334A126840F82210314894
:103F10000068401C2F4908602E4800680828EFDB25
:103F200025211E480838C0F8AC1000202949086037
:103F300072E01A4884302749096830F8210000F2FD
:103F4000DC5081B22448234A126800EB0210418001
:103F5000124984311F4A126851F8221001F2DC50D4
:103F600008F060FC1C491B4A126801EB02118860D2
:103F700000201949174A126846E000003C00002062
:103F800038000020340000203C244447543A256483
:103F90002D25642C2564213E00000000C00A00206D
:103FA00040534554205052455F434D44204F4B21D0
:103FB0000000000045000000410000002201002038
:103FC00023010020B806002000380140D000002066
:103FD000D4000020280000203802002000480040C3
:103FE000756172743320636865636B206F6B2100A9
:103FF000756172743120636865636B206F6B21009B
:1040000000F87F00E1EE330101EB0211C860654862
:104010000068401C6349086062480068082888DB23
:10402000002001F0D0F910BD10B500F006FA10BD67
:1040300010B500F0ACF90021052000F083F910BDA7
:1040400010B500F06BF901210D2000F07BF910BDD7
:1040500010B500F059F910BD10B500F0EDF810BD25
:1040600010B500F01DFB10BD08B5FFF7F9FFFFF715
:10407000F3FFFFF7EDFFFFF7E3FFFFF7D9FFFFF7D0
:10408000D3FFFFF71BFFFFF715FFFFF70FFFFFF74A
:10409000FEFEFFF7E9FEFFF77DFEFFF774FEFFF778
:1040A0002EFEFFF72AFE01F0FFFC03F080FC3E48E5
:1040B0003E4B3F4A3F4900903F4803F033F90FE041
:1040C000FFF7FCFDFFF7CBFDFFF767FCFFF753FCA5
:1040D000FFF737FCFEF7EDFBFEF7B5FB02F0C8F982
:1040E000EEE710B502F0B5FD10BD10B54FF4E130AC
:1040F00000F0DAFD012240F225513048FCF763FE62
:104100002FA001F0F1F810BD2DE9F04105460C4655
:10411000284600F0EDF80646204600F0E9F8304465
:104120002B49086008460068192823DB0846006808
:10413000192191FBF0F6304608F074FB2549086020
:10414000284608F06FFB074622480168384608F009
:10415000C9FB064608F02AFB0546204608F062FB2C
:1041600007461C480168384608F0BCFB064608F0C4
:104170001DFB0446281918490860281B17490860C8
:104180000846006840F2DC510B1A1348006800F240
:10419000DC521349134804F0E5FF124801F0B8F867
:1041A000BDE8F08128000020E00100200000164357
:1041B0000000C4420000D2420000B442004400406B
:1041C000756172743220636865636B206F6B2100C8
:1041D00014010020180100200C0100201001002013
:1041E000342C0008B8020020704700BF011EA0F167
:1041F000010290B2FAD1704700BF011EA0F1010286
:1042000090B2FAD1704700B5034602E00620FFF7EE
:10421000ECFF181EA3F101018BB2F7D100BD10B560
:10422000044603E04FF47A70FFF7EDFF201EA4F17F
:1042300001018CB2F6D110BD002011E040F2DC513A
:104240002F4A02EB001251802E492D4A02EB001238
:10425000916000212A4A02EB0012D160411CC8B2D1
:104260000828EBDB704770B504460B4621461A461A
:1042700019E008781578A84214D10AE011F8015B1A
:1042800012F8016BB54204D0D01A081A411C1A4624
:1042900002E010780028F1D100BF107818B9081B8F
:1042A00080B270BD491C08780028E2D100BFF8E751
:1042B000F0B50C46002117E00A464B1C07E050F809
:1042C000226050F82370BE4200DD1A465B1CA342F8
:1042D000F5DB8A4207D050F8225050F8216040F8B0
:1042E000226040F82150491C661E8E42E4DCF0BD7D
:1042F0000146002901DD084670474842FCE70000FE
:10430000380200200080BB4410B501210D20FCF7CD
:10431000ADFB01218848FCF7BEF910BD08B50121AD
:104320000820FCF7A3FB4FF40050ADF8000010206C
:104330008DF8030003208DF8020069467F48FCF7E2
:10434000D9F808BD70B504460D4635B10120A0402E
:1043500081B27A48FCF77BF905E00120A04081B2E8
:104360007648FCF776F970BD10B57548007820B135
:1043700000210D20FFF7E6FF03E001210D20FFF7EC
:10438000E1FF6F480078C0436D49087010BD08B563
:1043900001210820FCF76AFB2020ADF80000102066
:1043A0008DF8030003208DF8020069466348FCF78E
:1043B000A1F808BD70B504460D46002616E001219F
:1043C0000520FFF7BFFF00210D20FFF7BBFFA0B2C4
:1043D000FFF725FF00210520FFF7B4FF01210D2085
:1043E000FFF7B0FFA0B2FFF71AFF761CAE42E6D38C
:1043F00070BD70B504460D4635B10120A04081B2B4
:104400005048FCF724F905E00120A04081B24D4856
:10441000FCF71FF970BD70B504460D4635B101209B
:10442000A04081B24848FCF712F905E00120A04005
:1044300081B24548FCF70DF970BD08B501210C208B
:10444000FCF714FB4FF40140ADF8000003208DF899
:10445000020010208DF8030069463A48FCF74AF83C
:104460004FF47670ADF8000003208DF802001020A4
:104470008DF8030069463148FCF73CF808BD70B57B
:1044800004460D46062C22D2DFE804F003080D1284
:10449000171C29460320FFF755FF19E0294608207D
:1044A000FFF750FF14E029460920FFF74BFF0FE00C
:1044B00029460620FFF746FF0AE029460720FFF7B6
:1044C00041FF05E029460420FFF73CFF00E000BF64
:1044D00000BF70BD08B501210C20FCF7C7FA4FF4EE
:1044E0000060ADF8000048208DF8030069461348CD
:1044F000FCF700F80220ADF8000048208DF803001A
:1045000069461048FBF7F6FF08BD70B505460C4636
:1045100000260EE001210520FFF714FFA0B2FFF7EF
:104520007EFE00210520FFF70DFFA0B2FFF777FE0A
:10453000761CAE42EEDB70BD00023000000C014084
:104540002601002000080140001001401CB5012197
:104550000520FCF78BFA01214F48FCF79CF84FF43B
:10456000E040ADF8040010208DF8070003208DF81E
:10457000060001A94948FBF7BDFF4FF40040ADF824
:10458000000028208DF8030069464448FBF7B2FF7D
:104590001CBD10B5FFF7DAFF4FF400513F48FCF7A0
:1045A00056F84FF480413D48FCF751F84FF48051E4
:1045B0003A48FCF74CF810BD2DE9F04105462F466E
:1045C0000026002432E00120A040384028B14FF4FA
:1045D00080413248FCF73BF804E04FF480412F481B
:1045E000FCF737F80120FFF70EFE4FF480512B48FF
:1045F000FCF72DF80A20FFF706FE4FF480512748FC
:10460000FCF727F80A20FFF7FEFD4FF480512348FE
:10461000FCF71DF84FF400412048FBF7FEFF18B1EE
:104620000120A0403043C6B2601CC4B2082CCADBD3
:104630003046BDE8F08110B504464FF400511748EC
:10464000FCF707F80120FFF7B7FF20704220FFF7C3
:10465000B3FF60702078FFF7AFFFA0702078FFF7FE
:10466000ABFFE0702078FFF7A7FF20712078FFF7FD
:10467000A3FF60712078FFF79FFFA0712078FFF7FC
:104680009BFFE0712078FFF797FF20724FF40051F5
:104690000248FBF7DCFF10BD0004300000080140B9
:1046A00010B5FCF775F84FF48030FCF791F8FCF783
:1046B000CEF8044600BF002CFDD00020FCF70DF919
:1046C0004FF48060FCF712F90020FCF718F94FF462
:1046D000E0114FF48030FCF7E3F80120FCF7ECF830
:1046E00000BF3920FCF797F80028FAD00220FCF729
:1046F000E6F800BFFCF7ECF80828FBD110BD00007D
:1047000010B504460021204608F0B8F901D2204631
:1047100010BD84F00040FBE700204FF0E0218861ED
:10472000FB4848610846006940F00700086170478F
:1047300000204FF0E0218861F6480068401CF549F0
:1047400008607047F348006870477FB504460D461F
:104750000121C802FCF78AF9ADF80840681E80B252
:10476000ADF804000020ADF80A00ADF806008DF8A1
:104770000C0001A9E848FCF723FD0121E648FDF7FC
:1047800041FB01224121E448FDF791F819208DF801
:10479000000000208DF801008DF8020001208DF846
:1047A00003006846FCF7CBF90121DB48FDF764F80C
:1047B0007FBD7FB505460C4601210846FCF763F92D
:1047C000ADF80850ADF804400020ADF80A00ADF88F
:1047D000060001A94FF08040FCF7F2FC00214FF0E9
:1047E0008040FDF749F9012211469007FDF75FF877
:1047F0001C208DF8000001208DF8010002208DF8AA
:10480000020001208DF803006846FCF798F90121A9
:104810008807FDF731F87FBD7FB505460C460121BD
:104820000220FCF730F9ADF80850ADF80440002044
:10483000ADF80A00ADF8060001A9B848FCF7C0FCC5
:104840000021B648FDF718F901221146B348FDF7DB
:104850002EF81D208DF8000003208DF801000120A6
:104860008DF802008DF803006846FCF768F9012115
:10487000AA48FDF701F87FBD30B589B005460C4662
:1048800001210220FCF7FFF801210820FCF7EEF8D7
:104890000320ADF8200018208DF8230003208DF8A8
:1048A000220008A99E48FBF725FEADF81850ADF888
:1048B00014400020ADF81A00ADF8160005A997487D
:1048C000FCF77EFC6020ADF804000120ADF8060086
:1048D0000020ADF80C004FF4FA70ADF80A0001A901
:1048E0008E48FCF739FD08218C48FDF70BF901A92A
:1048F0008A48FCF77CFD08218848FDF70CF9012166
:104900008648FCF7B9FF09B030BD30B589B005461F
:104910000C4601210420FCF7B6F801210820FCF721
:10492000A5F84FF44070ADF8200018208DF8230052
:1049300003208DF8220008A97948FBF7DBFDADF8CC
:104940001850ADF814400020ADF81A00ADF816006C
:1049500005A97448FCF734FC6020ADF80400012080
:10496000ADF806000020ADF80C004FF4FA70ADF879
:104970000A0001A96B48FCF7EFFC08216948FDF724
:10498000C1F801A96748FCF732FD08216548FDF729
:10499000C2F801216348FCF76FFF09B030BD10B5C4
:1049A00004460021204608F069F801D2204610BDD7
:1049B00084F00040FBE72DE9F04704465A4901EB3B
:1049C0000411C868002107F0BDFE4AD0564800EB2C
:1049D0000410458840F6BA10854201DD054604E022
:1049E000B5F5FA7F01DA4FF4FA754F4A02EB04127B
:1049F000D1684D4A02EB0412D06807F073FD80467F
:104A0000FFF7CDFF0646284607F00CFF81464648D3
:104A100000EB04108168484608F06CF88046FFF708
:104A2000BEFF0746314607F029FF0CD8284607F09D
:104A3000F9FE3D4901EB0411886000203A4901EB81
:104A40000411C8600DE0384A02EB0412D168364AFE
:104A500002EB0412906807F045FD334901EB0411A5
:104A60008860BDE8F08710B501218807FDF7CDF912
:104A7000002841D001218807FDF7D8F92B4800789C
:104A8000082802D100202949087029480078A0B9D7
:104A90002549264A127801EB0211886807F0A2FE28
:104AA0004FF080418885012120480078FFF7E7FC1E
:104AB0001E480078FFF77FFF16E01B491B4A12785B
:104AC00001EB0211886807F08DFE40F6C4110C1A44
:104AD00009078C85002115480078FFF7D0FC1348A2
:104AE0000078401C114908701148007808B901206D
:104AF00000E000200E49087010BD10B501210748E4
:104B0000FDF783F918B101210448FDF78FF910BDB5
:104B10004019010028010020002C01400004004041
:104B2000000C014000080040380200203401002041
:104B30003301002030B589B005460C46012140F60E
:104B40000400FBF793FF4FF48070ADF80400482099
:104B50008DF8070003208DF8060001A92848FBF70F
:104B6000C9FC1B208DF8080000208DF809000120E9
:104B70008DF80A008DF80B0002A8FBF7E0FF192062
:104B80008DF8080000208DF809008DF80A0001203A
:104B90008DF80B0002A8FBF7D2FFADF81050ADF86E
:104BA0000C400020ADF81200ADF80E0003A9154826
:104BB000FCF706FB0020ADF818000220ADF81A0043
:104BC0000020ADF81E000120ADF81C000020ADF85B
:104BD000200006A90B48FCF786FD01210948FDF7D6
:104BE00011F902210748FDF70DF9012202210548BC
:104BF000FCF75DFE01210348FCF73EFE09B030BD25
:104C000000080140002C014010B586B00446012187
:104C10000820FBF72BFF01218804FBF734FF4FF43A
:104C20008060ADF8140018208DF8170003208DF86F
:104C3000160005A9F748FBF75DFC4FF40060ADF8DE
:104C4000140004208DF8170005A9F248FBF752FC68
:104C500001940020ADF80800ADF80A00ADF80C0092
:104C6000ADF810000C20ADF80E0001A9EA48FCF7E1
:104C700012F827208DF8000001208DF80100032094
:104C80008DF8020001208DF803006846FBF757FFFE
:104C9000012240F22551E048FCF795F80121DE4859
:104CA000FCF785F806B010BD10B586B004460121AA
:104CB0000420FBF7DBFE01214804FBF7E4FED748A4
:104CC000FBF7A6FF0420ADF8140003208DF81600B2
:104CD00018208DF8170005A9D148FBF70BFC082018
:104CE000ADF8140004208DF8170005A9CC48FBF797
:104CF00001FC01940020ADF80800ADF80A00ADF801
:104D00000C00ADF810000C20ADF80E0001A9C3484E
:104D1000FBF7C1FF26208DF8000001208DF801006F
:104D200002208DF8020001208DF803006846FBF791
:104D300006FF012240F22551B848FCF744F8012152
:104D4000B648FCF734F806B010BD10B588B004467C
:104D5000012144F20400FBF789FEB248FBF758FF3B
:104D60004FF40070ADF81C0003208DF81E001820D1
:104D70008DF81F0007A9AA48FBF7BCFB4FF4806021
:104D8000ADF81C0004208DF81F0007A9A448FBF70C
:104D9000B1FB03940020ADF81000ADF81200ADF89F
:104DA0001400ADF818000C20ADF816000020ADF886
:104DB0000400ADF806004FF40070ADF808000020C4
:104DC000ADF80A0001A99748FBF7DAFF03A9954857
:104DD000FBF761FF4FF4E060FBF7ACFE25208DF898
:104DE000000001208DF801008DF802008DF803000D
:104DF0006846FBF7A4FE012240F225518948FBF7E3
:104E0000E2FF01218748FBF7D2FF08B010BD10B5C3
:104E10004FF4E130FFF799FF012240F2255181481C
:104E2000FBF7D1FF4FF4E130FFF73EFF012240F2E4
:104E300025517A48FBF7C7FF4FF4E130FFF7E4FE56
:104E4000012240F225517448FBF7BDFF62B610BD48
:104E500010B5044621467348FCF716F810BD70B52E
:104E600005460E46002400BF0CE0295D6D48FCF7A6
:104E70000BF800BF80216B48FCF774F80028F9D0CC
:104E8000601C84B2B442F0DB70BD10B504460BE088
:104E900014F8011B6348FBF7F7FF00BF802161484E
:104EA000FCF760F80028F9D020780028F0D110BD78
:104EB00010B5044621465948FBF7E6FF10BD70B512
:104EC00005460E46002400BF0CE0295D5348FBF761
:104ED000DBFF00BF80215148FCF744F80028F9D0DF
:104EE000601C84B2B442F0DB70BD10B504460BE028
:104EF00014F8011B4948FBF7C7FF00BF8021474852
:104F0000FCF730F80028F9D020780028F0D110BD47
:104F100010B5044621464048FBF7B6FF10BD70B5FA
:104F200005460E46002400BF0CE0295D3A48FBF719
:104F3000ABFF00BF80213848FCF714F80028F9D0F7
:104F4000601C84B2B442F0DB70BD10B504460BE0C7
:104F500014F8011B3048FBF797FF00BF80212E4853
:104F6000FCF700F80028F9D020780028F0D110BD17
:104F700010B540F225512B48FBF7F4FF012879D1F9
:104F800040F225512748FCF72DF82648FBF780FF13
:104F9000C4B22548007808B1002010BD3C2C06D1D1
:104FA0000420224908700020214908801CE01F4885
:104FB0000078C8B9242C03D101201C49087010E0E6
:104FC000232C03D10220194908700AE07B2C03D15D
:104FD00003201649087004E03C2C02D10420134938
:104FE0000870002012490880114801880088401C80
:104FF0000F4A10800F4844540C48007804281BD1F5
:105000003E2C19D100200B491288885401200649F2
:1050100008703EE0000C01400048004000440040A1
:105020000008014000380140220100202301002037
:1050300036010020B8060020C748007801280AD1B0
:10504000212C08D10020C549C54A12888854012066
:10505000C44908701DE0C048007802280BD1212CFB
:1050600009D10021BD48BE4A128881540120BD49A2
:1050700008700EE015E0B8480078032809D17D2CAF
:1050800007D10020B549B64A128888540120B54995
:105090000870B3480088B0F5806F02DB0020B0498B
:1050A0000880002079E710B540F22551AE48FBF7A3
:1050B00059FF012878D140F22551AB48FBF792FF08
:1050C000A948FBF7E5FEC4B23C2C06D10420A24956
:1050D00008700020A54908801CE09F480078C8B9E6
:1050E000242C03D101209C49087010E0232C03D10B
:1050F0000220994908700AE07B2C03D103209649CD
:10510000087004E03C2C02D1042093490870002070
:1051100096490880954801880088401C934A108071
:105120008E4844548C480078042809D13E2C07D17D
:1051300000208A491288885401208A4908702BE08F
:105140008548007801280AD1212C08D10021834804
:10515000864A128881540120824908701CE07E48EA
:10516000007802280AD1212C08D100217B487F4AEF
:105170001288815401207B4908700DE07648007840
:10518000032809D17D2C07D100207449774A128861
:10519000885401207349087074480088B0F5806F06
:1051A00002DB002071490880002010BD10B540F2DC
:1051B00025516F48FBF7D6FE01287FD140F22551DB
:1051C0006B48FBF70FFF6A48FBF762FEC4B2654805
:1051D000007808B1002010BD3C2C06D104205E49A7
:1051E00008700020634908801CE05B480078C8B95B
:1051F000242C03D101205849087010E0232C03D13E
:105200000220554908700AE07B2C03D10320524943
:10521000087004E03C2C02D104204F4908700020A3
:1052200054490880534801880088401C514A108026
:105230004A48445448480078042809D13E2C07D1F4
:1052400000204649128888540120464908702BE006
:105250004148007801280AD1212C08D100203F497B
:10526000444A1288885401203E4908701CE03A489C
:10527000007802280AD1212C08D1002137483D4A64
:10528000128881540120374908700DE032480078B7
:10529000032809D17D2C07D100203049354A1288D6
:1052A000885401202F49087032480088B0F5806F7B
:1052B00004DB00202F4900E000E0088000208AE79E
:1052C00010B504462046FFF7E0FD10BD70B504465A
:1052D0000D4629462046FFF7C2FD70BD10B50446B5
:1052E0002046FFF7B5FD10BD10B504462046FFF778
:1052F000FCFD10BD70B504460D4629462046FFF75B
:10530000DEFD70BD10B504462046FFF7D1FD10BD8F
:1053100010B504460120134908702046FFF715FE1A
:105320002046FFF7B2FD00200E49087010BD10B5F1
:1053300004462046FFF709FE10BD70B504460D4631
:1053400029462046FFF7EBFD70BD10B50446204608
:10535000FFF7DEFD10BD000023010020B80600208D
:1053600036010020220100200044004038010020C6
:10537000004800403A01002070B50546002405E0D1
:10538000601CC4B2C82C01DD002070BD0221FE48A3
:10539000FCF79FFE0028F3D02946FB48FCF746FEA9
:1053A000002405E0601CC4B2C82C01DD0020ECE73D
:1053B0000121F548FCF78DFE0028F3D0F248FCF7F8
:1053C00037FEC0B2E1E710B50446ACB14FF400506F
:1053D000EE4908801820C870ED48FBF78BF84FF4B1
:1053E0000051EB48FBF733F90121E748FCF7EDFDED
:1053F000FF20FFF7C1FF0EE00021E348FCF7E5FDC9
:105400004FF40050E14908801020C87003208870D4
:10541000DF48FBF76FF810BD002106E00A2100BF4E
:105420000A1EA1F1010399B2FAD1021EA0F10103F3
:1054300098B2F3D1704710B50020D6498881D24880
:10544000FCF71EFD0121D048FCF7BFFD10BD08B5DB
:1054500001210820FBF70AFB4FF48050ADF8000053
:1054600010208DF8030003208DF802006946C8481B
:10547000FBF740F84FF48051C548FBF7E8F84FF4CC
:105480002040ADF8000018208DF803006946C048A0
:10549000FBF730F84FF48040ADF8000048208DF85D
:1054A00003006946BA48FBF725F84FF42041B84895
:1054B000FBF7CDF801218803FBF7E5FA0020B54999
:1054C00008804FF482704880002088800220C880C5
:1054D0000120088140024881382088810020C8814D
:1054E00007200882A848FCF7CBFC0121A648FCF75E
:1054F0006CFDFF20FFF740FFFFF79DFF08BD10B5D3
:105500003020A4498881A048FCF7BAFC01219E48BC
:10551000FCF75BFD10BD10B5002400224FF4805154
:105520009B48FBF798F89020FFF726FF0020FFF735
:1055300023FF0020FFF720FF0020FFF71DFFFF20C3
:10554000FFF71AFF44EA0024FF20FFF715FF04438A
:10555000012211038E48FBF77EF8204610BD10B5DE
:10556000002400224FF480518948FBF774F805208D
:10557000FFF702FFFF20FFF7FFFE044601221103A1
:105580008348FBF768F8204610BD10B5044600229A
:105590004FF480517E48FBF75EF80120FFF7ECFEE8
:1055A0002046FFF7E9FE012211037948FBF753F883
:1055B00010BD10B500224FF480517548FBF74BF831
:1055C0000620FFF7D9FE012211037148FBF743F8CB
:1055D00010BD10B500224FF480516D48FBF73BF829
:1055E0000420FFF7C9FE012211036948FBF733F8D5
:1055F00010BD10B5044600224FF480516448FBF7FB
:105600002AF80320FFF7B8FEC4F30740FFF7B4FE03
:10561000C4F30720FFF7B0FEE0B2FFF7ADFEFF20B6
:10562000FFF7AAFE5C490870012211035848FBF7F6
:1056300012F85948007810BD2DE9F04106460C4695
:10564000174600224FF480515148FBF704F803201D
:10565000FFF792FEC4F30740FFF78EFEC4F3072066
:10566000FFF78AFEE0B2FFF787FE002505E0FF2086
:10567000FFF782FE7055681C85B2BD42F7DB012240
:1056800011034348FAF7E7FFBDE8F08110B500BF0A
:10569000FFF765FF00F001000028F9D110BD2DE9EA
:1056A000F04107460C461646E0B2C0F58078464504
:1056B00000DD4646FFF77DFF00224FF4805134485D
:1056C000FAF7C9FF0220FFF757FEC4F30740FFF7C0
:1056D00053FEC4F30720FFF74FFEE0B2FFF74CFE86
:1056E000002504E0785DFFF747FE681C85B2B542EF
:1056F000F8DB012211032648FAF7ADFFFFF7C6FFDA
:10570000BDE8F0812DE9F04107460E461446F0B29F
:10571000C0F58075AC4200DC254612E02A463146D1
:105720003846FFF7BCFFAC4200D10BE02F442E44BB
:10573000601B84B2B4F5807F02DD4FF4807500E019
:105740002546EBE700BFBDE8F08110B50446240311
:10575000FFF72FFFFFF79AFF00224FF480510C480C
:10576000FAF779FF2020FFF707FEC4F30740FFF7A1
:1057700003FEC4F30720FFF7FFFDE0B2FFF7FCFDD7
:1057800001221103024809E0003800403C010020DA
:10579000000C0140780B002040010020FAF75BFF6D
:1057A000FFF774FF10BD2DE9F04781460F461646FE
:1057B0004FEA1738C7F30B0ACAF58054A64200DC3B
:1057C000344644E04FEA08314FF480528A48FFF7EC
:1057D00033FF002508E00AEB05008749085CFF2835
:1057E00000D003E0681C85B2A542F4DB00BFA542EF
:1057F00016DA4046FFF7A9FF002507E019F8050073
:1058000005EB0A017C4A5054681C85B2A542F5DBC1
:105810004FEA08314FF480527748FFF773FF04E0F6
:10582000224639464846FFF76DFFA64200D10FE0F9
:1058300008F101084FF0000AA1442744301B86B24A
:10584000B6F5805F02DD4FF4805400E03446B9E7DE
:1058500000BFBDE8F0872DE9F04107460C4615462C
:10586000C4F30B00C0F58056B54200DD35462A462C
:1058700021463846FFF746FFBDE8F0812DE9F043A9
:1058800081B0ADF5805D80460F4616464FF00009A9
:10589000C7F30B00C0F58054A64200DC344644E058
:1058A0004FEA17394FEA09314FF4805201A8FFF748
:1058B000C3FE002509E0C7F30B00284401A9085CDA
:1058C000FF2800D003E0681C85B2A542F3DB00BFCF
:1058D000A54217DA4846FFF738FF002508E018F818
:1058E0000500C7F30B01294401AA5054681C85B276
:1058F000A542F4DB4FEA09314FF4805201A8FFF7CB
:10590000AAFF04E0224639464046FFF7A4FFA6421C
:1059100000D10BE0A0442744301B86B2B6F5805F6F
:1059200002DD4FF4805400E03446B9E700BF01B017
:105930000DF5805DBDE8F08370B505460C46FFF7B8
:1059400038FE00224FF480512C48FAF784FE0220E2
:10595000FFF712FDC4F30740FFF70EFDC4F3072065
:10596000FFF70AFDE0B2FFF707FD2846FFF704FD49
:10597000012211032148FAF76EFEFFF787FE70BD82
:1059800010B5FFF716FEFFF781FE00224FF480519D
:105990001A48FAF760FEC720FFF7EEFC0122110358
:1059A0001648FAF758FEFFF771FE10BD10B5002239
:1059B0004FF480511148FAF74EFEB920FFF7DCFC96
:1059C000012211030D48FAF746FE0320FFF724FDDC
:1059D00010BD10B500224FF480510848FAF73BFE85
:1059E000AB20FFF7C9FC012211030448FAF733FE8C
:1059F0000320FFF711FD10BD8A0B0020000C0140B1
:105A000008B501210420FBF731F80B20ADF80000A8
:105A100048208DF803006946FE48FAF76BFD012126
:105A20000820FBF723F80220ADF8000048208DF88D
:105A300003006946F848FAF75DFD08BD08B5012185
:105A40000C20FBF713F80120ADF8000010208DF8B2
:105A5000030003208DF802006946EF48FAF74AFD7B
:105A60000420ADF800008DF803006946E948FAF714
:105A700041FD472147F23050FEF7CEFE08BD08B584
:105A800001210420FAF7F2FF4020ADF80000482081
:105A90008DF803006946DF48FAF72CFD08BD10B504
:105AA000F62001F0F6FA10BD10B5FFF7A9FFFFF7D9
:105AB000E6FFFFF7C3FFFFF7F2FF10BD0246501AE3
:105AC00003B2022B02DD881C00B2704713F1020FF3
:105AD00002DA881E00B2F8E71046F6E730B500EBB0
