:020000040800F2
:10000000C0210020E127000837020008390200085B
:100010003D020008410200084502000800000000FF
:10002000000000000000000000000000490200087D
:100030004B020008000000004D02000805480008BF
:10004000FB270008FB270008FB270008FB27000808
:10005000FB270008FB270008FB270008FB270008F8
:10006000FB270008FB270008FB270008FB270008E8
:10007000FB270008FB270008FB270008FB270008D8
:10008000FB270008FB270008FB270008FB270008C8
:10009000FB270008FB270008FB270008FB270008B8
:1000A000FB270008FB270008FB270008FB270008A8
:1000B0003B4B0008CF4B0008FB270008FB2700083C
:1000C000FB270008FB270008FB270008FB27000888
:1000D000FB270008455000087B51000881520008AA
:1000E000FB270008FB270008FB270008FB27000868
:1000F000FB270008FB270008FB270008FB27000858
:10010000FB270008FB270008FB270008FB27000847
:10011000FB270008FB270008FB270008FB27000837
:10012000FB270008FB270008FB270008FB27000827
:1001300000F002F800F070F80AA090E8000C824489
:100140008344AAF10107DA4501D100F065F8AFF266
:10015000090EBAE80F0013F0010F18BFFB1A43F0A5
:100160000103184760B0000080B000000A444FF05F
:10017000000C10F8013B13F0070408BF10F8014B06
:100180001D1108BF10F8015B641E05D010F8016B4B
:10019000641E01F8016BF9D113F0080F1EBF10F8AF
:1001A000014BAD1C0C1B09D16D1E58BF01F801CBD2
:1001B000FAD505E014F8016B01F8016B6D1EF9D555
:1001C0009142D6D37047000000230024002500266A
:1001D000103A28BF78C1FBD8520728BF30C148BFAA
:1001E0000B60704766290AF02084642906F0648752
:1001F000002070471FB507F0D7FC04000020002145
:1002000009F044FA401C60600020002109F028FA3F
:10021000E0601FBD10B510BD07F08CFF1146FFF761
:10022000E9FF03F070FF07F0B3FF03B4FFF7F2FF3D
:1002300003BC07F0F7FF704700BFFEE700BFFEE713
:1002400000BFFEE700BFFEE7704770477047000041
:100250000CB50020019000906C48006840F480309C
:100260006A49086000BF6948006800F400300090E7
:100270000198401C0190009818B90198B0F5A06F42
:10028000F1D16248006800F4003010B10120009004
:1002900001E0002000900098012843D15C480068EC
:1002A00040F010005A4908600846006820F003003A
:1002B00008600846006840F0020008605348406843
:1002C000524948600846406848600846406840F423
:1002D000806048600846406820F47C10486008460A
:1002E000406840F4E81048600846006840F08070BC
:1002F000086000BF4548006800F000700028F9D091
:100300004248406820F00300404948600846406881
:1003100040F00200486000BF3C48406800F00C001C
:100320000828F9D10CBD10B5FFF792FF10BD10B52C
:100330003648006840F001003449086008464068CB
:10034000344908403149486008460068324908404D
:100350002E4908600846006820F48020086008469E
:10036000406820F4FE0048604FF41F008860FFF7EB
:10037000DAFF4FF000602949086010BD10B5002178
:1003800000200022214B5B6803F00C0121B10429FD
:1003900006D0082928D107E0214B224C236027E012
:1003A0001F4B204C236023E0184B5B6803F4701054
:1003B000164B5B6803F48032022303EB904022B9B2
:1003C000194B4343174C23600DE0104B5B6803F45B
:1003D000003323B1144B4343124C236003E0104B12
:1003E0004343104C236003E00D4B0E4C236000BFD1
:1003F00000BF064B5B68C3F303130C4CE15C094B75
:100400001B68CB40074C236010BD00000010024069
:10041000002002400000FFF8FFFFF6FE08ED00E0BC
:1004200000127A000000002000093D0004000020B6
:1004300010B50446CC48844208D10121042000F0C4
:100440002DFB0021042000F029FB46E0C748844230
:1004500008D10121082000F021FB0021082000F034
:100460001DFB3AE0C248844208D10121102000F06F
:1004700015FB0021102000F011FB2EE0BD48844246
:1004800008D10121202000F009FB0021202000F0EC
:1004900005FB22E0B848844208D10121402000F049
:1004A000FDFA0021402000F0F9FA16E0B34884423A
:1004B00008D10121802000F0F1FA0021802000F015
:1004C000EDFA0AE0AE48844207D10121801500F020
:1004D000E5FA0021A01500F0E1FA10BD10B50121E8
:1004E000084600F0DBFA0021012000F0D7FA10BD29
:1004F0002DE9F041024600250026002000230024BB
:10050000002791F803C00CF00F0591F803C00CF020
:10051000100CBCF1000F03D091F802C04CEA0505A5
:1005200091F800C0BCF1000F31D0146800202BE01E
:100530004FF0010C0CFA00F3B1F800C00CEA03060E
:100540009E4220D183004FF00F0C0CFA03F7BC43FE
:1005500005FA03FC4CEA040491F803C0BCF1280F2F
:1005600006D14FF0010C0CFA00FCC2F814C00AE0EE
:1005700091F803C0BCF1480F05D14FF0010C0CFA03
:1005800000FCC2F810C0401C0828D1D31460B1F898
:1005900000C0BCF1FF0F34DD546800202EE000F1F4
:1005A000080C4FF0010808FA0CF3B1F800C00CEA8F
:1005B00003069E4221D183004FF00F0C0CFA03F783
:1005C000BC4305FA03FC4CEA040491F803C0BCF1F7
:1005D000280F05D100F1080C08FA0CF8C2F81480B5
:1005E00091F803C0BCF1480F07D100F1080C4FF09F
:1005F000010808FA0CF8C2F81080401C0828CED375
:100600005460BDE8F0814FF6FF71018002218170D6
:100610000421C17070470246002093680B400BB163
:10062000012000E0002070470146886880B27047D2
:1006300002460020D3680B400BB1012000E00020EF
:1006400070470146C86880B27047016170474161D8
:1006500070470AB1016100E041617047C1607047B5
:100660004FF480320A4382618161826182698269CA
:10067000704702460020434B18684FF680731840BD
:1006800040EA021008433F4B186070473E49C8617A
:100690007047F0B50A46002300240021002500F031
:1006A0000046B6F1004F02D1364EF16901E0354EF9
:1006B0007168C0F3034583B200F44016B6F5401FDD
:1006C00008D121F070612F4E766826F070662D4FAC
:1006D0007E6012E000F48016B6F5801F06D1032676
:1006E00006FA05F4A14341F0706106E0460D3601BB
:1006F00003FA06F6B14341F0706122B1460D3601AE
:1007000003FA06F6314300F00046B6F1004F02D17D
:100710001C4EF16101E01B4E7160F0BD30B500224E
:100720008B071C0F0F2303FA04F2164B08338C10AF
:1007300053F824309343134C08348D1044F825307B
:1007400023468C1053F824308C07240F00FA04F44D
:1007500023430C4C08348D1044F8253030BD0A4931
:10076000DC3108607047000000080140000C0140C7
:10077000001001400014014000180140001C01401D
:10078000002001400000014000002042DF480068D6
:1007900040F00100DD49086008464068DC49084037
:1007A000DA49486008460068DA490840D7490860D5
:1007B0000846006820F4802008600846406820F45D
:1007C000FE0048604FF41F0088607047CF490968F9
:1007D00021F48031CD4A11601146096821F480214D
:1007E0001160B0F5803F03D0B0F5802F0ED106E048
:1007F000C649096841F48031C44A116007E0C34921
:10080000096841F4A021C14A116000E000BF00BFA7
:10081000704710B501460022002300204A11012A2A
:1008200002D1BA4C236806E0022A02D1B74C236AEF
:1008300001E0B64C636A01F01F02012494401C40A1
:100840000CB1012000E0002010BD38B50020009060
:100850000024002500BF3120FFF7DBFF054600988C
:10086000401C00900098B0F5A06F01D0002DF2D090
:100870003120FFF7CEFF08B1012400E0002420461C
:1008800038BD01460020A14A106820F0F80040EA77
:10089000C10010607047A049086070470246002000
:1008A0009A4B586820F47C1042EA01031843974B96
:1008B0005860704798490866704701460020934A7F
:1008C000506820F003000843506070478F4840682C
:1008D00000F00C007047014600208C4A506820F060
:1008E000F00008435060704701460020874A506876
:1008F00020F4E06008435060704701460020834ABE
:10090000506820F4605040EAC1005060704729B13F
:100910007E4A527A02437D4B5A7204E07B4A527AF5
:1009200082437A4B5A7270477B49D83108607047CE
:1009300001460020754A506820F44040084350604A
:1009400070470021714A20321170704A82F82010DD
:10095000012802D004280AD104E001216B4A203288
:10096000117005E00521694A2032117000E000BFD6
:1009700000BF70476949086070476449096A0143CC
:10098000624A11627047654944390860704730B562
:1009900000210022002400235C4D6D6805F00C014D
:1009A00021B1042905D0082923D105E05C4D05605B
:1009B00022E05B4D05601FE0544D6D6805F4701238
:1009C000524D6D6805F48034022505EB92421CB946
:1009D000544D554305600BE04C4D6D6805F40035F2
:1009E0001DB1504D5543056002E04D4D5543056026
:1009F00002E04B4D056000BF00BF444D6D6805F03F
:100A0000F0010909484D6B5C0568DD4045603F4DCC
:100A10006D6805F4E061090A434D6B5C4568DD4093
:100A200085603A4D6D6805F46051C90A3E4D6B5CB6
:100A30004568DD40C560354D6D6805F44041890B62
:100A40003A4D6B5CC568B5FBF3F5056130BD29B166
:100A50002E4A526902432D4B5A6104E02B4A5269D7
:100A600082432A4B5A61704729B1284A926902434E
:100A7000264B9A6104E0254A92698243234B9A618E
:100A8000704729B1214AD2690243204BDA6104E060
:100A90001E4AD26982431D4BDA61704729B11B4A55
:100AA000D2680243194BDA6004E0184AD2688243E4
:100AB000164BDA60704729B1144A12690243134B8E
:100AC0001A6104E0114A12698243104B1A6170479F
:100AD00012494039086070470F49C86470470B4994
:100AE000C87170470948406A40F080700749486201
:100AF000704701460020054A92680A400AB1012069
:100B000000E00020704701498872704700100240E1
:100B10000000FFF8FFFFF6FE000042428004424260
:100B200000127A0000093D0014000020240000207B
:100B300031490143314A1160704770B500210023EB
:100B40000F22C47804B32D4C246804F4E064C4F587
:100B5000E064210AC1F10403CA40447804FA03F1B5
:100B60008478144021430901254C0678A155047866
:100B700004F01F050124AC4005786D11AD0005F1AE
:100B8000E025C5F8004109E0047804F01F050124C0
:100B9000AC401C4D0678761145F8264070BD1A4AC7
:100BA0000A400243154B1B1F1A60704739B1134AA4
:100BB000121D12680243114B1B1D1A6006E00F4AFA
:100BC000121D126882430D4B1B1D1A6070470428CA
:100BD00008D14FF0E021096941F004014FF0E02213
:100BE000116107E04FF0E021096921F004014FF0A5
:100BF000E0221161704700000000FA050CED00E0F2
:100C000000E400E080E100E080FFFF1F10B5044633
:100C1000FB48844209D101218803FFF73FFF0021EF
:100C20004FF48040FFF73AFF32E0F648844209D1A2
:100C300001214804FFF73FFF00214FF40030FFF788
:100C40003AFF25E0F048844209D101218804FFF7EA
:100C500032FF00214FF48020FFF72DFF18E0EB4812
:100C6000844209D10121C804FFF725FF00214FF478
:100C70000020FFF720FF0BE0E548844208D1012166
:100C80000805FFF718FF00214FF48010FFF713FF4E
:100C900010BD2DE9F04786B005460E460024A24659
:100CA00000BFA1460027B08900B100BF2F462C8AA3
:100CB0004CF6FF700440F08804432C82AC894EF659
:100CC000F3100440B0883189084371890843044314
:100CD000AC81AC8A4FF6FF400440B0890443AC823B
:100CE00001A8FFF754FEC648874202D1DDF810A0E4
:100CF00001E0DDF80CA0A88900F4004040B10AEB47
:100D0000CA0000EB0A1031684900B0FBF1F807E0B7
:100D10000AEBCA0000EB0A1031688900B0FBF1F859
:100D20006420B8FBF0F004012009642101FB108964
:100D3000A88900F4004040B1322000EBC900B0FBAC
:100D4000F1F000F00700044308E0322000EB091046
:100D50006421B0FBF1F000F00F0004432C8106B0D9
:100D6000BDE8F0874FF41651016000218180C180F9
:100D700001810C21418100218181704710B502461B
:100D80000020108A4FF2FF0318400B884C88234341
:100D90008C882343CC8823431843108210BD002144
:100DA000018041808180C180704721B1828942F4F5
:100DB0000052828104E082894DF6FF731A408281DD
:100DC0007047F0B50346002400260025002040F6B9
:100DD0006A17B94200D100BF1846C1F3421401F0AE
:100DE0001F06012707FA06F5012C01D10C3004E09B
:100DF000022C01D1103000E014301AB107682F43E3
:100E0000076002E00768AF430760F0BD1AB1838A4C
:100E10000B43838202E0838A8B4383827047028A7A
:100E20004FF6F0731A400282028A0A430282704728
:100E300082894FF2FF731A40828182890A4382813C
:100E4000704721B1828942F00202828104E08289E6
:100E50004FF6FD731A4082817047028A4FF6DF73A6
:100E60001A400282028A0A430282704721B1028A32
:100E700042F48042028204E0028A4BF6FF731A4079
:100E800002827047C1F30802828070470146888859
:100E9000C0F308007047818941F0010181817047EA
:100EA000028BD2B20283028B42EA01220283704794
:100EB000028B02F47F420283028B0A430283704753
:100EC00021B1828A42F02002828204E0828A4FF6B7
:100ED000DF731A408282704721B1828A42F0100289
:100EE000828204E0828A4FF6EF731A408282704752
:100EF00021B1828A42F00802828204E0828A4FF69F
:100F0000F7731A408282704721B1828942F400420D
:100F1000828103E08289C2F30E028281704721B18F
:100F2000828A42F40062828204E0828A4FF2FF7376
:100F30001A4082827047828A4FF6FB731A4082827F
:100F4000828A0A438282704721B1828A42F0020279
:100F5000828204E0828A4FF6FD731A4082827047D3
:100F600002460020B1F5007F00D100BF13880B407E
:100F70000BB1012000E00020704701F40072B2F5CF
:100F8000007F00D100BFCA430280704770B502469F
:100F9000002400230025002040F66A16B14200D14B
:100FA00000BFC1F3421501F01F03012606FA03F347
:100FB000012D02D19689334006E0022D02D1168A16
:100FC000334001E0968A33400C12012606FA04F4FD
:100FD0001688344013B10CB1012000E0002070BD30
:100FE00010B50022002340F66A14A14200D100BFD0
:100FF0000A1201249440A3B2DC43048010BD000017
:10100000003801400044004000480040004C0040CF
:101010000050004010B50446FE48844208D101212A
:10102000C014FFF73BFD0021E014FFF737FDC4E0DB
:10103000B4F1804F08D101210846FFF73CFD0021A3
:101040000120FFF738FDB8E0F348844208D10121C0
:101050000220FFF730FD00210220FFF72CFDACE05D
:10106000EE48844208D101210420FFF724FD00212D
:101070000420FFF720FDA0E0E948844208D10121C7
:101080000820FFF718FD00210820FFF714FD94E069
:10109000E448844208D101211020FFF70CFD002113
:1010A0001020FFF708FD88E0DF48844208D10121C5
:1010B0002020FFF700FD00212020FFF7FCFC7CE052
:1010C000DA48844208D101214014FFF7E7FC0021EF
:1010D0006014FFF7E3FC70E0D548844209D1012198
:1010E000C804FFF7DBFC00214FF40020FFF7D6FC1B
:1010F00063E0D048844209D101210805FFF7CEFC06
:1011000000214FF48010FFF7C9FC56E0CA48844222
:1011100009D101214805FFF7C1FC00214FF400105F
:10112000FFF7BCFC49E0C548844208D101214020BA
:10113000FFF7C1FC00214020FFF7BDFC3DE0C048A7
:10114000844208D101218020FFF7B5FC00218020D6
:10115000FFF7B1FC31E0BB48844208D10121801582
:10116000FFF7A9FC0021A015FFF7A5FC25E0B64874
:10117000844209D101210804FFF790FC00214FF4BB
:101180008030FFF78BFC18E0B048844209D1012180
:101190004804FFF783FC00214FF40030FFF77EFC8A
:1011A0000BE0AB48844208D101218804FFF776FCAC
:1011B00000214FF48020FFF771FC10BD002202884F
:1011C000944B98420ED0994B98420BD0B0F1804F7F
:1011D00008D0914B984205D0904B984202D0904B4A
:1011E000984204D14FF68F731A404B881A438D4BA7
:1011F000984207D08C4B984204D04FF6FF431A40D8
:10120000CB881A4302808B8883850B880385814BAA
:1012100098420BD0854B984208D08B4B984205D012
:101220008A4B984202D08A4B984201D10B7A0386AE
:1012300001238382704770B5002400220023058CAF
:101240004FF6FE7635400584028C8388048B4FF67A
:101250008F752C40B51E2C400D882C43751E2A40DE
:101260000D892A434D882A436A4DA8420BD06F4D01
:10127000A84208D0744DA84205D0744DA84202D0AF
:10128000734DA84213D14FF6F7752A404D892A4372
:101290004FF6FB752A408D882A434FF6FF652B4099
:1012A0004FF6FF552B408D892B43CD892B438380EF
:1012B0000483CD888586028470BD70B50024002229
:1012C0000023058C4FF6EF7635400584028C838829
:1012D000048B48F6FF752C404FF6FF452C400D88D7
:1012E0004FF6FF7606EA05252C434FF6DF752A40B8
:1012F0000D8906EA05152A434D8806EA05152A4395
:10130000444DA84202D0494DA8421DD14FF67F75E9
:101310002A404D894FF6FF7606EA05152A434FF617
:10132000BF752A408D8806EA05152A434FF6FF351A
:101330002B404FF2FF752B408D8906EA85052B4324
:10134000CD8906EA85052B4383800483CD880587F4
:10135000028470BD70B5002400220023058C4FF676
:10136000FF6635400584028C8388848B4FF68F7529
:101370002C404FF6FC752C400D882C434FF6FF5542
:101380002A400D894FF6FF7606EA05252A434D8847
:1013900006EA05252A431F4DA84202D0234DA84244
:1013A0001DD14FF2FF752A404D894FF6FF7606EAB0
:1013B00005252A434FF6FF352A408D8806EA052584
:1013C0002A434EF6FF752B404DF6FF752B408D8955
:1013D00006EA05152B43CD8906EA05152B438380C4
:1013E0008483CD888587028470BD70B50022002378
:1013F0000024058C4EF6FF7635400584038C8488E6
:10140000828B48F6FF752A404FF6FF452A400D882B
:1014100020E00000002C01400004004000080040D3
:10142000000C004000100040001400400034014057
:10143000004C0140005001400054014000180040A1
:10144000001C0040002000400040014000440140DA
:10145000004801404FF6FF7606EA05252A434DF67F
:10146000FF752B400D8906EA05352B434D8806EAAA
:1014700005352B43FA4DA84202D0FA4DA84208D1B7
:101480004BF6FF752C408D894FF6FF7606EA8515E1
:101490002C4384808283CD88A0F84050038470BDA3
:1014A000828B4FF2FF331A408283828B4FF6FF7399
:1014B00003EA01231A4382837047F0B50C461546B0
:1014C000002200210026078C4EF6FF7C07EA0C075D
:1014D0000784828B018C4FF6FF7707EA043640F6CB
:1014E000FF473A404FF6FF7707EA05273A434FF6A2
:1014F000FF7707EA03373A43D94FB8420ED0D94FA6
:10150000B8420BD0B0F1804F08D0D74FB84205D0C9
:10151000D64FB84202D0D64FB84206D14DF6FF772B
:10152000394046F48057394305E047F6FF573940C4
:1015300044F48057394382830184F0BD828B4FF697
:10154000F3731A408283828B0A4382837047F0B51B
:101550000C461546002200210026078C4FF6FF6C32
:1015600007EA0C070784828B018C4FF6FF7707EAA6
:1015700004264FF60C773A404FF6FF7707EA031739
:101580002F433A43B64FB8420ED0B64FB8420BD0B5
:10159000B0F1804F08D0B44FB84205D0B34FB84235
:1015A00002D0B34FB84206D14FF6FF57394046F448
:1015B0008077394305E04FF2FF57394044F4807794
:1015C000394382830184F0BD028B4FF2FF331A400E
:1015D0000283028B4FF6FF7303EA01231A4302834F
:1015E0007047F0B50C461546002200210026078CF6
:1015F0004FF6EF7C07EA0C070784028B018C4FF64D
:10160000FF7707EA041640F6FF473A404FF6FF77A8
:1016100007EA03373A434FF6FF7707EA05273A43CD
:101620008F4FB8420ED08F4FB8420BD0B0F1804FE1
:1016300008D08D4FB84205D08C4FB84202D08C4FA5
:10164000B84206D14FF6DF77394046F010073943EC
:1016500005E04FF65F77394044F0100739430283C5
:101660000184F0BD028B4FF6F3731A400283028BA4
:101670000A4302837047F0B50C461546002200214C
:10168000068C4FF6FE773E400684028B018C4FF6A7
:101690000C7632407E1C06EA03162E433243704E0F
:1016A000B0420ED06F4EB0420BD0B0F1804F08D098
:1016B0006D4EB04205D06D4EB04202D06C4EB0427D
:1016C00006D14FF6FD76314044F00106314305E086
:1016D0004FF6F576314044F0010631430283018430
:1016E000F0BD70B505460C465D4885420ED05D489C
:1016F00085420BD0B5F1804F08D05B48854205D0BC
:101700005A48854202D05A48854200D100E000BFC5
:10171000208850B92389A28861882846FFF7ABFF4B
:10172000E1882846FFF79EFF25E0208804280AD19B
:101730002389A28861882846FFF753FFE18828465D
:10174000FFF742FF17E0208808280AD12389A288E2
:1017500061882846FFF7FBFEE1882846FFF7EEFE8A
:1017600009E02389A28861882846FFF7A6FEE18860
:101770002846FFF795FE70BD2DE9F04105460C4661
:1017800000260127608808B9022600E00026A0880C
:10179000012801D1022700E001272088A0B9238970
:1017A000A28861882846FFF766FFE1882846FFF790
:1017B00059FF23893A4631462846FFF712FFE18850
:1017C0002846FFF701FF13E02389A2886188284695
:1017D000FFF707FFE1882846FFF7F6FE23893A4620
:1017E00031462846FFF747FFE1882846FFF73AFFD2
:1017F000BDE8F0810A884B881A438B881A43CB884E
:101800001A430B891A434B891A438B891A43A0F850
:10181000442070474FF6FF71818000210180C18014
:101820004180017270470021018041808180C18028
:10183000018141818181C181704700210180418006
:10184000012181800021C180018170470021018038
:1018500041808180C1800181418181817047000088
:10186000002C01400034014000040040000800400A
:10187000000C004021B1028842F00102028004E025
:1018800002884FF6FE731A400280704731B1B0F8FB
:10189000442042F40042A0F8442005E0B0F844207F
:1018A000C2F30E02A0F8442070471AB183890B439B
:1018B000838102E083898B438381704781827047F3
:1018C00041EA0203A0F8483070471AB183890B43FC
:1018D000838102E083898B438381704701894FF6BE
:1018E000F8721140018170470A46002101894FF6C4
:1018F0008F73194011430181704730B504460D467E
:1019000029462046FFF7F0FF208940F0070020819C
:1019100030BD2DE9F04104460D4616461F46602DA8
:1019200006D13B46012231462046FFF75AFE05E02C
:101930003B46012231462046FFF79DFE29462046C0
:10194000FFF7D2FF208940F007002081BDE8F08139
:1019500030B50C4600210189C9B24FF6FF7505EA82
:101960000325154325432943018130BD2DE9F0416D
:1019700005460E4617469846002443463A463146E9
:101980002846FFF7E5FF2C894FF6F870044044F035
:1019900007044FF68F70044044F070042C81BDE8BA
:1019A000F081F0B504460D4616461F463B463246CA
:1019B00029462046FFF7CCFF208940F48040208153
:1019C000F0BD0185828270470A46002101884FF6EA
:1019D0008F731940114301807047F0B50C461546CE
:1019E0001E460021002200230189028B038C4FF642
:1019F000F877394021434FF6FC473A4040F201174F
:101A00003A434FF6DD773B404FF6FF7707EA06177C
:101A10002F433B43018102830384F0BD0A4600212A
:101A2000018B4FF68F7319401143018370470A46AB
:101A30000021018B48F6FF7319404FF6FF7303EA4C
:101A400002231943018370470A460021818B4FF618
:101A50008F7319401143818370470A460021818B9F
:101A600048F6FF7319404FF6FF7303EA0223194348
:101A70008183704721B1028842F08002028004E035
:101A800002884FF67F731A400280704721B1828826
:101A900042F00402828004E082884FF6FB731A4011
:101AA0008280704721B1828842F00802828004E07F
:101AB00082884FF6F7731A408280704721B182887E
:101AC00042F00102828004E082884FF6FE731A40E1
:101AD000828070470A460021018B4FF6F773194048
:101AE0001143018370470A460021018B4FF2FF73B7
:101AF00019404FF6FF7303EA02231943018370472D
:101B00000A460021818B4FF6F773194011438183F8
:101B100070470A460021818B4FF2FF7319404FF640
:101B2000FF7303EA02231943818370470A460021A9
:101B3000018B4FF6FB7319401143018370470A462E
:101B40000021018B4FF6FF3319404FF6FF7303EA74
:101B500002231943018370470A460021818B4FF607
:101B6000FB7319401143818370470A460021818B22
:101B70004FF6FF3319404FF6FF7303EA0223194370
:101B8000818370470A460021018B4FF67F7319400D
:101B90001143018370470A460021018BC1F30E01F6
:101BA0004FF6FF7303EA02231943018370470A4685
:101BB0000021818B4FF67F73194011438183704759
:101BC0000A460021818BC1F30E014FF6FF7303EA31
:101BD00002231943818370470A460021018C4FF686
:101BE000FD7319401143018470470A460021018C9E
:101BF0004FF6F77319401143018470470A460021DC
:101C0000018C4FF6DF7319404FF6FF7303EA02139E
:101C10001943018470470A460021018C4FF67F73F7
:101C200019404FF6FF7303EA02131943018470470A
:101C30000A460021018C4FF6FF5319404FF6FF73FF
:101C400003EA02231943018470470A460021018CEC
:101C50004FF2FF7319404FF6FF7303EA0223194353
:101C6000018470470A460021018C4DF6FF7319402C
:101C70004FF6FF7303EA023319430184704730B50E
:101C8000002301248C40A3B2048C9C430484048C64
:101C900002FA01F5ADB22C43048430BD30B5002307
:101CA00004248C40A3B2048C9C430484048C02FA68
:101CB00001F5ADB22C43048430BD70B5034600205D
:101CC00000241846183001258D40ACB21D8CA54368
:101CD0001D8409B1082909D100EB6100056825F0D0
:101CE000700505600568154305600EE00D1FC5F31E
:101CF0004E052844056825F4E045056005684FF663
:101D0000FF7606EA02263543056070BD21B10288E0
:101D100042F00202028004E002884FF6FD731A408E
:101D20000280704721B1028842F00402028004E080
:101D300002884FF6FB731A400280704721B18288F7
:101D400042F08002828004E082884FF67F731A405E
:101D50008280704702884FF6F7731A40028002882B
:101D60000A430280704782884FF68F731A40828040
:101D700082880A438280704702894FF6F8731A40BE
:101D8000028102890A430281704702894FF67F73FC
:101D90001A40028102890A43028170478184704798
:101DA00081857047818670470187704781877047BA
:101DB000A0F84010704702884FF6FF431A40028097
:101DC00002880A43028070470146888E70470146A8
:101DD000088F70470146888F70470146B1F8400070
:101DE00070470146888C70470146088D704702464F
:101DF0000020138A0B400BB1012000E00020704747
:101E0000CA430282704730B50246002000230024F6
:101E1000158A05EA0103958905EA010413B10CB19D
:101E2000012000E0002030BDCA430282704700005C
:101E300010B50446BE48844208D101218014FEF743
:101E40002DFE0021A014FEF729FE16E0B9488442B9
:101E500008D101210014FEF72EFE00212014FEF708
:101E60002AFE0AE0B448844207D10121C013FEF7DC
:101E700022FE0021E013FEF71EFE10BD10B5002269
:101E8000028802F441520B884C8823438C882343F8
:101E9000CC8823430C8923434C8923438C892343D7
:101EA000CC8923431A430280838B4FF2FF74234073
:101EB00083830B8A038210BD2DE9F04F85B0054660
:101EC0000C464FF0000902274FF000084FF0010BBD
:101ED0000026B246A88B4FF240010840A88302209A
:101EE0002884B5F81C90A068022801D100BF38E012
:101EF000A08810B94FF0010B01E04FF0020B8D48A4
:101F0000854200D100E000BF6846FEF740FDDDF8E5
:101F100000A0E088B0F5007F0AD14FEA1A2000EB5C
:101F200080004000A168B0FBF1F0401D86B20BE0DC
:101F30004FEA4B10BAFBF0F000EB80004000A168C4
:101F4000B0FBF1F0401D86B20A20B6FBF0F606F0B9
:101F50000108A6EB0800C0F34F074FF6FF7000EA38
:101F60000828022F01DBFF2F02DD02274FF00008B7
:101F7000E08840EA080038432884A088A189084303
:101F8000618808432188084340F4006040EA090959
:101F9000A5F81C9005B0BDE8F08F002101804180BC
:101FA0008180C180018141818181C18107210182BC
:101FB00070470021018041808180C18002218160C1
:101FC00000218181704721B1028842F040020280E5
:101FD00004E002884FF6BF731A400280704721B1B7
:101FE000828B42F48062828304E0828B4FF6FF335F
:101FF0001A408283704730B5002400230C1101255C
:10200000A540ABB21AB185881D43858002E0858862
:102010009D43858030BD1AB183880B43838002E0E5
:1020200083888B438380704781817047014688890C
:1020300070474FF6FF62914204D0028842F48072EA
:10204000028004E002884FF6FF631A400280704766
:1020500021B1828842F00402828004E082884FF637
:10206000FB731A408280704702884FF2FF731A4058
:10207000028002880A4302807047018841F480513F
:102080000180704721B1028842F40052028004E0CE
:1020900002884DF6FF731A40028070470246002006
:1020A000012901D0108B00E0908A70470146088A10
:1020B0007047B1F5804F04D1028842F4804202801B
:1020C00004E002884BF6FF731A4002807047024614
:1020D000002013890B400BB1012000E00020704765
:1020E000CA4302817047F0B5024600200024002355
:1020F000002501F00F070126BE40B4B20B110126E6
:102100009E40B3B2968806EA03051689264016B1AA
:102110000DB1012000E00020F0BD10B5002201F05B
:102120000F040123A3409AB2D343038110BD0000E2
:102130000030014000380040003C004010B504462B
:10214000FA48844208D101214015FEF7A7FC00217E
:102150006015FEF7A3FC17E0F548844208D1012181
:102160000015FEF79BFC00212015FEF797FC0BE005
:10217000F048844208D10121C803FEF78FFC0021FA
:102180004FF40040FEF78AFC10BD30B50246002037
:1021900000235068E84C20400D790C6844EA05247F
:1021A000204350609068E54C2040D1E902542C4314
:1021B0004D7944EA450420439060D06A20F47000D1
:1021C0000C7C641EE4B2234340EA0350D06230BD6D
:1021D00000210160017141718160C16001210174C0
:1021E000704721B1826842F00102826003E0826898
:1021F00022F001028260704721B1826842F480724D
:10220000826003E0826822F480728260704710B5B9
:102210000023CBB21AB144681C43446002E0446816
:102220009C43446010BD816841F0080181607047A3
:10223000014600208A6802F008020AB1012000E08D
:1022400000207047816841F00401816070470146B9
:1022500000208A6802F004020AB1012000E0002098
:10226000704721B1826842F4A002826003E0826874
:1022700022F4A00282607047014600208A6802F4BE
:1022800080020AB1012000E00020704710B50A4624
:1022900000210023416821F46041531E41EA43318B
:1022A000416010BD21B1426842F40062426003E027
:1022B000426822F4006242607047F0B504460D4661
:1022C00000200021092D11DDE068A5F10A0606EBCA
:1022D0004607072606FA07F18843A5F10A0606EB2A
:1022E000460603FA06F10843E0600CE0206905EBBE
:1022F0004507072606FA07F1884305EB450603FA6A
:1023000006F108432061072A0FDA606B561E06EBC0
:1023100086071F2606FA07F18843561E06EB860637
:1023200005FA06F10843606322E00D2A0FDA206BFC
:10233000D61F06EB86071F2606FA07F18843D61F2D
:1023400006EB860605FA06F10843206310E0E06A12
:10235000A2F10D0606EB86071F2606FA07F1884351
:10236000A2F10D0606EB860605FA06F10843E062C7
:10237000F0BD21B1826842F48012826003E082687D
:1023800022F48012826070470146C86C80B27047A8
:1023900066484C300068704721B1426842F4806260
:1023A000426003E0426822F480624260704721B1DB
:1023B000426842F48052426003E0426822F4805254
:1023C000426070470A460021816821F4E0411143D0
:1023D0008160704721B1826842F40042826003E06C
:1023E000826822F400428260704721B1826842F420
:1023F0000212826003E0826822F402128260704757
:10240000014600208A6802F400120AB1012000E0AF
:1024100000207047F0B50446154600200022002633
:10242000092911DDE068A1F10A0707EB470C07272E
:1024300007FA0CF29043A1F10A0707EB470703FAEA
:1024400007F21043E0600CE0206901EB410C072724
:1024500007FA0CF2904301EB410703FA07F210432D
:102460002061A06BC0F30156EF1C06F1010CA7EB35
:102470000C0707EB870C1F2707FA0CF29043EF1CA1
:1024800006F1010CA7EB0C0707EB870701FA07F22F
:102490001043A063F0BD10B50A4600210023816BF4
:1024A00021F44011531E41EA0351816310BD08B568
:1024B000002300930090009B0B440093009B1A6044
:1024C00008BD08B5024600200090009201F12800E6
:1024D000009B184400900098006880B208BD0A462E
:1024E00000214168164B1940114341607047416219
:1024F000826270470A460021416821F01F011143A2
:102500004160704740B109490831096841F4000150
:10251000064A0832116007E004490831096821F4CD
:102520000001024A08321160704700000024014097
:1025300000280140003C0140FFFEF0FFFDF7F1FFE5
:10254000FFFD3FFF0246002013680B400BB1012046
:1025500000E000207047CA430260704770B5024631
:102560000020002300240B125568CEB205EA0604B1
:1025700015681D4015B10CB1012000E0002070BDB0
:1025800000220A12D34303607047000001684FF62F
:10259000FE72114001600021016041608160C160F4
:1025A0008D49884208D18C490839496841F00F01AA
:1025B000894A083A51608AE087491431884208D133
:1025C00085490839496841F0F001834A083A516069
:1025D0007DE081492831884208D17F49083949681E
:1025E00041F470617C4A083A516070E07A493C31AC
:1025F000884208D178490839496841F47041764ADF
:10260000083A516063E074495031884208D17249F8
:102610000839496841F470216F4A083A516056E020
:102620006D496431884208D16B490839496841F4E1
:102630007001694A083A516049E067497831884237
:1026400008D165490839496841F07061624A083A21
:1026500051603CE06149884206D1011F096841F0A0
:102660000F01021F116032E05C491431884208D129
:102670005A49091F096841F0F001584A121F1160B8
:1026800025E056492831884208D15449091F096874
:1026900041F47061514A121F116018E04F493C31FA
:1026A000884208D14D49091F096841F470414B4ADD
:1026B000121F11600BE049495031884207D1474948
:1026C000091F096841F47021444A121F11607047C4
:1026D00010B50022026847F6F0739A430C6A8B68C3
:1026E00023430C6923434C6923438C692343CC69FE
:1026F00023434C6A23438C6A23431A430260CB680A
:1027000043600B6883604B68C36010BD00210160AB
:1027100041608160C160016141618161C1610162AB
:1027200041628162704721B1026842F00102026099
:1027300004E002684FF6FE731A40026070471AB157
:1027400003680B43036002E003688B430360704738
:10275000416070470146486880B2704701460020DA
:10276000002201F080531BB11C4B083B1A6802E0A9
:10277000194B083B1A6802EA01030BB1012000E083
:102780000020704700F0805119B11449091F0860FA
:1027900002E01149083948607047014600200022D4
:1027A00001F080531BB10D4B083B1A6802E00A4B45
:1027B000083B1A6802EA01030BB1012000E0002087
:1027C000704700F0805119B10449091F086002E008
:1027D0000149083948607047080002400804024077
:1027E0000948804709480047FEE7FEE7FEE7FEE7A5
:1027F000FEE7FEE7FEE7FEE7FEE7FEE704480549E1
:10280000054A064B704700002F03000831010008FD
:10281000C01B0020C0210020C01D0020C01D0020C2
:1028200010B5012002F039FE40F2FF7002F0F7FF10
:10283000C022FE49FE4802F0CFFF002002F02DFE2C
:1028400010BD10B5FB480078012808D001F0E4FF66
:10285000F9490968401AF9490968884208D90020ED
:10286000F449087001F0D8FFF3490860FFF7D8FF7A
:1028700010BD70B504460D46F1480068844203D18E
:10288000F0480068854210D040F2DC50431B04F24F
:10289000DC52EDA1F54804F0D3FBF44802F0A2FDB0
:1028A000E7480460E748056070BD00BFFCE770B50D
:1028B00001F0B2FFEE490968401A42F210718842F5
:1028C00002D90020EB490870EB484078732800D00B
:1028D00070BDE949C979C1F17F0001F073FDE74995
:1028E0000978884202DA7F20E349C871E249097A0F
:1028F000C1F17F0001F066FDE0490978884202DA03
:102900007F20DD490872DC494979C1F17F0001F07F
:1029100059FDDA490978884202DA7F20D6494871A0
:10292000D5498979C1F17F0001F04CFDD34909787F
:10293000884202DA7F20D0498871CF498979C1F174
:102940007F0001F03FFD7E280EDDCB49097AC1F101
:102950007F0001F037FD7E2806DD0120C5490870A3
:1029600001F05AFFC2490860C348C079C4490870E1
:10297000C148007AC3490870BF484079C24908700D
:10298000BD488079C1490870BF4909787F39BF4A7D
:102990001278C2F17F021144B94A1278C2F17F0263
:1029A000891AB84A1278C2F17F02881807F06AFEC5
:1029B0000546B7480168284607F0C4FE044607F0FC
:1029C00025FEB4490860B0490978C1F17F01AF4ADA
:1029D0001278C2F17F021144A94A1278C2F17F0233
:1029E0001144A84A1278C2F17F02881807F04AFE03
:1029F0000546A7480168284607F0A4FE044607F0EC
:102A000005FEA5490860A3480068192802DD1920C1
:102A1000A04908609F48006810F1190F03DA6FF0B1
:102A200018009C4908609C480068192802DD19209C
:102A3000994908609848006810F1190F03DA6FF09F
:102A400018009549086095480068924909688842CD
:102A500005D19348006890490968884218D0854894
:102A6000007868B101F0D8FE814908608A480168A1
:102A700088480068FFF7FDFE01F0CEFE7C49086043
:102A80008448006885490860834800688449086074
:102A900000BF1DE72DE9F04F8DB005460026284602
:102AA00002F0A0FC287823287ED128795028FBD179
:102AB00068795328F8D1A8794328F5D1E8794B28CB
:102AC000F2D1287B2128EFD168783038642148433F
:102AD000A978303901EB810100EB4101E878303809
:102AE000084484B2687A303864214843A97A30397E
:102AF00001EB810100EB4101E87A30380F1817F53E
:102B0000FA7F62DBB7F5FA7F5FDC082C5DDA287AA2
:102B10002B2803D0287A2D2800D17F42384607F091
:102B20006EF8CDE9080142498C3151F8240007F0D4
:102B300066F8CDE904015B4901EB0411886807F0F0
:102B4000D5FB594A594BCDE9000106F0E7FDCDE927
:102B50000201DDE9042307F0DFFACDE90601DDE932
:102B6000082306F0DBFDCDE90A0106F0A5FD82464B
:102B70002F488C3040F824704D49504607F0AEFE87
:102B800002D2DFF82CA106E04A49504607F0A6FD24
:102B900001D2DFF820A1504607F054FD414901EB76
:102BA000041148803F4800E012E000EB0410C0F838
:102BB00008A000203B4901EB0411C86001F02CFE85
:102BC0001D49086001201B4908700DB0BDE8F08F59
:102BD0002878232870D1287950286DD16879442825
:102BE0006AD1A879532867D1E879542864D1287A22
:102BF00021287FD16878303864214843A97830395A
:102C000001EB810100EB4101E8783038084484B2DF
:102C1000082C57DA0020234901EB0411C860214930
:102C200001EB0411886807F00DFD46E000F87F0015
:102C3000780A002040000020440000200801002005
:102C40000C010020100100207B233030365025304D
:102C50003464423030303021233030375025303426
:102C6000644230303030217D0000000078020020C6
:102C7000E8000020E600002094010020040100206C
:102C8000FD000020FC000020FF000020FE000020CE
:102C900000010020EC000020F0000020F4000020E3
:102CA000F8000020F8010020D655815A0C1EA63FDE
:102CB00000101C450000FA431CE0FE4901EB041122
:102CC000488016E0FF2C14D1002410E00020F949C0
:102CD00001EB0411C860F74901EB0411886807F0A3
:102CE000B1FCF44901EB04114880601C84B2082C4B
:102CF000ECDB6AE713E1A85D232813D10024701CE4
:102D000086B208E0A85D04EB840100EB4100303896
:102D100084B2701C86B2A85D0028EBD0A85D502854
:102D2000E8D0EFE7A85D50281ED14FF00009701CD5
:102D300086B212E0A85D07F0BDFCDF490B90484663
:102D400007F000FD0A900B9907F0FCFA8346DB4977
:102D500007F0F6FD8146701C86B2A85D0028C9D038
:102D6000A85D5428C6D0E5E7A85D54287ED14FF071
:102D70000008701C86B209E0A85D08EB880100EB32
:102D8000410030381FFA80F8701C86B2A85D10B17F
:102D9000A85D2128F0D1082C75DAC949484607F00A
:102DA0009DFC70D8C749484607F098FD6BD842F2A1
:102DB0001070804567DCC44951F8240007F062FCBC
:102DC0008346494607F0BEFA8146C049484607F0A7
:102DD00085FD01D2DFF8F492BA49484607F07EFC3F
:102DE00001D2DFF8E092B8F1140F11DA484607F08B
:102DF00029FCB04901EB04114880AE4800EB0410F7
:102E0000C0F808900020AB4901EB0411C8603AE01B
:102E1000484607F017FCA74901EB04114880A54874
:102E200000EB0410A0F80480A24901EB041188888B
:102E300006F0FCFE0022A64BCDE9040106F02AFDB7
:102E4000CDE908019B4901EB0411488807F032FCE9
:102E50000590984800EB04108168059807F070FD14
:102E6000834607F043FACDE9060100E055E0DDE9CD
:102E7000082306F00FFDCDE90A0106F01DFC8D497F
:102E800001EB0411C860FF2C49D1002442E08E49B7
:102E900051F8241001F2DC5007F0F4FB814648465B
:102EA00007F0D0FB834901EB04114880814800EB17
:102EB0000410A0F804807F4901EB0411888806F013
:102EC000B5FE0022824BCDE9040106F0E3FCCDE91A
:102ED0000801784901EB0411488807F0EBFB0590E5
:102EE000744800EB04108168059807F029FD8346BB
:102EF00007F0FCF9CDE90601DDE9082306F0CAFC7C
:102F0000CDE90A0106F0D8FB6A4901EB0411C8605B
:102F1000601C84B2082C02DAB9E7701C86B2A85D86
:102F200000287FF4E8AE00BF4FE62DE9FF470446D6
:102F3000894692465F4901EB0411A1F802905D4970
:102F400001EB0411A1F804A05A4901EB041188888F
:102F500006F06CFE074600225D4B06F09BFC054622
:102F60000E46544901EB0411488807F0A3FB804644
:102F7000504800EB04108168404607F0E1FC07462A
:102F800007F0B4F92A463346CDE9000106F082FC89
:102F9000CDE9020106F090FB464901EB0411C8603F
:102FA0004C4951F8240007F0A1F94B462246CDF8D0
:102FB00000A0CDE9020148A14E4804F041F84D4877
:102FC00002F0E8F9BDE8FF872DE9FC5F0646894677
:102FD00092461F464FF00008C34686F00046002187
:102FE000304607F07BFB02D20020BDE8FC9F4FF08B
:102FF000000B002413E0204607F044FB0190354805
:1030000010380090524649463046019B03F011FDAE
:1030100020B9444500DAA0464FF0010B641E14F1BC
:10302000870FE8DABBF1000F1BD0404607F02AFB00
:103030000190284810380090524649463046019B7E
:1030400003F0F7FC002508E02248303050F8251046
:103050003A462846FFF769FF6D1C042DF4DB01207A
:10306000C3E70020C1E770B502460021002000231D
:1030700046E0545C542C41D14C1C145D303C4FF460
:103080007A756C438D1C555D303D05EBC50606EB2E
:10309000051504EB8505CC1C145D303C04EB840461
:1030A00005EB44050C1D145D303C2B19834200DDFB
:1030B000184621E0F80100200000204100004042B5
:1030C00000401C450000FA43040B002000101C4582
:1030D00000003440B00100202325303364502530F7
:1030E000346454253034642128252E3166290D0A94
:1030F0000000000078020020091D01E0491C00BF0B
:10310000545C002CB5D170BD10B50446012002F00E
:10311000C4F94FF48061F94804F0F2F9E1017F222B
:10312000F64802F0F3FAF548FFF79DFFF44908600E
:10313000F248FFF7AFFC2246F2A1F74803F080FF08
:10314000F54802F027F9002002F0A7F910BD026847
:103150000B6803600A60704713B5012002F09DF907
:10316000DDE90001884203DD01A96846FFF7EFFFB2
:1031700019E04FF48061E14804F0C2F90098C10100
:103180008022DE4802F0C2FADC4802F003F9E3A034
:1031900002F000F9D94802F034F9E0A002F031F968
:1031A0000098401C0090DDE900018842E1DD00202C
:1031B00002F073F91CBD012080F3138800BF00BF2B
:1031C000D748006800F4E060D6490843001DD449A0
:1031D0000860BFF34F8F00BF00BFFEE72DE9F14F3E
:1031E00088B0D1A1089801F0A8F88346BBF1000F80
:1031F00003D0CFA002F0CEF8AAE2D0A1089801F047
:103200009CF88346BBF1000F24D00120CD49087003
:103210004FF0000A10E00020CB4901EB0A11C86012
:10322000C94901EB0A11886807F00CFAC64901EB9D
:103230000A1148800AF1010ABAF1080FEBDBC3A0BA
:1032400002F0D0F800210846FFF713FBFF20C24927
:1032500008707DE2C1A1089801F06FF88346BBF1C8
:10326000000F26D006AABFA1089803F0FDFF002892
:10327000C2D00020B449069A01EB0211C860B249DD
:10328000069A01EB0211886807F0DCF9AE49069A4C
:1032900001EB02114880B6A19F48069A03F0D0FEC8
:1032A0009D4802F09FF84FF480619B4804F028F994
:1032B0004EE2B3A1089801F040F88346BBF1000F3D
:1032C00001D0FFF778FFB0A1089801F036F88346E7
:1032D000BBF1000F0CD004AB05AAADA1089803F018
:1032E000C3FF002888D0DDE90410FFF735FF2FE287
:1032F000AAA1089801F021F88346BBF1000F0DD078
:1033000005AAA8A1089803F0AFFF0028A1D00120CA
:103310008C4908700598FFF7F7FE19E2A4A10898F8
:1033200001F00BF88346BBF1000F23D0A248A34B5A
:10333000A34AA4A10090089803F096FF002888D023
:103340000120804908709E4800689C4909688842AD
:103350000BD09B4800689F490860974800689E49C9
:103360000860002077490870F2E195480068FFF78F
:10337000CBFEEDE199A1089800F0DFFF8346BBF199
:10338000000F26D004AB05AA96A1089803F06CFFA5
:1033900000288DD00598142802DD1420059006E041
:1033A000059810F1140F02DA6FF0130005900498DD
:1033B000142802DD1420049006E0049810F1140F84
:1033C00002DA6FF013000490DDE90410FFF751FA00
:1033D000BEE187A1089800F0B0FF8346BBF1000F63
:1033E00047D0FF205C49087083A001F0FBFF4FF03D
:1033F000000A3AE0844830F82A0000F2DC505249D2
:1034000001EB0A1148804FF4FA604F4901EB0A11B1
:1034100088804D4901EB0A11888806F007FC0646B2
:1034200000227A4B06F036FACDE90001464901EB5D
:103430000A11488807F03EF90746434800EB0A1096
:103440008168384607F07CFA064606F04FFF804652
:10345000DDE9002306F01EFA044606F02DF93A498C
:1034600001EB0A11C8600AF1010ABAF1080FC1DBC9
:103470006EE167A1089800F060FF8346BBF1000F82
:1034800004D000210846FFF7F4F961E163A1089830
:1034900000F053FF8346BBF1000F03D061A001F0A1
:1034A00079FF55E160A1089800F047FF8346BBF122
:1034B000000F21D005AA5EA1104803F0D5FE002818
:1034C00086D02549059808700846007803280BD057
:1034D00008460078042807D008460078012803D061
:1034E00008460078092808D100210846FFF7C1F9ED
:1034F000002052490870AAE0AEE0A1E07806002062
:103500004800002040446F47726F7570202564208A
:103510004F4B210D0A000000780200200D0A000028
:103520000CED00E00000FA05244452532100000095
:1035300068656C6C6F20776F72642100244453546B
:10354000210000002D010020F80100202332353534
:1035500050445354210000002C01002024445354B3
:103560003A000000244453543A256421000000002E
:10357000232530336450445354210D0A00000000C9
:103580002452535421000000245054473A000000B4
:10359000245054473A25642D256421002444475380
:1035A0003A000000244447533A25642100000000FB
:1035B000244447543A0000003C000020380000201A
:1035C00034000020244447543A25642D25642C25DA
:1035D000642100002C0000203000002024444352CD
:1035E0003A000000244443523A25642C256421000B
:1035F00024444A5221000000233235355031353001
:103600003054323030302100040B002000003440B0
:10361000244341525F53544F5021000024474554E6
:10362000412100004141410024534D4F44450000D9
:1036300024534D4F444525642100000058010020CB
:103640000C210846FFF715F90120FC490870642198
:10365000012000F0C4FF7BE0F9A1089800F06DFEA6
:103660008346BBF1000F1DD0FF20F94908700A20E6
:1036700000F03FFEAFF22C10FFF70CFA0A2000F02A
:1036800038FEF4A001F0AEFE0A2000F032FEFAA0EF
:1036900001F080FE0A2000F02CFE6421012000F0E1
:1036A0009EFF55E0F6A1089800F047FE8346BBF167
:1036B000000F4DD002A803A904AB05AACDE9001064
:1036C000F1A1089803F0D0FD10B3F4A001F062FE60
:1036D000039806F0D7FF0446049806F0D3FF05468A
:1036E000059806F0CFFF064622462946029BFFF7C3
:1036F0006BFC70B10121052000F08EFE322000F03D
:10370000F8FD0021052000F087FE322000F0F1FDD9
:103710001EE00121052000F07FFE322000F0E9FDCF
:103720000021052000F078FE322000F0E2FD0121AA
:10373000052000F071FE322000F0DBFD00210520A5
:1037400000F06AFE322000F0D4FDDAA001F022FE83
:1037500009B0BDE8F08F2DE9F04107460E4600257F
:103760007878397800EB0120D8490880D84800885B
:10377000098888427ED0D5480088D6490880D34839
:103780000088D34909880840D04908800024EEE029
:103790000120A040CD490988084000286BD10120B4
:1037A000A040CB490988084000287DD04FF48061B3
:1037B000C94803F0A5FE732E0DD1C84951F8240065
:1037C00003F03AFE8046C54850F824104246C248ED
:1037D00003F051FE10E0412E0DD1C14951F82400F3
:1037E00003F02AFE8046BE4850F824104246BA48EC
:1037F00003F041FE00E0B8E0BAA1B74800F09DFD3B
:10380000C5B21DB10021681EB34A1154B6A1B24819
:1038100000F093FDF0B1002240F22551B348FDF7CE
:10382000D0FA0020B2490870AB490B31B14803F01F
:10383000DFFDB049A84803F0DBFD0120AC4908706A
:10384000012240F22551A948FDF7BBFA0120AA49FF
:10385000087025E0A9A1A04800F06FFD00B3002288
:1038600040F22551A148FDF7ACFA0020A0490870AC
:10387000994901E08DE077E00B319E4803F0B8FDF7
:103880009C49954803F0B4FD012099490870012234
:1038900040F225519548FDF794FA022096490870A8
:1038A0004FF6FF708A4900E001E008805CE04FF4C9
:1038B0008061894803F024FE732E0DD1874951F8A9
:1038C000240003F0B9FD8046844850F82410424695
:1038D000814803F0D0FD10E0412E0DD1804951F810
:1038E000240003F0A9FD80467D4850F8241042468C
:1038F000794803F0C0FD00E037E07AA1764800F097
:103900001CFDC5B285B37449481977A100F015FDB7
:1039100090B171484119774803F06AFD754803F08A
:103920008BFD401E734900220A546B4803F060FD72
:103930006948FFF753FC17E0674948196FA100F089
:10394000FCFC88B1644841196A4803F051FD69489C
:1039500003F072FD401E674900220A545E4803F0DE
:1039600047FD5D48FFF796F800BF601CC4B2102CFD
:10397000FFF60EAF57480088554908800121052001
:1039800000F04AFD0A2000F0B4FC0021052000F000
:1039900043FDBDE8F08110B5594800785949C97810
:1039A000884205D1564840785649097988420BD05B
:1039B00054484178C01CFFF7CEFE5248C0785049A9
:1039C000087050480079487010BD10B500F024FF11
:1039D0004D490968401A322800D210BD00F01CFF82
:1039E00049490860474800F090FE00BFF5E710B570
:1039F0004648007800281ED100F00EFF0021444AFE
:103A0000D2E90032C31A61EB020142480068002289
:103A1000C01A8A4110DA00F0FFFE00213C4A03C2BE
:103A20003D48006830B13D48006818B90120374969
:103A3000087075E078E0B3E0B5E0000066010020B2
:103A400024534D4152545F53544F50210000000005
:103A50002C0100207B23303036503135303054304B
:103A60003030302123303037503135303054303021
:103A70003030217D00000000404F4B21000000004D
:103A8000244B4D533A000000244B4D533A25642CEF
:103A900025642C25642C25642100000054727920B3
:103AA000746F2066696E64206265737420706F7332
:103AB0003A0D0A0043616E27742066696E642062C5
:103AC00065737420706F732121210000260100208E
:103AD0002401002028010020780600204C0000204E
:103AE0008C0000205E00000024000000003801402F
:103AF0002A010020780200202B0100202300000072
:103B0000E400002094010020E00000202D010020AE
:103B1000D8000020480000203C0000203000002099
:103B2000FCA001F037FC10BDFD480068FFF7ECFA7F
:103B3000FC480068FC490968884218DAF8480068BF
:103B4000F949096888420CD1F6480068F4490860D0
:103B5000F648006820B1F6480068401EF449086045
:103B6000E1E7EF480068401CED4908601BE0EC48C5
:103B70000068ED49096888420CD1EA480068E849C4
:103B80000860EA48006820B1E9480068401EE8493A
:103B90000860C8E7E2480068401EE149086002E0AA
:103BA0000A20E449086000BFBDE704E003788B42C7
:103BB00000D10270401C0378002BF7D170470146FA
:103BC000002215E00878472811D1491C07E0087841
:103BD00002EB820300EB4300303882B2491C0878C4
:103BE000232802D008782428F1D110467047491CB8
:103BF00008780028E6D1401EF8E7F8B5044600250D
:103C0000012001F04AFC607824280CD1A0782128FA
:103C100009D10021C84880F88810FEF701FEC7A02E
:103C200001F0B8FBF8BD6078242833D1BF48BE4B03
:103C3000BC4AC7A10090204603F016FB48B3B94820
:103C40000068B9490968884208D1B6480068C101CE
:103C50008022B948083001F059FD11E08121B648B1
:103C6000083003F06FFC611CB348083003F0C0FB60
:103C7000204603F0E1FB801EAF49083100220A54C0
:103C80002521AD4880F88810FEF7CAFDB5A001F0E7
:103C900081FBC7E72046FFF792FF0546681C10B17D
:103CA000A079232803D0B4A001F074FBBAE77B22EB
:103CB0003C212046FFF779FF7D223E212046FFF779
:103CC00074FFE801C11700EB11510913A0EB01319A
:103CD00031B9EE01F11706EB1151081301F09FFD08
:103CE000204603F0A9FB401C86B2E901324620467B
:103CF00001F072FDA1A001F04DFBA0A001F081FB3D
:103D0000002001F0CAFB00BF8CE710B59C4800788A
:103D100048B39C480078012803D19B48FFF75EFA1E
:103D200016E098480078022803D19748FEF7B2FEC3
:103D30000EE094480078032803D19348FEF7AAFECA
:103D400006E090480078042802D18F48FFF755FF1D
:103D500000208C4908708A490870012240F22551E0
:103D60008A48FDF72EF810BD10B500F055FD8849C2
:103D70000968401AB0F57A7F14D900F04DFD8449E6
:103D800008608448007820B100210D2000F044FB39
:103D900003E001210D2000F03FFB7E480078C04386
:103DA0007C49087010BD62B6704710B5012105202E
:103DB00000F032FB00210D2000F02EFB642000F00B
:103DC00098FA0021052000F027FB01210D2000F0CA
:103DD00023FB642000F08DFA0121052000F01CFB7C
:103DE00000210D2000F018FB642000F082FA002171
:103DF000052000F011FB01210D2000F00DFB6420D7
:103E000000F077FA0121052000F006FB00210D20CB
:103E100000F002FB642000F06CFA0021052000F0A5
:103E2000FBFA01210D2000F0F7FA642000F061FA9E
:103E300010BD10B5472144F6206000F024FD10BDF0
:103E400010B500205449086027E03B488C305249A7
:103E5000096830F8210000F2DC5050494E4A1268DF
:103E600001EB021148804D494B4A126801EB0211E7
:103E7000488806F01FFC4949474A126801EB0211C5
:103E8000886000204549444A126801EB0211C8606D
:103E900041480068401C404908603F4800680828C5
:103EA000D3DB254890F88800252832D122490831F3
:103EB000354803F09DFA2048007A242804D11E4892
:103EC0000830FFF78BF924E010203349086016E032
:103ED00030212D48304A1268815402462E4800682D
:103EE000401C11542C480068801C11542A4800685A
:103EF000C01C1154284800680F3027490860224828
:103F000003F09AFA244909688842E1D81E48FEF76E
:103F1000C1FD10BD4047726F7570446F6E65210022
:103F20002C00002034000020380000203C0000203D
:103F30003000002048000020780A002040434C4513
:103F40004152205052455F434D44204F4B210000C9
:103F50003C244447543A25642D25642C2564213E95
:103F60000000000040534554205052455F434D44EB
:103F7000204F4B21000000004500000041000000E0
:103F80002A0100202B010020780600200038014083
:103F9000D0000020D400002028000020F8010020DC
:103FA00010B54FF4E13000F099FE012240F22551A6
:103FB000A348FCF706FFA3A001F023FAAFF6C81050
:103FC00001F010FA10BD10B54FF4E13000F027FFFA
:103FD000012240F225519F48FCF7F3FE9EA001F01C
:103FE000D9F910BD10B500F001FC10BD10B500F0FE
:103FF0003AFB10BD10B5012001F04FFA01F091FA23
:10400000C0229949994801F081FB98480068984975
:10401000884204D0084695490860002048609348CB
:10402000D0F8AC00252817D00020924908600BE09A
:1040300000218E488C308F4A126840F822108D483B
:104040000068401C8B4908608A4800680828EFDB3C
:1040500025218648C0F8AC100020864908602AE077
:1040600082488C308349096830F8210000F2DC5026
:1040700081B281487F4A126800EB021041807B497F
:104080008C317C4A126851F8221001F2DC5006F0A3
:10409000F9FA7949774A126801EB02118860002029
:1040A0007549744A126801EB0211C86071480068D2
:1040B000401C704908606F4800680828D0DB002069
:1040C00001F0EBF910BD10B500F021FA10BD10B5EC
:1040D00000F0C7F90021052000F09EF910BD10B5D1
:1040E00000F086F901210D2000F096F910BD10B501
:1040F00000F074F910BD10B500F008F910BD10B54E
:1041000000F038FB10BD08B5FFF7F9FFFFF7F3FF2C
:10411000FFF7EDFFFFF7E3FFFFF7D9FFFFF7D3FF4F
:10412000FFF768FFFFF762FFFFF75CFFFFF74BFF4A
:10413000FFF736FFFFF784FEFFF77BFEFFF735FE44
:10414000FFF731FE01F01AFD4C484D4B4D4A4E49E8
:1041500000904E4802F050FC0FE0FFF705FEFFF71D
:10416000D4FDFFF744FCFFF730FCFFF714FCFEF72B
:104170009EFBFEF766FB01F09EFFEEE710B502F036
:10418000D2F810BD10B54FF4E13000F0F7FD012278
:1041900040F225513E48FCF714FE3EA001F00EF916
:1041A00010BD2DE9F04105460C46284600F00AF9FD
:1041B0000646204600F006F930443A4908600846B1
:1041C0000068192823DB08460068192191FBF0F6E6
:1041D000304606F057FA34490860284606F052FA8D
:1041E000074631480168384606F0ACFA064606F044
:1041F0000DFA0546204606F045FA07462A480168AA
:10420000384606F09FFA064606F000FA04462819DA
:1042100026490860281B264908600846006840F2C5
:10422000DC510B1A2148006800F2DC522149224877
:1042300002F006FF204801F0D5F8BDE8F08100004B
:1042400000480040756172743320636865636B20B9
:104250006F6B210000380140756172743120636812
:1042600065636B206F6B210000F87F00780A0020E7
:10427000E1EE330128000020F8010020A001002019
:10428000000016430000C4420000D2420000B442C5
:1042900000440040756172743220636865636B206E
:1042A0006F6B21001C010020200100201401002060
:1042B00018010020482C000878020020704700BF39
:1042C000011EA0F1010290B2FAD1704700BF011E99
:1042D000A0F1010290B2FAD1704700B5034602E0A6
:1042E0000620FFF7ECFF181EA3F101018BB2F7D1F6
:1042F00000BD10B5044603E04FF47A70FFF7EDFF00
:10430000201EA4F101018CB2F6D110BD002011E0F5
:1043100040F2DC512F4A02EB001251802E492D4A07
:1043200002EB0012916000212A4A02EB0012D160D8
:10433000411CC8B20828EBDB704770B504460B4639
:1043400021461A4619E008781578A84214D10AE0E7
:1043500011F8015B12F8016BB54204D0D01A081AAB
:10436000411C1A4602E010780028F1D100BF1078F5
:1043700018B9081B80B270BD491C08780028E2D12A
:1043800000BFF8E7F0B50C46002117E00A464B1CC9
:1043900007E050F8226050F82370BE4200DD1A4654
:1043A0005B1CA342F5DB8A4207D050F8225050F83C
:1043B000216040F8226040F82150491C661E8E4260
:1043C000E4DCF0BD0146002901DD084670474842A3
:1043D000FCE70000F80100200080BB4410B501217B
:1043E0000D20FCF741FB01218848FCF752F910BD74
:1043F00008B501210820FCF737FB4FF40050ADF859
:10440000000010208DF8030003208DF8020069469B
:104410007F48FCF76DF808BD70B504460D4635B110
:104420000120A04081B27A48FCF70FF905E0012095
:10443000A04081B27648FCF70AF970BD10B5754806
:10444000007820B100210D20FFF7E6FF03E00121F5
:104450000D20FFF7E1FF6F480078C0436D490870F9
:1044600010BD08B501210820FCF7FEFA2020ADF8A8
:10447000000010208DF8030003208DF8020069462B
:104480006348FCF735F808BD70B504460D460026B4
:1044900016E001210520FFF7BFFF00210D20FFF7E7
:1044A000BBFFA0B2FFF725FF00210520FFF7B4FFF7
:1044B00001210D20FFF7B0FFA0B2FFF71AFF761C15
:1044C000AE42E6D370BD70B504460D4635B101204D
:1044D000A04081B25048FCF7B8F805E00120A040A8
:1044E00081B24D48FCF7B3F870BD70B504460D4677
:1044F00035B10120A04081B24848FCF7A6F805E09C
:104500000120A04081B24548FCF7A1F870BD08B574
:1045100001210C20FCF7A8FA4FF40140ADF800008F
:1045200003208DF8020010208DF8030069463A48F8
:10453000FBF7DEFF4FF47670ADF8000003208DF836
:10454000020010208DF8030069463148FBF7D0FFC8
:1045500008BD70B504460D46062C22D2DFE804F0F3
:1045600003080D12171C29460320FFF755FF19E019
:1045700029460820FFF750FF14E029460920FFF7DD
:104580004BFF0FE029460620FFF746FF0AE02946C9
:104590000720FFF741FF05E029460420FFF73CFF15
:1045A00000E000BF00BF70BD08B501210C20FCF782
:1045B0005BFA4FF40060ADF8000048208DF803006E
:1045C00069461348FBF794FF0220ADF8000048202D
:1045D0008DF8030069461048FBF78AFF08BD70B5E7
:1045E00005460C4600260EE001210520FFF714FFCA
:1045F000A0B2FFF77EFE00210520FFF70DFFA0B25D
:10460000FFF777FE761CAE42EEDB70BD0002300095
:10461000000C01402E010020000801400010014064
:104620001CB501210520FCF71FFA01214F48FCF7BA
:1046300030F84FF4E040ADF8040010208DF807008A
:1046400003208DF8060001A94948FBF751FF4FF4FC
:104650000040ADF8000028208DF80300694644486A
:10466000FBF746FF1CBD10B5FFF7DAFF4FF4005112
:104670003F48FBF7EAFF4FF480413D48FBF7E5FF79
:104680004FF480513A48FBF7E0FF10BD2DE9F041AF
:1046900005462F460026002432E00120A040384085
:1046A00028B14FF480413248FBF7CFFF04E04FF4CC
:1046B00080412F48FBF7CBFF0120FFF70EFE4FF4A0
:1046C00080512B48FBF7C1FF0A20FFF706FE4FF48D
:1046D00080512748FBF7BBFF0A20FFF7FEFD4FF490
:1046E00080512348FBF7B1FF4FF400412048FBF70E
:1046F00092FF18B10120A0403043C6B2601CC4B282
:10470000082CCADB3046BDE8F08110B504464FF4F2
:1047100000511748FBF79BFF0120FFF7B7FF207000
:104720004220FFF7B3FF60702078FFF7AFFFA07063
:104730002078FFF7ABFFE0702078FFF7A7FF20712C
:104740002078FFF7A3FF60712078FFF79FFFA0712B
:104750002078FFF79BFFE0712078FFF797FF20722A
:104760004FF400510248FBF770FF10BD0004300009
:104770000008014010B5FCF709F84FF48030FCF751
:1047800025F8FCF762F8044600BF002CFDD000209D
:10479000FCF7A1F84FF48060FCF7A6F80020FCF7C6
:1047A000ACF84FF4E0114FF48030FCF777F80120BB
:1047B000FCF780F800BF3920FCF72BF80028FAD06E
:1047C0000220FCF77AF800BFFCF780F80828FBD13C
:1047D00010BD000010B504460021204606F07EF80A
:1047E00001D2204610BD84F00040FBE700204FF0CE
:1047F000E0218861FB4848610846006940F00700F5
:104800000861704700204FF0E0218861F648006899
:10481000401CF54908607047F348006870477FB551
:1048200004460D460121C802FCF71EF9ADF8084008
:10483000681E80B2ADF804000020ADF80A00ADF8A3
:1048400006008DF80C0001A9E848FCF7B7FC01212F
:10485000E648FDF7D5FA01224121E448FDF725F8A5
:1048600019208DF8000000208DF801008DF802005D
:1048700001208DF803006846FCF75FF90121DB4851
:10488000FCF7F8FF7FBD7FB505460C4601210846C1
:10489000FCF7F7F8ADF80850ADF804400020ADF88B
:1048A0000A00ADF8060001A94FF08040FCF786FC35
:1048B00000214FF08040FDF7DDF8012211469007FE
:1048C000FCF7F3FF1C208DF8000001208DF801009B
:1048D00002208DF8020001208DF803006846FCF7E5
:1048E0002CF901218807FCF7C5FF7FBD7FB5054680
:1048F0000C4601210220FCF7C4F8ADF80850ADF8D1
:1049000004400020ADF80A00ADF8060001A9B8483F
:10491000FCF754FC0021B648FDF7ACF80122114623
:10492000B348FCF7C2FF1D208DF8000003208DF86E
:10493000010001208DF802008DF803006846FCF7A5
:10494000FCF80121AA48FCF795FF7FBD30B589B07E
:1049500005460C4601210220FCF793F801210820AE
:10496000FCF782F80320ADF8200018208DF8230012
:1049700003208DF8220008A99E48FBF7B9FDADF889
:104980001850ADF814400020ADF81A00ADF816002C
:1049900005A99748FCF712FC6020ADF8040001203F
:1049A000ADF806000020ADF80C004FF4FA70ADF839
:1049B0000A0001A98E48FCF7CDFC08218C48FDF7C0
:1049C0009FF801A98A48FCF710FD08218848FDF7E7
:1049D000A0F801218648FCF74DFF09B030BD30B585
:1049E00089B005460C4601210420FCF74AF8012154
:1049F0000820FCF739F84FF44070ADF8200018207B
:104A00008DF8230003208DF8220008A97948FBF7D0
:104A10006FFDADF81850ADF814400020ADF81A0045
:104A2000ADF8160005A97448FCF7C8FB6020ADF886
:104A300004000120ADF806000020ADF80C004FF492
:104A4000FA70ADF80A0001A96B48FCF783FC082155
:104A50006948FDF755F801A96748FCF7C6FC08212D
:104A60006548FDF756F801216348FCF703FF09B0DC
:104A700030BD10B504460021204605F02FFF01D2BD
:104A8000204610BD84F00040FBE72DE9F0470446C6
:104A90005A4901EB0411C868002105F083FD4AD092
:104AA000564800EB0410458840F6BA10854201DDF7
:104AB000054604E0B5F5FA7F01DA4FF4FA754F4A7E
:104AC00002EB0412D1684D4A02EB0412D06805F0E3
:104AD00039FC8046FFF7CDFF0646284605F0D2FD9B
:104AE0008146464800EB04108168484605F028FFDF
:104AF0008046FFF7BEFF0746314605F0EFFD0CD8B4
:104B0000284605F0BFFD3D4901EB041188600020F7
:104B10003A4901EB0411C8600DE0384A02EB041277
:104B2000D168364A02EB0412906805F00BFC334959
:104B300001EB04118860BDE8F08710B501218807FA
:104B4000FDF761F9002841D001218807FDF76CF9D4
:104B50002B480078082802D10020294908702948EC
:104B60000078A0B92549264A127801EB021188681D
:104B700005F068FD4FF080418885012120480078CC
:104B8000FFF7E7FC1E480078FFF77FFF16E01B49A0
:104B90001B4A127801EB0211886805F053FD40F6BC
:104BA000C4110C1A09078C85002115480078FFF7FD
:104BB000D0FC13480078401C114908701148007857
:104BC00008B9012000E000200E49087010BD10B5A2
:104BD00001210748FDF717F918B101210448FDF735
:104BE00023F910BD4019010030010020002C0140C4
:104BF00000040040000C014000080040F8010020C3
:104C00003C0100203B01002030B589B005460C4630
:104C1000012140F60400FBF727FF4FF48070ADF848
:104C2000040048208DF8070003208DF8060001A934
:104C30002848FBF75DFC1B208DF8080000208DF84C
:104C4000090001208DF80A008DF80B0002A8FBF77F
:104C500074FF19208DF8080000208DF809008DF8E8
:104C60000A0001208DF80B0002A8FBF766FFADF8E3
:104C70001050ADF80C400020ADF81200ADF80E0059
:104C800003A91548FCF79AFA0020ADF81800022095
:104C9000ADF81A000020ADF81E000120ADF81C0090
:104CA0000020ADF8200006A90B48FCF71AFD0121F1
:104CB0000948FDF7A5F802210748FDF7A1F80122F0
:104CC00002210548FCF7F1FD01210348FCF7D2FD64
:104CD00009B030BD00080140002C014010B586B07D
:104CE000044601210820FBF7BFFE01218804FBF7E1
:104CF000C8FE4FF48060ADF8140018208DF817003E
:104D000003208DF8160005A9F748FBF7F1FB4FF4D7
:104D10000060ADF8140004208DF8170005A9F248D2
:104D2000FBF7E6FB01940020ADF80800ADF80A009F
:104D3000ADF80C00ADF810000C20ADF80E0001A984
:104D4000EA48FBF7A6FF27208DF8000001208DF828
:104D5000010003208DF8020001208DF80300684651
:104D6000FBF7EBFE012240F22551E048FCF729F861
:104D70000121DE48FCF719F806B010BD10B586B069
:104D8000044601210420FBF76FFE01214804FBF7D4
:104D900078FED748FBF73AFF0420ADF81400032053
:104DA0008DF8160018208DF8170005A9D148FBF7DB
:104DB0009FFB0820ADF8140004208DF8170005A90A
:104DC000CC48FBF795FB01940020ADF80800ADF846
:104DD0000A00ADF80C00ADF810000C20ADF80E0084
:104DE00001A9C348FBF755FF26208DF800000120DC
:104DF0008DF8010002208DF8020001208DF80300DB
:104E00006846FBF79AFE012240F22551B848FBF7AD
:104E1000D8FF0121B648FBF7C8FF06B010BD10B59A
:104E200088B00446012144F20400FBF71DFEB2489D
:104E3000FBF7ECFE4FF40070ADF81C0003208DF87A
:104E40001E0018208DF81F0007A9AA48FBF750FB89
:104E50004FF48060ADF81C0004208DF81F0007A9F6
:104E6000A448FBF745FB03940020ADF81000ADF813
:104E70001200ADF81400ADF818000C20ADF81600C3
:104E80000020ADF80400ADF806004FF40070ADF856
:104E900008000020ADF80A0001A99748FBF76EFF53
:104EA00003A99548FBF7F5FE4FF4E060FBF740FEE1
:104EB00025208DF8000001208DF801008DF80200FA
:104EC0008DF803006846FBF738FE012240F22551B9
:104ED0008948FBF776FF01218748FBF766FF08B09A
:104EE00010BD10B54FF4E130FFF799FF012240F2F9
:104EF00025518148FBF765FF4FF4E130FFF73EFF96
:104F0000012240F225517A48FBF75BFF4FF4E13074
:104F1000FFF7E4FE012240F225517448FBF751FFF0
:104F200062B610BD10B5044621467348FBF7AAFFD0
:104F300010BD70B505460E46002400BF0CE0295D8B
:104F40006D48FBF79FFF00BF80216B48FCF708F816
:104F50000028F9D0601C84B2B442F0DB70BD10B5FB
:104F600004460BE014F8011B6348FBF78BFF00BFFE
:104F700080216148FBF7F4FF0028F9D02078002851
:104F8000F0D110BD10B5044621465948FBF77AFF11
:104F900010BD70B505460E46002400BF0CE0295D2B
:104FA0005348FBF76FFF00BF80215148FBF7D8FF44
:104FB0000028F9D0601C84B2B442F0DB70BD10B59B
:104FC00004460BE014F8011B4948FBF75BFF00BFE8
:104FD00080214748FBF7C4FF0028F9D0207800283B
:104FE000F0D110BD10B5044621464048FBF74AFFFA
:104FF00010BD70B505460E46002400BF0CE0295DCB
:105000003A48FBF73FFF00BF80213848FBF7A8FF75
:105010000028F9D0601C84B2B442F0DB70BD10B53A
:1050200004460BE014F8011B3048FBF72BFF00BFD0
:1050300080212E48FBF794FF0028F9D02078002823
:10504000F0D110BD10B540F225512B48FBF788FF79
:10505000012879D140F225512748FBF7C1FF2648A6
:10506000FBF714FFC4B22548007808B1002010BD3A
:105070003C2C06D1042022490870002021490880D8
:105080001CE01F480078C8B9242C03D101201C491A
:10509000087010E0232C03D10220194908700AE09F
:1050A0007B2C03D103201649087004E03C2C02D16C
:1050B0000420134908700020124908801148018813
:1050C0000088401C0F4A10800F4844540C48007858
:1050D00004281BD13E2C19D100200B49128888547A
:1050E0000120064908703EE0000C014000480040E5
:1050F0000044004000080140003801402A0100201F
:105100002B0100203E01002078060020C7480078CF
:1051100001280AD1212C08D10020C549C54A12888E
:1051200088540120C44908701DE0C0480078022856
:105130000BD1212C09D10021BD48BE4A12888154CF
:105140000120BD4908700EE015E0B848007803283A
:1051500009D17D2C07D10020B549B64A1288885460
:105160000120B5490870B3480088B0F5806F02DBB4
:105170000020B0490880002079E710B540F22551A1
:10518000AE48FBF7EDFE012878D140F22551AB483F
:10519000FBF726FFA948FBF779FEC4B23C2C06D1E9
:1051A0000420A24908700020A54908801CE09F48FF
:1051B0000078C8B9242C03D101209C49087010E064
:1051C000232C03D10220994908700AE07B2C03D1DB
:1051D00003209649087004E03C2C02D10420934936
:1051E0000870002096490880954801880088401C76
:1051F000934A10808E4844548C480078042809D182
:105200003E2C07D100208A491288885401208A49FF
:1052100008702BE08548007801280AD1212C08D19C
:1052200000218348864A12888154012082490870EF
:105230001CE07E48007802280AD1212C08D10021E8
:105240007B487F4A1288815401207B4908700DE019
:1052500076480078032809D17D2C07D100207449B5
:10526000774A12888854012073490870744800886E
:10527000B0F5806F02DB002071490880002010BD6E
:1052800010B540F225516F48FBF76AFE01287FD127
:1052900040F225516B48FBF7A3FE6A48FBF7F6FD89
:1052A000C4B26548007808B1002010BD3C2C06D17E
:1052B00004205E4908700020634908801CE05B48B8
:1052C0000078C8B9242C03D101205849087010E097
:1052D000232C03D10220554908700AE07B2C03D10E
:1052E00003205249087004E03C2C02D104204F49AD
:1052F0000870002054490880534801880088401CE9
:10530000514A10804A48445448480078042809D13A
:105310003E2C07D100204649128888540120464976
:1053200008702BE04148007801280AD1212C08D1CF
:1053300000203F49444A1288885401203E490870A1
:105340001CE03A48007802280AD1212C08D100211B
:1053500037483D4A128881540120374908700DE0D2
:1053600032480078032809D17D2C07D1002030492C
:10537000354A1288885401202F4908703248008825
:10538000B0F5806F04DB00202F4900E000E00880CA
:1053900000208AE710B504462046FFF7E0FD10BD67
:1053A00070B504460D4629462046FFF7C2FD70BD84
:1053B00010B504462046FFF7B5FD10BD10B50446F4
:1053C0002046FFF7FCFD10BD70B504460D4629468A
:1053D0002046FFF7DEFD70BD10B504462046FFF7FE
:1053E000D1FD10BD10B504460120134908702046B8
:1053F000FFF715FE2046FFF7B2FD00200E490870AA
:1054000010BD10B504462046FFF709FE10BD70B56B
:1054100004460D4629462046FFF7EBFD70BD10B54A
:1054200004462046FFF7DEFD10BD00002B010020E2
:10543000780600203E0100202A01002000440040A0
:1054400040010020004800404201002070B50546A0
:10545000002405E0601CC4B2C82C01DD002070BD32
:105460000221FE48FCF733FE0028F3D02946FB4812
:10547000FCF7DAFD002405E0601CC4B2C82C01DD95
:105480000020ECE70121F548FCF721FE0028F3D0CD
:10549000F248FCF7CBFDC0B2E1E710B50446ACB171
:1054A0004FF40050EE4908801820C870ED48FBF713
:1054B0001FF84FF40051EB48FBF7C7F80121E7480C
:1054C000FCF781FDFF20FFF7C1FF0EE00021E3485C
:1054D000FCF779FD4FF40050E14908801020C870B6
:1054E00003208870DF48FBF703F810BD002106E0B9
:1054F0000A2100BF0A1EA1F1010399B2FAD1021ECE
:10550000A0F1010398B2F3D1704710B50020D6493D
:105510008881D248FCF7B2FC0121D048FCF753FD4A
:1055200010BD08B501210820FBF79EFA4FF480500A
:10553000ADF8000010208DF8030003208DF8020064
:105540006946C848FAF7D4FF4FF48051C548FBF7C5
:105550007CF84FF42040ADF8000018208DF80300CF
:105560006946C048FAF7C4FF4FF48040ADF8000028
:1055700048208DF803006946BA48FAF7B9FF4FF49E
:105580002041B848FBF761F801218803FBF779FA5D
:105590000020B54908804FF4827048800020888040
:1055A0000220C8800120088140024881382088817B
:1055B0000020C88107200882A848FCF75FFC012171
:1055C000A648FCF700FDFF20FFF740FFFFF79DFF17
:1055D00008BD10B53020A4498881A048FCF74EFCD6
:1055E00001219E48FCF7EFFC10BD10B500240022FD
:1055F0004FF480519B48FBF72CF89020FFF726FFD3
:105600000020FFF723FF0020FFF720FF0020FFF717
:105610001DFFFF20FFF71AFF44EA0024FF20FFF7D9
:1056200015FF0443012211038E48FBF712F82046B0
:1056300010BD10B5002400224FF480518948FBF7BB
:1056400008F80520FFF702FFFF20FFF7FFFE0446E2
:10565000012211038348FAF7FCFF204610BD10B564
:10566000044600224FF480517E48FAF7F2FF0120F1
:10567000FFF7ECFE2046FFF7E9FE0122110379480F
:10568000FAF7E7FF10BD10B500224FF480517548BE
:10569000FAF7DFFF0620FFF7D9FE01221103714858
:1056A000FAF7D7FF10BD10B500224FF480516D48B6
:1056B000FAF7CFFF0420FFF7C9FE01221103694862
:1056C000FAF7C7FF10BD10B5044600224FF4805111
:1056D0006448FAF7BEFF0320FFF7B8FEC4F30740A3
:1056E000FFF7B4FEC4F30720FFF7B0FEE0B2FFF708
:1056F000ADFEFF20FFF7AAFE5C49087001221103EE
:105700005848FAF7A6FF5948007810BD2DE9F04136
:1057100006460C46174600224FF480515148FAF7CE
:1057200098FF0320FFF792FEC4F30740FFF78EFEB9
:10573000C4F30720FFF78AFEE0B2FFF787FE0025DB
:1057400005E0FF20FFF782FE7055681C85B2BD4260
:10575000F7DB012211034348FAF77BFFBDE8F08134
:1057600010B500BFFFF765FF00F001000028F9D178
:1057700010BD2DE9F04107460C461646E0B2C0F5D3
:105780008078464500DD4646FFF77DFF00224FF456
:1057900080513448FAF75DFF0220FFF757FEC4F34B
:1057A0000740FFF753FEC4F30720FFF74FFEE0B2B8
:1057B000FFF74CFE002504E0785DFFF747FE681C0C
:1057C00085B2B542F8DB012211032648FAF741FF02
:1057D000FFF7C6FFBDE8F0812DE9F04107460E4610
:1057E0001446F0B2C0F58075AC4200DC254612E0EC
:1057F0002A4631463846FFF7BCFFAC4200D10BE0E9
:105800002F442E44601B84B2B4F5807F02DD4FF438
:10581000807500E02546EBE700BFBDE8F08110B5DC
:1058200004462403FFF72FFFFFF79AFF00224FF4EF
:1058300080510C48FAF70DFF2020FFF707FEC4F354
:105840000740FFF703FEC4F30720FFF7FFFDE0B2B8
:10585000FFF7FCFD01221103024809E00038004077
:1058600044010020000C0140380B002048010020BA
:10587000FAF7EFFEFFF774FF10BD2DE9F047814600
:105880000F4616464FEA1738C7F30B0ACAF580547D
:10589000A64200DC344644E04FEA08314FF480521F
:1058A0008A48FFF733FF002508E00AEB0500874927
:1058B000085CFF2800D003E0681C85B2A542F4DB39
:1058C00000BFA54216DA4046FFF7A9FF002507E012
:1058D00019F8050005EB0A017C4A5054681C85B292
:1058E000A542F5DB4FEA08314FF480527748FFF7C5
:1058F00073FF04E0224639464846FFF76DFFA64293
:1059000000D10FE008F101084FF0000AA14427443C
:10591000301B86B2B6F5805F02DD4FF4805400E0A4
:105920003446B9E700BFBDE8F0872DE9F0410746EE
:105930000C461546C4F30B00C0F58056B54200DD99
:1059400035462A4621463846FFF746FFBDE8F08136
:105950002DE9F04381B0ADF5805D80460F461646D7
:105960004FF00009C7F30B00C0F58054A64200DCDD
:10597000344644E04FEA17394FEA09314FF4805278
:1059800001A8FFF7C3FE002509E0C7F30B00284478
:1059900001A9085CFF2800D003E0681C85B2A5427D
:1059A000F3DB00BFA54217DA4846FFF738FF0025B2
:1059B00008E018F80500C7F30B01294401AA505468
:1059C000681C85B2A542F4DB4FEA09314FF48052DE
:1059D00001A8FFF7AAFF04E0224639464046FFF738
:1059E000A4FFA64200D10BE0A0442744301B86B29E
:1059F000B6F5805F02DD4FF4805400E03446B9E72D
:105A000000BF01B00DF5805DBDE8F08370B50546BF
:105A10000C46FFF738FE00224FF480512C48FAF76D
:105A200018FE0220FFF712FDC4F30740FFF70EFD3A
:105A3000C4F30720FFF70AFDE0B2FFF707FD284691
:105A4000FFF704FD012211032148FAF702FEFFF7D8
:105A500087FE70BD10B5FFF716FEFFF781FE00222E
:105A60004FF480511A48FAF7F4FDC720FFF7EEFC17
:105A7000012211031648FAF7ECFDFFF771FE10BD85
:105A800010B500224FF480511148FAF7E2FDB92019
:105A9000FFF7DCFC012211030D48FAF7DAFD0320C1
:105AA000FFF724FD10BD10B500224FF480510848C7
:105AB000FAF7CFFDAB20FFF7C9FC01221103044820
:105AC000FAF7C7FD0320FFF711FD10BD4A0B0020B8
:105AD000000C014008B501210420FAF7C5FF0B2096
