:020000040800F2
:10000000B8210020E1270008370200083902000863
:100010003D020008410200084502000800000000FF
:10002000000000000000000000000000490200087D
:100030004B020008000000004D0200081D470008A8
:10004000FB270008FB270008FB270008FB27000808
:10005000FB270008FB270008FB270008FB270008F8
:10006000FB270008FB270008FB270008FB270008E8
:10007000FB270008FB270008FB270008FB270008D8
:10008000FB270008FB270008FB270008FB270008C8
:10009000FB270008FB270008FB270008FB270008B8
:1000A000FB270008FB270008FB270008FB270008A8
:1000B000534A0008E74A0008FB270008FB2700080E
:1000C000FB270008FB270008FB270008FB27000888
:1000D000FB2700085D4F0008935000089951000865
:1000E000FB270008FB270008FB270008FB27000868
:1000F000FB270008FB270008FB270008FB27000858
:10010000FB270008FB270008FB270008FB27000847
:10011000FB270008FB270008FB270008FB27000837
:10012000FB270008FB270008FB270008FB27000827
:1001300000F002F800F070F80AA090E8000C824489
:100140008344AAF10107DA4501D100F065F8AFF266
:10015000090EBAE80F0013F0010F18BFFB1A43F0A5
:100160000103184778AF000098AF00000A444FF031
:10017000000C10F8013B13F0070408BF10F8014B06
:100180001D1108BF10F8015B641E05D010F8016B4B
:10019000641E01F8016BF9D113F0080F1EBF10F8AF
:1001A000014BAD1C0C1B09D16D1E58BF01F801CBD2
:1001B000FAD505E014F8016B01F8016B6D1EF9D555
:1001C0009142D6D37047000000230024002500266A
:1001D000103A28BF78C1FBD8520728BF30C148BFAA
:1001E0000B60704766290AF0AC83642906F0F0863C
:1001F000002070471FB507F063FC040000200021B9
:1002000009F0D0F9401C60600020002109F0B4F929
:10021000E0601FBD10B510BD07F018FF1146FFF7D5
:10022000E9FF03F019FF07F03FFF03B4FFF7F2FF08
:1002300003BC07F083FF704700BFFEE700BFFEE787
:1002400000BFFEE700BFFEE7704770477047000041
:100250000CB50020019000906C48006840F480309C
:100260006A49086000BF6948006800F400300090E7
:100270000198401C0190009818B90198B0F5A06F42
:10028000F1D16248006800F4003010B10120009004
:1002900001E0002000900098012843D15C480068EC
:1002A00040F010005A4908600846006820F003003A
:1002B00008600846006840F0020008605348406843
:1002C000524948600846406848600846406840F423
:1002D000806048600846406820F47C10486008460A
:1002E000406840F4E81048600846006840F08070BC
:1002F000086000BF4548006800F000700028F9D091
:100300004248406820F00300404948600846406881
:1003100040F00200486000BF3C48406800F00C001C
:100320000828F9D10CBD10B5FFF792FF10BD10B52C
:100330003648006840F001003449086008464068CB
:10034000344908403149486008460068324908404D
:100350002E4908600846006820F48020086008469E
:10036000406820F4FE0048604FF41F008860FFF7EB
:10037000DAFF4FF000602949086010BD10B5002178
:1003800000200022214B5B6803F00C0121B10429FD
:1003900006D0082928D107E0214B224C236027E012
:1003A0001F4B204C236023E0184B5B6803F4701054
:1003B000164B5B6803F48032022303EB904022B9B2
:1003C000194B4343174C23600DE0104B5B6803F45B
:1003D000003323B1144B4343124C236003E0104B12
:1003E0004343104C236003E00D4B0E4C236000BFD1
:1003F00000BF064B5B68C3F303130C4CE15C094B75
:100400001B68CB40074C236010BD00000010024069
:10041000002002400000FFF8FFFFF6FE08ED00E0BC
:1004200000127A000000002000093D0004000020B6
:1004300010B50446CC48844208D10121042000F0C4
:100440002DFB0021042000F029FB46E0C748844230
:1004500008D10121082000F021FB0021082000F034
:100460001DFB3AE0C248844208D10121102000F06F
:1004700015FB0021102000F011FB2EE0BD48844246
:1004800008D10121202000F009FB0021202000F0EC
:1004900005FB22E0B848844208D10121402000F049
:1004A000FDFA0021402000F0F9FA16E0B34884423A
:1004B00008D10121802000F0F1FA0021802000F015
:1004C000EDFA0AE0AE48844207D10121801500F020
:1004D000E5FA0021A01500F0E1FA10BD10B50121E8
:1004E000084600F0DBFA0021012000F0D7FA10BD29
:1004F0002DE9F041024600250026002000230024BB
:10050000002791F803C00CF00F0591F803C00CF020
:10051000100CBCF1000F03D091F802C04CEA0505A5
:1005200091F800C0BCF1000F31D0146800202BE01E
:100530004FF0010C0CFA00F3B1F800C00CEA03060E
:100540009E4220D183004FF00F0C0CFA03F7BC43FE
:1005500005FA03FC4CEA040491F803C0BCF1280F2F
:1005600006D14FF0010C0CFA00FCC2F814C00AE0EE
:1005700091F803C0BCF1480F05D14FF0010C0CFA03
:1005800000FCC2F810C0401C0828D1D31460B1F898
:1005900000C0BCF1FF0F34DD546800202EE000F1F4
:1005A000080C4FF0010808FA0CF3B1F800C00CEA8F
:1005B00003069E4221D183004FF00F0C0CFA03F783
:1005C000BC4305FA03FC4CEA040491F803C0BCF1F7
:1005D000280F05D100F1080C08FA0CF8C2F81480B5
:1005E00091F803C0BCF1480F07D100F1080C4FF09F
:1005F000010808FA0CF8C2F81080401C0828CED375
:100600005460BDE8F0814FF6FF71018002218170D6
:100610000421C17070470246002093680B400BB163
:10062000012000E0002070470146886880B27047D2
:1006300002460020D3680B400BB1012000E00020EF
:1006400070470146C86880B27047016170474161D8
:1006500070470AB1016100E041617047C1607047B5
:100660004FF480320A4382618161826182698269CA
:10067000704702460020434B18684FF680731840BD
:1006800040EA021008433F4B186070473E49C8617A
:100690007047F0B50A46002300240021002500F031
:1006A0000046B6F1004F02D1364EF16901E0354EF9
:1006B0007168C0F3034583B200F44016B6F5401FDD
:1006C00008D121F070612F4E766826F070662D4FAC
:1006D0007E6012E000F48016B6F5801F06D1032676
:1006E00006FA05F4A14341F0706106E0460D3601BB
:1006F00003FA06F6B14341F0706122B1460D3601AE
:1007000003FA06F6314300F00046B6F1004F02D17D
:100710001C4EF16101E01B4E7160F0BD30B500224E
:100720008B071C0F0F2303FA04F2164B08338C10AF
:1007300053F824309343134C08348D1044F825307B
:1007400023468C1053F824308C07240F00FA04F44D
:1007500023430C4C08348D1044F8253030BD0A4931
:10076000DC3108607047000000080140000C0140C7
:10077000001001400014014000180140001C01401D
:10078000002001400000014000002042DF480068D6
:1007900040F00100DD49086008464068DC49084037
:1007A000DA49486008460068DA490840D7490860D5
:1007B0000846006820F4802008600846406820F45D
:1007C000FE0048604FF41F0088607047CF490968F9
:1007D00021F48031CD4A11601146096821F480214D
:1007E0001160B0F5803F03D0B0F5802F0ED106E048
:1007F000C649096841F48031C44A116007E0C34921
:10080000096841F4A021C14A116000E000BF00BFA7
:10081000704710B501460022002300204A11012A2A
:1008200002D1BA4C236806E0022A02D1B74C236AEF
:1008300001E0B64C636A01F01F02012494401C40A1
:100840000CB1012000E0002010BD38B50020009060
:100850000024002500BF3120FFF7DBFF054600988C
:10086000401C00900098B0F5A06F01D0002DF2D090
:100870003120FFF7CEFF08B1012400E0002420461C
:1008800038BD01460020A14A106820F0F80040EA77
:10089000C10010607047A049086070470246002000
:1008A0009A4B586820F47C1042EA01031843974B96
:1008B0005860704798490866704701460020934A7F
:1008C000506820F003000843506070478F4840682C
:1008D00000F00C007047014600208C4A506820F060
:1008E000F00008435060704701460020874A506876
:1008F00020F4E06008435060704701460020834ABE
:10090000506820F4605040EAC1005060704729B13F
:100910007E4A527A02437D4B5A7204E07B4A527AF5
:1009200082437A4B5A7270477B49D83108607047CE
:1009300001460020754A506820F44040084350604A
:1009400070470021714A20321170704A82F82010DD
:10095000012802D004280AD104E001216B4A203288
:10096000117005E00521694A2032117000E000BFD6
:1009700000BF70476949086070476449096A0143CC
:10098000624A11627047654944390860704730B562
:1009900000210022002400235C4D6D6805F00C014D
:1009A00021B1042905D0082923D105E05C4D05605B
:1009B00022E05B4D05601FE0544D6D6805F4701238
:1009C000524D6D6805F48034022505EB92421CB946
:1009D000544D554305600BE04C4D6D6805F40035F2
:1009E0001DB1504D5543056002E04D4D5543056026
:1009F00002E04B4D056000BF00BF444D6D6805F03F
:100A0000F0010909484D6B5C0568DD4045603F4DCC
:100A10006D6805F4E061090A434D6B5C4568DD4093
:100A200085603A4D6D6805F46051C90A3E4D6B5CB6
:100A30004568DD40C560354D6D6805F44041890B62
:100A40003A4D6B5CC568B5FBF3F5056130BD29B166
:100A50002E4A526902432D4B5A6104E02B4A5269D7
:100A600082432A4B5A61704729B1284A926902434E
:100A7000264B9A6104E0254A92698243234B9A618E
:100A8000704729B1214AD2690243204BDA6104E060
:100A90001E4AD26982431D4BDA61704729B11B4A55
:100AA000D2680243194BDA6004E0184AD2688243E4
:100AB000164BDA60704729B1144A12690243134B8E
:100AC0001A6104E0114A12698243104B1A6170479F
:100AD00012494039086070470F49C86470470B4994
:100AE000C87170470948406A40F080700749486201
:100AF000704701460020054A92680A400AB1012069
:100B000000E00020704701498872704700100240E1
:100B10000000FFF8FFFFF6FE000042428004424260
:100B200000127A0000093D0014000020240000207B
:100B300031490143314A1160704770B500210023EB
:100B40000F22C47804B32D4C246804F4E064C4F587
:100B5000E064210AC1F10403CA40447804FA03F1B5
:100B60008478144021430901254C0678A155047866
:100B700004F01F050124AC4005786D11AD0005F1AE
:100B8000E025C5F8004109E0047804F01F050124C0
:100B9000AC401C4D0678761145F8264070BD1A4AC7
:100BA0000A400243154B1B1F1A60704739B1134AA4
:100BB000121D12680243114B1B1D1A6006E00F4AFA
:100BC000121D126882430D4B1B1D1A6070470428CA
:100BD00008D14FF0E021096941F004014FF0E02213
:100BE000116107E04FF0E021096921F004014FF0A5
:100BF000E0221161704700000000FA050CED00E0F2
:100C000000E400E080E100E080FFFF1F10B5044633
:100C1000FB48844209D101218803FFF73FFF0021EF
:100C20004FF48040FFF73AFF32E0F648844209D1A2
:100C300001214804FFF73FFF00214FF40030FFF788
:100C40003AFF25E0F048844209D101218804FFF7EA
:100C500032FF00214FF48020FFF72DFF18E0EB4812
:100C6000844209D10121C804FFF725FF00214FF478
:100C70000020FFF720FF0BE0E548844208D1012166
:100C80000805FFF718FF00214FF48010FFF713FF4E
:100C900010BD2DE9F04786B005460E460024A24659
:100CA00000BFA1460027B08900B100BF2F462C8AA3
:100CB0004CF6FF700440F08804432C82AC894EF659
:100CC000F3100440B0883189084371890843044314
:100CD000AC81AC8A4FF6FF400440B0890443AC823B
:100CE00001A8FFF754FEC648874202D1DDF810A0E4
:100CF00001E0DDF80CA0A88900F4004040B10AEB47
:100D0000CA0000EB0A1031684900B0FBF1F807E0B7
:100D10000AEBCA0000EB0A1031688900B0FBF1F859
:100D20006420B8FBF0F004012009642101FB108964
:100D3000A88900F4004040B1322000EBC900B0FBAC
:100D4000F1F000F00700044308E0322000EB091046
:100D50006421B0FBF1F000F00F0004432C8106B0D9
:100D6000BDE8F0874FF41651016000218180C180F9
:100D700001810C21418100218181704710B502461B
:100D80000020108A4FF2FF0318400B884C88234341
:100D90008C882343CC8823431843108210BD002144
:100DA000018041808180C180704721B1828942F4F5
:100DB0000052828104E082894DF6FF731A408281DD
:100DC0007047F0B50346002400260025002040F6B9
:100DD0006A17B94200D100BF1846C1F3421401F0AE
:100DE0001F06012707FA06F5012C01D10C3004E09B
:100DF000022C01D1103000E014301AB107682F43E3
:100E0000076002E00768AF430760F0BD1AB1838A4C
:100E10000B43838202E0838A8B4383827047028A7A
:100E20004FF6F0731A400282028A0A430282704728
:100E300082894FF2FF731A40828182890A4382813C
:100E4000704721B1828942F00202828104E08289E6
:100E50004FF6FD731A4082817047028A4FF6DF73A6
:100E60001A400282028A0A430282704721B1028A32
:100E700042F48042028204E0028A4BF6FF731A4079
:100E800002827047C1F30802828070470146888859
:100E9000C0F308007047818941F0010181817047EA
:100EA000028BD2B20283028B42EA01220283704794
:100EB000028B02F47F420283028B0A430283704753
:100EC00021B1828A42F02002828204E0828A4FF6B7
:100ED000DF731A408282704721B1828A42F0100289
:100EE000828204E0828A4FF6EF731A408282704752
:100EF00021B1828A42F00802828204E0828A4FF69F
:100F0000F7731A408282704721B1828942F400420D
:100F1000828103E08289C2F30E028281704721B18F
:100F2000828A42F40062828204E0828A4FF2FF7376
:100F30001A4082827047828A4FF6FB731A4082827F
:100F4000828A0A438282704721B1828A42F0020279
:100F5000828204E0828A4FF6FD731A4082827047D3
:100F600002460020B1F5007F00D100BF13880B407E
:100F70000BB1012000E00020704701F40072B2F5CF
:100F8000007F00D100BFCA430280704770B502469F
:100F9000002400230025002040F66A16B14200D14B
:100FA00000BFC1F3421501F01F03012606FA03F347
:100FB000012D02D19689334006E0022D02D1168A16
:100FC000334001E0968A33400C12012606FA04F4FD
:100FD0001688344013B10CB1012000E0002070BD30
:100FE00010B50022002340F66A14A14200D100BFD0
:100FF0000A1201249440A3B2DC43048010BD000017
:10100000003801400044004000480040004C0040CF
:101010000050004010B50446FE48844208D101212A
:10102000C014FFF73BFD0021E014FFF737FDC4E0DB
:10103000B4F1804F08D101210846FFF73CFD0021A3
:101040000120FFF738FDB8E0F348844208D10121C0
:101050000220FFF730FD00210220FFF72CFDACE05D
:10106000EE48844208D101210420FFF724FD00212D
:101070000420FFF720FDA0E0E948844208D10121C7
:101080000820FFF718FD00210820FFF714FD94E069
:10109000E448844208D101211020FFF70CFD002113
:1010A0001020FFF708FD88E0DF48844208D10121C5
:1010B0002020FFF700FD00212020FFF7FCFC7CE052
:1010C000DA48844208D101214014FFF7E7FC0021EF
:1010D0006014FFF7E3FC70E0D548844209D1012198
:1010E000C804FFF7DBFC00214FF40020FFF7D6FC1B
:1010F00063E0D048844209D101210805FFF7CEFC06
:1011000000214FF48010FFF7C9FC56E0CA48844222
:1011100009D101214805FFF7C1FC00214FF400105F
:10112000FFF7BCFC49E0C548844208D101214020BA
:10113000FFF7C1FC00214020FFF7BDFC3DE0C048A7
:10114000844208D101218020FFF7B5FC00218020D6
:10115000FFF7B1FC31E0BB48844208D10121801582
:10116000FFF7A9FC0021A015FFF7A5FC25E0B64874
:10117000844209D101210804FFF790FC00214FF4BB
:101180008030FFF78BFC18E0B048844209D1012180
:101190004804FFF783FC00214FF40030FFF77EFC8A
:1011A0000BE0AB48844208D101218804FFF776FCAC
:1011B00000214FF48020FFF771FC10BD002202884F
:1011C000944B98420ED0994B98420BD0B0F1804F7F
:1011D00008D0914B984205D0904B984202D0904B4A
:1011E000984204D14FF68F731A404B881A438D4BA7
:1011F000984207D08C4B984204D04FF6FF431A40D8
:10120000CB881A4302808B8883850B880385814BAA
:1012100098420BD0854B984208D08B4B984205D012
:101220008A4B984202D08A4B984201D10B7A0386AE
:1012300001238382704770B5002400220023058CAF
:101240004FF6FE7635400584028C8388048B4FF67A
:101250008F752C40B51E2C400D882C43751E2A40DE
:101260000D892A434D882A436A4DA8420BD06F4D01
:10127000A84208D0744DA84205D0744DA84202D0AF
:10128000734DA84213D14FF6F7752A404D892A4372
:101290004FF6FB752A408D882A434FF6FF652B4099
:1012A0004FF6FF552B408D892B43CD892B438380EF
:1012B0000483CD888586028470BD70B50024002229
:1012C0000023058C4FF6EF7635400584028C838829
:1012D000048B48F6FF752C404FF6FF452C400D88D7
:1012E0004FF6FF7606EA05252C434FF6DF752A40B8
:1012F0000D8906EA05152A434D8806EA05152A4395
:10130000444DA84202D0494DA8421DD14FF67F75E9
:101310002A404D894FF6FF7606EA05152A434FF617
:10132000BF752A408D8806EA05152A434FF6FF351A
:101330002B404FF2FF752B408D8906EA85052B4324
:10134000CD8906EA85052B4383800483CD880587F4
:10135000028470BD70B5002400220023058C4FF676
:10136000FF6635400584028C8388848B4FF68F7529
:101370002C404FF6FC752C400D882C434FF6FF5542
:101380002A400D894FF6FF7606EA05252A434D8847
:1013900006EA05252A431F4DA84202D0234DA84244
:1013A0001DD14FF2FF752A404D894FF6FF7606EAB0
:1013B00005252A434FF6FF352A408D8806EA052584
:1013C0002A434EF6FF752B404DF6FF752B408D8955
:1013D00006EA05152B43CD8906EA05152B438380C4
:1013E0008483CD888587028470BD70B50022002378
:1013F0000024058C4EF6FF7635400584038C8488E6
:10140000828B48F6FF752A404FF6FF452A400D882B
:1014100020E00000002C01400004004000080040D3
:10142000000C004000100040001400400034014057
:10143000004C0140005001400054014000180040A1
:10144000001C0040002000400040014000440140DA
:10145000004801404FF6FF7606EA05252A434DF67F
:10146000FF752B400D8906EA05352B434D8806EAAA
:1014700005352B43FA4DA84202D0FA4DA84208D1B7
:101480004BF6FF752C408D894FF6FF7606EA8515E1
:101490002C4384808283CD88A0F84050038470BDA3
:1014A000828B4FF2FF331A408283828B4FF6FF7399
:1014B00003EA01231A4382837047F0B50C461546B0
:1014C000002200210026078C4EF6FF7C07EA0C075D
:1014D0000784828B018C4FF6FF7707EA043640F6CB
:1014E000FF473A404FF6FF7707EA05273A434FF6A2
:1014F000FF7707EA03373A43D94FB8420ED0D94FA6
:10150000B8420BD0B0F1804F08D0D74FB84205D0C9
:10151000D64FB84202D0D64FB84206D14DF6FF772B
:10152000394046F48057394305E047F6FF573940C4
:1015300044F48057394382830184F0BD828B4FF697
:10154000F3731A408283828B0A4382837047F0B51B
:101550000C461546002200210026078C4FF6FF6C32
:1015600007EA0C070784828B018C4FF6FF7707EAA6
:1015700004264FF60C773A404FF6FF7707EA031739
:101580002F433A43B64FB8420ED0B64FB8420BD0B5
:10159000B0F1804F08D0B44FB84205D0B34FB84235
:1015A00002D0B34FB84206D14FF6FF57394046F448
:1015B0008077394305E04FF2FF57394044F4807794
:1015C000394382830184F0BD028B4FF2FF331A400E
:1015D0000283028B4FF6FF7303EA01231A4302834F
:1015E0007047F0B50C461546002200210026078CF6
:1015F0004FF6EF7C07EA0C070784028B018C4FF64D
:10160000FF7707EA041640F6FF473A404FF6FF77A8
:1016100007EA03373A434FF6FF7707EA05273A43CD
:101620008F4FB8420ED08F4FB8420BD0B0F1804FE1
:1016300008D08D4FB84205D08C4FB84202D08C4FA5
:10164000B84206D14FF6DF77394046F010073943EC
:1016500005E04FF65F77394044F0100739430283C5
:101660000184F0BD028B4FF6F3731A400283028BA4
:101670000A4302837047F0B50C461546002200214C
:10168000068C4FF6FE773E400684028B018C4FF6A7
:101690000C7632407E1C06EA03162E433243704E0F
:1016A000B0420ED06F4EB0420BD0B0F1804F08D098
:1016B0006D4EB04205D06D4EB04202D06C4EB0427D
:1016C00006D14FF6FD76314044F00106314305E086
:1016D0004FF6F576314044F0010631430283018430
:1016E000F0BD70B505460C465D4885420ED05D489C
:1016F00085420BD0B5F1804F08D05B48854205D0BC
:101700005A48854202D05A48854200D100E000BFC5
:10171000208850B92389A28861882846FFF7ABFF4B
:10172000E1882846FFF79EFF25E0208804280AD19B
:101730002389A28861882846FFF753FFE18828465D
:10174000FFF742FF17E0208808280AD12389A288E2
:1017500061882846FFF7FBFEE1882846FFF7EEFE8A
:1017600009E02389A28861882846FFF7A6FEE18860
:101770002846FFF795FE70BD2DE9F04105460C4661
:1017800000260127608808B9022600E00026A0880C
:10179000012801D1022700E001272088A0B9238970
:1017A000A28861882846FFF766FFE1882846FFF790
:1017B00059FF23893A4631462846FFF712FFE18850
:1017C0002846FFF701FF13E02389A2886188284695
:1017D000FFF707FFE1882846FFF7F6FE23893A4620
:1017E00031462846FFF747FFE1882846FFF73AFFD2
:1017F000BDE8F0810A884B881A438B881A43CB884E
:101800001A430B891A434B891A438B891A43A0F850
:10181000442070474FF6FF71818000210180C18014
:101820004180017270470021018041808180C18028
:10183000018141818181C181704700210180418006
:10184000012181800021C180018170470021018038
:1018500041808180C1800181418181817047000088
:10186000002C01400034014000040040000800400A
:10187000000C004021B1028842F00102028004E025
:1018800002884FF6FE731A400280704731B1B0F8FB
:10189000442042F40042A0F8442005E0B0F844207F
:1018A000C2F30E02A0F8442070471AB183890B439B
:1018B000838102E083898B438381704781827047F3
:1018C00041EA0203A0F8483070471AB183890B43FC
:1018D000838102E083898B438381704701894FF6BE
:1018E000F8721140018170470A46002101894FF6C4
:1018F0008F73194011430181704730B504460D467E
:1019000029462046FFF7F0FF208940F0070020819C
:1019100030BD2DE9F04104460D4616461F46602DA8
:1019200006D13B46012231462046FFF75AFE05E02C
:101930003B46012231462046FFF79DFE29462046C0
:10194000FFF7D2FF208940F007002081BDE8F08139
:1019500030B50C4600210189C9B24FF6FF7505EA82
:101960000325154325432943018130BD2DE9F0416D
:1019700005460E4617469846002443463A463146E9
:101980002846FFF7E5FF2C894FF6F870044044F035
:1019900007044FF68F70044044F070042C81BDE8BA
:1019A000F081F0B504460D4616461F463B463246CA
:1019B00029462046FFF7CCFF208940F48040208153
:1019C000F0BD0185828270470A46002101884FF6EA
:1019D0008F731940114301807047F0B50C461546CE
:1019E0001E460021002200230189028B038C4FF642
:1019F000F877394021434FF6FC473A4040F201174F
:101A00003A434FF6DD773B404FF6FF7707EA06177C
:101A10002F433B43018102830384F0BD0A4600212A
:101A2000018B4FF68F7319401143018370470A46AB
:101A30000021018B48F6FF7319404FF6FF7303EA4C
:101A400002231943018370470A460021818B4FF618
:101A50008F7319401143818370470A460021818B9F
:101A600048F6FF7319404FF6FF7303EA0223194348
:101A70008183704721B1028842F08002028004E035
:101A800002884FF67F731A400280704721B1828826
:101A900042F00402828004E082884FF6FB731A4011
:101AA0008280704721B1828842F00802828004E07F
:101AB00082884FF6F7731A408280704721B182887E
:101AC00042F00102828004E082884FF6FE731A40E1
:101AD000828070470A460021018B4FF6F773194048
:101AE0001143018370470A460021018B4FF2FF73B7
:101AF00019404FF6FF7303EA02231943018370472D
:101B00000A460021818B4FF6F773194011438183F8
:101B100070470A460021818B4FF2FF7319404FF640
:101B2000FF7303EA02231943818370470A460021A9
:101B3000018B4FF6FB7319401143018370470A462E
:101B40000021018B4FF6FF3319404FF6FF7303EA74
:101B500002231943018370470A460021818B4FF607
:101B6000FB7319401143818370470A460021818B22
:101B70004FF6FF3319404FF6FF7303EA0223194370
:101B8000818370470A460021018B4FF67F7319400D
:101B90001143018370470A460021018BC1F30E01F6
:101BA0004FF6FF7303EA02231943018370470A4685
:101BB0000021818B4FF67F73194011438183704759
:101BC0000A460021818BC1F30E014FF6FF7303EA31
:101BD00002231943818370470A460021018C4FF686
:101BE000FD7319401143018470470A460021018C9E
:101BF0004FF6F77319401143018470470A460021DC
:101C0000018C4FF6DF7319404FF6FF7303EA02139E
:101C10001943018470470A460021018C4FF67F73F7
:101C200019404FF6FF7303EA02131943018470470A
:101C30000A460021018C4FF6FF5319404FF6FF73FF
:101C400003EA02231943018470470A460021018CEC
:101C50004FF2FF7319404FF6FF7303EA0223194353
:101C6000018470470A460021018C4DF6FF7319402C
:101C70004FF6FF7303EA023319430184704730B50E
:101C8000002301248C40A3B2048C9C430484048C64
:101C900002FA01F5ADB22C43048430BD30B5002307
:101CA00004248C40A3B2048C9C430484048C02FA68
:101CB00001F5ADB22C43048430BD70B5034600205D
:101CC00000241846183001258D40ACB21D8CA54368
:101CD0001D8409B1082909D100EB6100056825F0D0
:101CE000700505600568154305600EE00D1FC5F31E
:101CF0004E052844056825F4E045056005684FF663
:101D0000FF7606EA02263543056070BD21B10288E0
:101D100042F00202028004E002884FF6FD731A408E
:101D20000280704721B1028842F00402028004E080
:101D300002884FF6FB731A400280704721B18288F7
:101D400042F08002828004E082884FF67F731A405E
:101D50008280704702884FF6F7731A40028002882B
:101D60000A430280704782884FF68F731A40828040
:101D700082880A438280704702894FF6F8731A40BE
:101D8000028102890A430281704702894FF67F73FC
:101D90001A40028102890A43028170478184704798
:101DA00081857047818670470187704781877047BA
:101DB000A0F84010704702884FF6FF431A40028097
:101DC00002880A43028070470146888E70470146A8
:101DD000088F70470146888F70470146B1F8400070
:101DE00070470146888C70470146088D704702464F
:101DF0000020138A0B400BB1012000E00020704747
:101E0000CA430282704730B50246002000230024F6
:101E1000158A05EA0103958905EA010413B10CB19D
:101E2000012000E0002030BDCA430282704700005C
:101E300010B50446BE48844208D101218014FEF743
:101E40002DFE0021A014FEF729FE16E0B9488442B9
:101E500008D101210014FEF72EFE00212014FEF708
:101E60002AFE0AE0B448844207D10121C013FEF7DC
:101E700022FE0021E013FEF71EFE10BD10B5002269
:101E8000028802F441520B884C8823438C882343F8
:101E9000CC8823430C8923434C8923438C892343D7
:101EA000CC8923431A430280838B4FF2FF74234073
:101EB00083830B8A038210BD2DE9F04F85B0054660
:101EC0000C464FF0000902274FF000084FF0010BBD
:101ED0000026B246A88B4FF240010840A88302209A
:101EE0002884B5F81C90A068022801D100BF38E012
:101EF000A08810B94FF0010B01E04FF0020B8D48A4
:101F0000854200D100E000BF6846FEF740FDDDF8E5
:101F100000A0E088B0F5007F0AD14FEA1A2000EB5C
:101F200080004000A168B0FBF1F0401D86B20BE0DC
:101F30004FEA4B10BAFBF0F000EB80004000A168C4
:101F4000B0FBF1F0401D86B20A20B6FBF0F606F0B9
:101F50000108A6EB0800C0F34F074FF6FF7000EA38
:101F60000828022F01DBFF2F02DD02274FF00008B7
:101F7000E08840EA080038432884A088A189084303
:101F8000618808432188084340F4006040EA090959
:101F9000A5F81C9005B0BDE8F08F002101804180BC
:101FA0008180C180018141818181C18107210182BC
:101FB00070470021018041808180C18002218160C1
:101FC00000218181704721B1028842F040020280E5
:101FD00004E002884FF6BF731A400280704721B1B7
:101FE000828B42F48062828304E0828B4FF6FF335F
:101FF0001A408283704730B5002400230C1101255C
:10200000A540ABB21AB185881D43858002E0858862
:102010009D43858030BD1AB183880B43838002E0E5
:1020200083888B438380704781817047014688890C
:1020300070474FF6FF62914204D0028842F48072EA
:10204000028004E002884FF6FF631A400280704766
:1020500021B1828842F00402828004E082884FF637
:10206000FB731A408280704702884FF2FF731A4058
:10207000028002880A4302807047018841F480513F
:102080000180704721B1028842F40052028004E0CE
:1020900002884DF6FF731A40028070470246002006
:1020A000012901D0108B00E0908A70470146088A10
:1020B0007047B1F5804F04D1028842F4804202801B
:1020C00004E002884BF6FF731A4002807047024614
:1020D000002013890B400BB1012000E00020704765
:1020E000CA4302817047F0B5024600200024002355
:1020F000002501F00F070126BE40B4B20B110126E6
:102100009E40B3B2968806EA03051689264016B1AA
:102110000DB1012000E00020F0BD10B5002201F05B
:102120000F040123A3409AB2D343038110BD0000E2
:102130000030014000380040003C004010B504462B
:10214000FA48844208D101214015FEF7A7FC00217E
:102150006015FEF7A3FC17E0F548844208D1012181
:102160000015FEF79BFC00212015FEF797FC0BE005
:10217000F048844208D10121C803FEF78FFC0021FA
:102180004FF40040FEF78AFC10BD30B50246002037
:1021900000235068E84C20400D790C6844EA05247F
:1021A000204350609068E54C2040D1E902542C4314
:1021B0004D7944EA450420439060D06A20F47000D1
:1021C0000C7C641EE4B2234340EA0350D06230BD6D
:1021D00000210160017141718160C16001210174C0
:1021E000704721B1826842F00102826003E0826898
:1021F00022F001028260704721B1826842F480724D
:10220000826003E0826822F480728260704710B5B9
:102210000023CBB21AB144681C43446002E0446816
:102220009C43446010BD816841F0080181607047A3
:10223000014600208A6802F008020AB1012000E08D
:1022400000207047816841F00401816070470146B9
:1022500000208A6802F004020AB1012000E0002098
:10226000704721B1826842F4A002826003E0826874
:1022700022F4A00282607047014600208A6802F4BE
:1022800080020AB1012000E00020704710B50A4624
:1022900000210023416821F46041531E41EA43318B
:1022A000416010BD21B1426842F40062426003E027
:1022B000426822F4006242607047F0B504460D4661
:1022C00000200021092D11DDE068A5F10A0606EBCA
:1022D0004607072606FA07F18843A5F10A0606EB2A
:1022E000460603FA06F10843E0600CE0206905EBBE
:1022F0004507072606FA07F1884305EB450603FA6A
:1023000006F108432061072A0FDA606B561E06EBC0
:1023100086071F2606FA07F18843561E06EB860637
:1023200005FA06F10843606322E00D2A0FDA206BFC
:10233000D61F06EB86071F2606FA07F18843D61F2D
:1023400006EB860605FA06F10843206310E0E06A12
:10235000A2F10D0606EB86071F2606FA07F1884351
:10236000A2F10D0606EB860605FA06F10843E062C7
:10237000F0BD21B1826842F48012826003E082687D
:1023800022F48012826070470146C86C80B27047A8
:1023900066484C300068704721B1426842F4806260
:1023A000426003E0426822F480624260704721B1DB
:1023B000426842F48052426003E0426822F4805254
:1023C000426070470A460021816821F4E0411143D0
:1023D0008160704721B1826842F40042826003E06C
:1023E000826822F400428260704721B1826842F420
:1023F0000212826003E0826822F402128260704757
:10240000014600208A6802F400120AB1012000E0AF
:1024100000207047F0B50446154600200022002633
:10242000092911DDE068A1F10A0707EB470C07272E
:1024300007FA0CF29043A1F10A0707EB470703FAEA
:1024400007F21043E0600CE0206901EB410C072724
:1024500007FA0CF2904301EB410703FA07F210432D
:102460002061A06BC0F30156EF1C06F1010CA7EB35
:102470000C0707EB870C1F2707FA0CF29043EF1CA1
:1024800006F1010CA7EB0C0707EB870701FA07F22F
:102490001043A063F0BD10B50A4600210023816BF4
:1024A00021F44011531E41EA0351816310BD08B568
:1024B000002300930090009B0B440093009B1A6044
:1024C00008BD08B5024600200090009201F12800E6
:1024D000009B184400900098006880B208BD0A462E
:1024E00000214168164B1940114341607047416219
:1024F000826270470A460021416821F01F011143A2
:102500004160704740B109490831096841F4000150
:10251000064A0832116007E004490831096821F4CD
:102520000001024A08321160704700000024014097
:1025300000280140003C0140FFFEF0FFFDF7F1FFE5
:10254000FFFD3FFF0246002013680B400BB1012046
:1025500000E000207047CA430260704770B5024631
:102560000020002300240B125568CEB205EA0604B1
:1025700015681D4015B10CB1012000E0002070BDB0
:1025800000220A12D34303607047000001684FF62F
:10259000FE72114001600021016041608160C160F4
:1025A0008D49884208D18C490839496841F00F01AA
:1025B000894A083A51608AE087491431884208D133
:1025C00085490839496841F0F001834A083A516069
:1025D0007DE081492831884208D17F49083949681E
:1025E00041F470617C4A083A516070E07A493C31AC
:1025F000884208D178490839496841F47041764ADF
:10260000083A516063E074495031884208D17249F8
:102610000839496841F470216F4A083A516056E020
:102620006D496431884208D16B490839496841F4E1
:102630007001694A083A516049E067497831884237
:1026400008D165490839496841F07061624A083A21
:1026500051603CE06149884206D1011F096841F0A0
:102660000F01021F116032E05C491431884208D129
:102670005A49091F096841F0F001584A121F1160B8
:1026800025E056492831884208D15449091F096874
:1026900041F47061514A121F116018E04F493C31FA
:1026A000884208D14D49091F096841F470414B4ADD
:1026B000121F11600BE049495031884207D1474948
:1026C000091F096841F47021444A121F11607047C4
:1026D00010B50022026847F6F0739A430C6A8B68C3
:1026E00023430C6923434C6923438C692343CC69FE
:1026F00023434C6A23438C6A23431A430260CB680A
:1027000043600B6883604B68C36010BD00210160AB
:1027100041608160C160016141618161C1610162AB
:1027200041628162704721B1026842F00102026099
:1027300004E002684FF6FE731A40026070471AB157
:1027400003680B43036002E003688B430360704738
:10275000416070470146486880B2704701460020DA
:10276000002201F080531BB11C4B083B1A6802E0A9
:10277000194B083B1A6802EA01030BB1012000E083
:102780000020704700F0805119B11449091F0860FA
:1027900002E01149083948607047014600200022D4
:1027A00001F080531BB10D4B083B1A6802E00A4B45
:1027B000083B1A6802EA01030BB1012000E0002087
:1027C000704700F0805119B10449091F086002E008
:1027D0000149083948607047080002400804024077
:1027E0000948804709480047FEE7FEE7FEE7FEE7A5
:1027F000FEE7FEE7FEE7FEE7FEE7FEE704480549E1
:10280000054A064B704700002F03000831010008FD
:10281000B81B0020B8210020B81D0020B81D0020E2
:1028200010B5012002F0C5FD40F2FF7002F083FFF9
:10283000C022F849F84802F05BFF002002F0B9FD21
:1028400010BD10B5F5480078012808D001F070FFE0
:10285000F3490968401AF3490968884208D90020F9
:10286000EE49087001F064FFED490860FFF7D8FFFA
:1028700010BD70B504460D46EB480068844203D194
:10288000EA480068854210D040F2DC50431B04F255
:10289000DC52E7A1EF4804F05FFBEE4802F02EFDAA
:1028A000E1480460E148056070BD00BFFCE770B519
:1028B00001F03EFFE8490968401A44F62061884269
:1028C00002D90020E5490870E5484078732800D017
:1028D00070BDE349097AC1F17F0001F0FFFCE149D5
:1028E0000978884202DA7F20DD490872DC4949799B
:1028F000C1F17F0001F0F2FCDA490978884202DA7E
:102900007F20D7494871D649097AC1F17F0001F08B
:10291000E5FC642806DD0120D049087001F008FFBD
:10292000CD490860CE48007AC0F17F00C400CC4891
:102930004079C0F17F00C500601BCB490860601979
:10294000CA490860C8480068B0F57A7F04DD4FF4D2
:102950007A70C549086007E0C348006810F57A7FBF
:1029600002DAC348C0490860C0480068B0F57A7F01
:1029700004DD4FF47A70BD49086007E0BB48006889
:1029800010F57A7F02DABA48B8490860B64800689C
:10299000B8490968884205D1B4480068B649096851
:1029A000884214D0AD48007848B101F0C1FEAA4970
:1029B0000860AE480168AC480068FFF75AFFAA48B3
:1029C0000068AC490860A9480068AB49086000BFCE
:1029D0007EE72DE9F04F8DB005460026284602F02F
:1029E0008DFC287823286ED128795028FBD168796E
:1029F0005328F8D1A8794328F5D1E8794B28F2D1AA
:102A0000287B2128EFD16878303864214843A978A1
:102A1000303901EB810100EB4101E878303808449E
:102A200084B2687A303864214843A97A303901EB9E
:102A3000810100EB4101E87A30380F1817F5FA7F71
:102A400061DBB7F5FA7F5EDC082C5CDA287A2B288C
:102A500003D0287A2D2800D17F42384607F05BF852
:102A6000CDE908016C498C3151F8240007F053F886
:102A7000CDE90401814901EB0411886807F0C2FB2C
:102A80007F4A804BCDE9000106F0D4FDCDE902017B
:102A9000DDE9042307F0CCFACDE90601DDE90823DE
:102AA00006F0C8FDCDE90A0106F092FD82465A48BB
:102AB0008C3040F824707449504607F09BFE03D2D6
:102AC000DFF8C4A107E021E07049504607F092FD0D
:102AD00001D2DFF8B8A1504607F040FD674901EB8D
:102AE00004114880654800EB0410C0F808A00020DD
:102AF000624901EB0411C86001F01AFE4849086000
:102B00000120464908700DB0BDE8F08F28782328D1
:102B100046D12879502843D16879442840D1A879F2
:102B200053283DD1E87954283AD1287A212837D141
:102B30006878303864214843A978303901EB810145
:102B400000EB4101E8783038084484B2082C0FDAF1
:102B500000204A4901EB0411C860484901EB041107
:102B6000886807F0FBFC454901EB0411488016E03A
:102B7000FF2C14D1002410E00020404901EB041187
:102B8000C8603E4901EB0411886807F0E7FC3B4947
:102B900001EB04114880601C84B2082CECDBB2E726
:102BA00055E1A85D232813D10024701C86B208E0EB
:102BB000A85D04EB840100EB4100303884B2701C46
:102BC00086B2A85D0028EBD0A85D5028E8D0EFE7DA
:102BD000A85D502860D14FF00009701C86B212E049
:102BE000A85D07F0F3FC2A490B90484607F036FD34
:102BF0000A900B9907F032FB8346264907F02CFE1A
:102C00008146701C86B2A85D0028C9D0A85D5428F2
:102C1000C6D0E5E700F87F00700A002040000020E1
:102C200044000020000100200401002008010020D1
:102C30007B23303036502530346442303030302100
:102C40002330303750253034644230303030217DED
:102C50000000000070020020F8000020FC000020AE
:102C60008C010020FD000020E8000020EC00002086
:102C700018FCFFFFF0000020F4000020F00100200D
:102C8000D655815A0C1EA63F00101C450000FA4381
:102C90000000204100004042A85D54287ED14FF042
:102CA0000008701C86B209E0A85D08EB880100EB03
:102CB000410030381FFA80F8701C86B2A85D10B150
:102CC000A85D2128F0D1082C75DAFE49484607F0A6
:102CD00091FC70D8FC49484607F08CFD6BD842F255
:102CE0001070804567DCF94951F8240007F056FC64
:102CF0008346494607F0B2FA8146F549484607F04F
:102D000079FD01D2DFF8C893EF49484607F072FC1D
:102D100001D2DFF8B493B8F1140F11DA484607F086
:102D20001DFCEC4901EB04114880EA4800EB04105B
:102D3000C0F808900020E74901EB0411C8603AE0B0
:102D4000484607F00BFCE34901EB04114880E148D9
:102D500000EB0410A0F80480DE4901EB0411888820
:102D600006F0F0FE0022DC4BCDE9040106F01EFD6A
:102D7000CDE90801D74901EB0411488807F026FC8A
:102D80000590D44800EB04108168059807F064FDB5
:102D9000834607F037FACDE9060100E055E0DDE9AA
:102DA000082306F003FDCDE90A0106F011FCC9492C
:102DB00001EB0411C860FF2C49D1002442E0C34953
:102DC00051F8241001F2DC5007F0E8FB8146484638
:102DD00007F0C4FBBF4901EB04114880BD4800EB7C
:102DE0000410A0F80480BB4901EB0411888806F0A8
:102DF000A9FE0022B84BCDE9040106F0D7FCCDE9CD
:102E00000801B44901EB0411488807F0DFFB059085
:102E1000B04800EB04108168059807F01DFD83465B
:102E200007F0F0F9CDE90601DDE9082306F0BEFC64
:102E3000CDE90A0106F0CCFBA64901EB0411C860FC
:102E4000601C84B2082C02DAB9E7701C86B2A85D57
:102E500000287FF4A6AE00BF55E62DE9FF470446E3
:102E6000894692469B4901EB0411A1F802909949C9
:102E700001EB0411A1F804A0964901EB0411888824
:102E800006F060FE07460022934B06F08FFC0546D5
:102E90000E46904901EB0411488807F097FB8046E5
:102EA0008C4800EB04108168404607F0D5FC0746CB
:102EB00007F0A8F92A463346CDE9000106F076FC72
:102EC000CDE9020106F084FB824901EB0411C860E0
:102ED000824951F8240007F095F94B462246CDF877
:102EE00000A0CDE902017EA1844804F035F88348B2
:102EF00002F0DCF9BDE8FF872DE9FC5F0646894654
:102F000092461F464FF00008C34686F00046002157
:102F1000304607F06FFB02D20020BDE8FC9F4FF067
:102F2000000B002413E0204607F038FB01906B48AB
:102F300010380090524649463046019B03F005FD8B
:102F400020B9444500DAA0464FF0010B641E14F18D
:102F5000870FE8DABBF1000F1BD0404607F01EFBDD
:102F600001905E4810380090524649463046019B19
:102F700003F0EBFC002508E05848303050F82510ED
:102F80003A462846FFF769FF6D1C042DF4DB01204B
:102F9000C3E70020C1E770B50246002100200023EE
:102FA00023E0545C542C1ED14C1C145D303C4FF477
:102FB0007A756C438D1C555D303D05EBC50606EBFF
:102FC000051504EB8505CC1C145D303C04EB840432
:102FD00005EB44050C1D145D303C2B19834200DDCC
:102FE0001846091D01E0491C00BF545C002CD8D1D3
:102FF00070BD10B50446012002F0DBF94FF480618A
:103000003F4804F03BFAE1017F223D4802F00AFB11
:103010003B48FFF7C0FF3B4908603948FFF7D9FC40
:10302000224639A1354803F097FF344802F03EF9B3
:10303000002002F0BEF910BD02680B6803600A6050
:10304000704713B5012002F0B4F9DDE900018842B0
:1030500003DD01A96846FFF7EFFF19E04FF4806137
:10306000274804F00BFA0098C1018022244802F09E
:10307000D9FA234802F01AF928A002F017F92048DB
:1030800002F04BF925A002F048F90098401C00908E
:10309000DDE900018842E1DD002002F08AF91CBD73
:1030A000012080F3138800BF00BF1D48006800F4B2
:1030B000E0601C490843001D19490860BFF34F8FA9
:1030C00000BF31E000401C450000FA43FC0A00202C
:1030D00000101C45F001002000003440A801002031
:1030E0002325303364502530346454253034642132
:1030F00028252E3166290D0A0000000070020020EC
:10310000700600204800002040446F47726F7570C1
:10311000202564204F4B210D0A0000000D0A0000FD
:103120000CED00E00000FA0500BFFEE72DE9F14FCD
:1031300088B0FAA1089801F08CF88346BBF1000F23
:1031400003D0F8A002F0B2F8D1E2F9A1089801F09A
:1031500080F88346BBF1000F24D00120F6490870A7
:103160004FF0000A10E00020F44901EB0A11C8609A
:10317000F24901EB0A11886807F0F0F9EF4901EB19
:103180000A1148800AF1010ABAF1080FEBDBECA042
:1031900002F0B4F800210846FFF76BFBFF20EB4973
:1031A0000870A4E2EAA1089801F053F88346BBF145
:1031B000000F26D006AAE8A1089803F0E1FF002836
:1031C000C2D00020DD49069A01EB0211C860DB493C
:1031D000069A01EB0211886807F0C0F9D749069AF0
:1031E00001EB02114880DFA1E248069A03F0B4FE29
:1031F000E04802F083F84FF48061DE4804F03EF9C5
:1032000075E2DDA1089801F024F88346BBF1000FB8
:1032100001D0FFF745FFDAA1089801F01AF88346BC
:10322000BBF1000F0CD004AB05AAD7A1089803F09E
:10323000A7FF002888D0DDE90410FFF702FF56E25F
:10324000D4A1089801F005F88346BBF1000F0DD01A
:1032500005AAD2A1089803F093FF0028A1D001206D
:10326000B54908700598FFF7C4FE40E2CEA1089862
:1032700000F0EFFF8346BBF1000F23D0CC48CD4BCD
:10328000CD4ACEA10090089803F07AFF002888D09C
:103290000120A9490870C8480068C64909688842E1
:1032A0000BD0C5480068C9490860C1480068C849D2
:1032B00008600020A049087019E2BF480068FFF7C5
:1032C00098FE14E2C3A1089800F0C3FF8346BBF147
:1032D000000F26D004AB05AAC0A1089803F050FF48
:1032E00000288DD00598142802DD1420059006E0F2
:1032F000059810F1140F02DA6FF01300059004988E
:10330000142802DD1420049006E0049810F1140F34
:1033100002DA6FF013000490DDE90410FFF7A9FA58
:10332000E5E1B1A1089800F094FF8346BBF1000FDE
:1033300047D0FF2085490870ADA001F0DFFF4FF0B6
:10334000000A3AE0AE4830F82A0000F2DC507B492F
:1033500001EB0A1148804FF4FA60784901EB0A1139
:103360008880764901EB0A11888806F0EBFB064657
:103370000022A44B06F01AFACDE900016F4901EBD7
:103380000A11488807F022F907466C4800EB0A103A
:103390008168384607F060FA064606F033FF80463B
:1033A000DDE9002306F002FA044606F011F963494C
:1033B00001EB0A11C8600AF1010ABAF1080FC1DB7A
:1033C00095E191A1089800F044FF8346BBF1000FFE
:1033D00004D000210846FFF74CFA88E18DA1089837
:1033E00000F037FF8346BBF1000F03D08BA001F044
:1033F0005DFF7CE18AA1089800F02BFF8346BBF1BA
:10340000000F2DD005AA88A18A4803F0B9FE002834
:1034100086D04E49059808700846007803280BD0DE
:1034200008460078042807D008460078012803D011
:1034300008460078092807D100210846FFF719FA45
:1034400000207D49087006E00C210846FFF711FABC
:1034500001207A4908706421012001F04CF846E10E
:1034600077A1089800F0F5FE8346BBF1000F1CD051
:10347000FF20364908700A2000F0C7FE30A0FFF791
:10348000A8FA0A2000F0C1FE71A001F037FF0A205F
:1034900000F0BBFE77A001F009FF0A2000F0B5FEA6
:1034A0006421012001F027F821E174A1089800F0BF
:1034B000D0FE8346BBF1000F2DD002A803A904ABB8
:1034C00005AACDE900106FA1089803F059FE10B3CA
:1034D00071A001F0EBFE039807F060F80446049831
:1034E00007F05CF80546059807F058F806462246AE
:1034F0002946029BFFF700FD70B10121052000F075
:1035000017FF322000F081FE0021052000F010FF9F
:10351000322000F07AFEEAE0CAE000002444525370
:103520002100000068656C6C6F20776F7264210069
:10353000244453542100000025010020F001002004
:10354000233235355044535421000000240100201B
:10355000244453543A000000244453543A2564212F
:1035600000000000232530336450445354210D0AD9
:10357000000000007002002024525354210000007B
:10358000245054473A000000245054473A25642DF3
:1035900025642100244447533A0000002444475343
:1035A0003A25642100000000244447543A000000FA
:1035B0003C00002038000020340000202444475400
:1035C0003A25642D25642C25642100002C00002060
:1035D00030000020244443523A0000002444435267
:1035E0003A25642C2564210024444A52210000001D
:1035F00023323535503135303054323030302100BF
:10360000FC0A002000003440244341525F53544FD1
:103610005021000024474554412100004141410010
:1036200024534D4F4445000024534D4F44452564D9
:103630002100000070060020500100205E010020E3
:1036400024534D4152545F53544F50210000000009
:103650007B233030365031353030543030303021EB
:103660002330303750313530305430303030217DD8
:1036700000000000404F4B2100000000244B4D5340
:103680003A000000244B4D533A25642C25642C2528
:10369000642C25642100000054727920746F206628
:1036A000696E64206265737420706F733A0D0A004E
:1036B0000121052000F03CFE322000F0A6FD002193
:1036C000052000F035FE322000F09FFD012105208D
:1036D00000F02EFE322000F098FD0021052000F0C1
:1036E00027FE322000F091FDFAA001F0DFFD09B0C5
:1036F000BDE8F08F2DE9F04107460E4600257878A9
:10370000397800EB0120F9490880F94800880988D8
:1037100088426ED0F5480088F6490880F348008852
:10372000F34909880840F14908800024EDE00120B0
:10373000A040EE490988084000287DD10120A04022
:10374000EB490988084000287FD04FF48061EA489F
:1037500003F094FE732E0DD1E84951F8240003F0D4
:10376000F7FD8046E54850F824104246E24803F051
:103770000EFE10E0412E0DD1E14951F8240003F076
:10378000E7FD8046DE4850F824104246DA4803F050
:10379000FEFD00E0B7E0DBA1D74800F05AFDC5B25E
:1037A0001DB10021681ED44A1154D7A1D24800F09F
:1037B00050FDF8B1002240F22551D448FDF701FB3D
:1037C0000020D3490870CC490B31D24803F09CFD4E
:1037D000D049C94803F098FD0120CD490870012265
:1037E00040F22551C948FDF7ECFA0120CA4908709A
:1037F00026E09CE0C9A1C04800F02BFD00B30022E8
:1038000040F22551C148FDF7DCFA0020C04908709C
:10381000B9490B31BF4803F077FDBE49B64803F004
:1038200073FD0120BA490870012240F22551B748C2
:10383000FDF7C7FA022001E064E006E0B64908702F
:103840004FF6FF70AA4908805CE04FF48061AA48F7
:1038500003F014FE732E0DD1A84951F8240003F093
:1038600077FD8046A54850F824104246A24803F050
:103870008EFD10E0412E0DD1A14951F8240003F036
:1038800067FD80469E4850F8241042469A4803F04F
:103890007EFD00E037E09BA1974800F0DAFCC5B25E
:1038A00085B39549481998A100F0D3FC90B192488E
:1038B0004119984803F028FD964803F049FD401E41
:1038C000944900220A548C4803F01EFD8A48FFF7F1
:1038D0002DFC17E08849481990A100F0BAFC88B186
:1038E000854841198B4803F00FFD8A4803F030FDED
:1038F000401E884900220A547F4803F005FD7E4897
:10390000FFF767F800BF601CC4B2102CFFF60FAFC2
:1039100078480088764908800121052000F008FDDC
:103920000A2000F072FC0021052000F001FDBDE836
:10393000F08110B57A4800787A49C978884205D173
:10394000774840787749097988420BD075484178A3
:10395000C01CFFF7CFFE7348C078714908707148EA
:103960000079487010BD10B500F0E2FE6E4909689C
:10397000401A322800D210BD00F0DAFE6A49086011
:10398000684800F04EFE00BFF5E710B567480078C4
:1039900000285CD100F0CCFE0021654AD2E900325B
:1039A000C31A61EB0201634800680022C01A8A4111
:1039B00050DA00F0BDFE00215D4A03C25E48006897
:1039C00048B15E48006830B90120584908705CA0D1
:1039D00001F06CFC10BD5D480068FFF70AFB5C4815
:1039E00000685C490968884218DA584800685949F3
:1039F000096888420CD156480068544908604E480E
:103A0000006820B14D480068401E4C490860E1E75D
:103A10004E480068401C4D4908601BE04B48006858
:103A20004C49096888420CD14948006847490860F8
:103A30004148006820B141480068401E3F49086085
:103A4000C8E742480068401E4049086002E00A207A
:103A50003849086000BFBDE704E003788B4200D11D
:103A60000270401C0378002BF7D1704701460022FA
:103A700015E00878472811D1491C07E0087802EBC7
:103A8000820300EB4300303882B2491C08782328B7
:103A900002D008782428F1D110467047491C0878D4
:103AA0000028E6D1401EF8E7F8B5044600250120BD
:103AB00001F07FFC607824285AD1A078212857D1C2
:103AC0000021254880F88810FEF7AAFE23A001F007
:103AD000EDFBF8BD43616E27742066696E64206259
:103AE00065737420706F7321212100001E01002076
:103AF0001C01002020010020700600204C00002046
:103B00008C0000205E00000024000000003801400E
:103B10002201002070020020230100202300000069
:103B2000E40000208C010020E0000020250100209E
:103B3000D8000020480000203C0000203000002079
:103B40004047726F7570446F6E6521002C00002035
:103B50003400002038000020700A002040434C450B
:103B60004152205052455F434D44204F4B210000AD
:103B70006078242830D1FD48FD4BFE4AFEA100901C
:103B8000204603F0FDFA30B3FA480068F8490968A6
:103B9000884207D1F7480068C1018022FB4801F044
:103BA00041FD0EE08121F94803F08AFC611CF748D1
:103BB00003F0AAFB204603F0CBFB801EF349002252
:103BC0000A542521F148083880F88810FEF728FEAD
:103BD000EFA001F06BFBF8BD2046FFF747FF05465D
:103BE000681C10B1A079232803D0EEA001F05EFB81
:103BF000F1E77B223C212046FFF72EFF7D223E216C
:103C00002046FFF729FFE801C11700EB1151091306
:103C1000A0EB013131B9EE01F11706EB1151081398
:103C200001F089FD204603F093FB401C86B2E901B8
:103C30003246204601F05CFDDBA001F037FBDAA044
:103C400001F06BFB002001F0B4FB00BFC3E710B52F
:103C5000D648007848B3D6480078012803D1D54823
:103C6000FFF764FA16E0D2480078022803D1D14861
:103C7000FEF7AFFE0EE0CE480078032803D1CD4812
:103C8000FEF7A7FE06E0CA480078042802D1C9481A
:103C9000FFF70AFF0020C6490870C44908700122D6
:103CA00040F22551C448FDF78CF810BD10B500F066
:103CB0003FFDC2490968401AB0F57A7F14D900F077
:103CC00037FDBE490860BE48007820B100210D20B4
:103CD00000F02EFB03E001210D2000F029FBB84885
:103CE0000078C043B649087010BD62B6704710B581
:103CF0000121052000F01CFB00210D2000F018FB25
:103D0000642000F082FA0021052000F011FB01215F
:103D10000D2000F00DFB642000F077FA0121052052
:103D200000F006FB00210D2000F002FB642000F0F3
:103D30006CFA0021052000F0FBFA01210D2000F0B3
:103D4000F7FA642000F061FA0121052000F0F0FA92
:103D500000210D2000F0ECFA642000F056FA00215A
:103D6000052000F0E5FA01210D2000F0E1FA6420C1
:103D700000F04BFA10BD10B5472144F6206000F06A
:103D80000EFD10BD10B500208E49086027E07F4869
:103D900084308C49096830F8210000F2DC508A49EF
:103DA000884A126801EB021148808749854A1268E7
:103DB00001EB0211488806F009FC8349814A126828
:103DC00001EB0211886000207F497E4A126801EBF6
:103DD0000211C8607B480068401C7A490860794835
:103DE00000680828D3DB6948083890F8880025283F
:103DF00031D166496F4803F087FA64480838007A81
:103E0000242803D16148FFF791F924E010206D497F
:103E1000086016E0302167486A4A126881540246F9
:103E200068480068401C115466480068801C1154A2
:103E300064480068C01C1154624800680F30614932
:103E400008605C4803F084FA5E4909688842E1D85A
:103E50005848FEF7BEFD10BD10B54FF4E13000F03C
:103E6000C9FE012240F225515848FCF7AAFF58A08C
:103E700001F053FAAFF6880001F040FA10BD10B51A
:103E80004FF4E13000F057FF012240F225514A483B
:103E9000FCF797FF52A001F009FA10BD10B500F031
:103EA00031FC10BD10B500F06AFB10BD10B501204B
:103EB00001F07FFA01F0C1FAC0224D4933480838B9
:103EC00001F0B0FB3148083800684A49884205D003
:103ED00008462E4908390860002048602B480838F9
:103EE000D0F8AC00252818D00020364908600BE037
:103EF000002126488430334A126840F822103148A5
:103F00000068401C2F4908602E4800680828EFDB35
:103F100025211E480838C0F8AC1000202949086047
:103F200072E01A4884302749096830F8210000F20D
:103F3000DC5081B22448234A126800EB0210418011
:103F4000124984311F4A126851F8221001F2DC50E4
:103F500006F024FB1C491B4A126801EB0211886021
:103F600000201949174A126846E000003C00002072
:103F700038000020340000203C244447543A256493
:103F80002D25642C2564213E00000000780A0020C5
:103F900040534554205052455F434D44204F4B21E0
:103FA0000000000045000000410000002201002048
:103FB000230100207006002000380140D0000020BE
:103FC000D400002028000020F0010020004800401C
:103FD000756172743320636865636B206F6B2100B9
:103FE000756172743120636865636B206F6B2100AB
:103FF00000F87F00E1EE330101EB0211C860644874
:104000000068401C6249086061480068082888DB35
:10401000002001F0CEF910BD10B500F004FA10BD7B
:1040200010B500F0AAF90021052000F081F910BDBB
:1040300010B500F069F901210D2000F079F910BDEB
:1040400010B500F057F910BD10B500F0EBF810BD39
:1040500010B500F01BFB10BD08B5FFF7F9FFFFF727
:10406000F3FFFFF7EDFFFFF7E3FFFFF7D9FFFFF7E0
:10407000D3FFFFF71BFFFFF715FFFFF70FFFFFF75A
:10408000FEFEFFF7E9FEFFF77DFEFFF774FEFFF788
:104090002EFEFFF72AFE01F0FDFC3E483E4B3F4A54
:1040A0003F4900903F4802F033FC0FE0FFF7FEFD70
:1040B000FFF7CDFDFFF769FCFFF755FCFFF739FC73
:1040C000FEF7F5FBFEF7BDFB01F081FFEEE710B553
:1040D00002F0B5F810BD10B54FF4E13000F0DAFD94
:1040E000012240F225513048FCF76BFE2FA001F071
:1040F000F1F810BD2DE9F04105460C46284600F0C8
:10410000EDF80646204600F0E9F830442B490860F7
:1041100008460068192823DB08460068192191FB2E
:10412000F0F6304606F03AFA25490860284606F0CF
:1041300035FA074622480168384606F08FFA0646E7
:1041400006F0F0F90546204606F028FA07461C4816
:104150000168384606F082FA064606F0E3F904469E
:10416000281918490860281B174908600846006884
:1041700040F2DC510B1A1348006800F2DC5213497C
:10418000134802F0E9FE124801F0B8F8BDE8F081EA
:104190002800002098010020000016430000C442BF
:1041A0000000D2420000B4420044004075617274C5
:1041B0003220636865636B206F6B2100140100205F
:1041C000180100200C01002010010020302C0008F4
:1041D00070020020704700BF011EA0F1010290B2E2
:1041E000FAD1704700BF011EA0F1010290B2FAD1CE
:1041F000704700B5034602E00620FFF7ECFF181EEB
:10420000A3F101018BB2F7D100BD10B5044603E064
:104210004FF47A70FFF7EDFF201EA4F101018CB27C
:10422000F6D110BD002011E040F2DC512F4A02EB24
:10423000001251802E492D4A02EB0012916000219C
:104240002A4A02EB0012D160411CC8B20828EBDBFD
:10425000704770B504460B4621461A4619E00878A7
:104260001578A84214D10AE011F8015B12F8016B2D
:10427000B54204D0D01A081A411C1A4602E0107840
:104280000028F1D100BF107818B9081B80B270BDAA
:10429000491C08780028E2D100BFF8E7F0B50C46C9
:1042A000002117E00A464B1C07E050F8226050F846
:1042B0002370BE4200DD1A465B1CA342F5DB8A4236
:1042C00007D050F8225050F8216040F8226040F8A2
:1042D0002150491C661E8E42E4DCF0BD01460029D7
:1042E00001DD084670474842FCE70000F00100206D
:1042F0000080BB4410B501210D20FCF7B5FB012166
:104300008848FCF7C6F910BD08B501210820FCF764
:10431000ABFB4FF40050ADF8000010208DF8030007
:1043200003208DF8020069467F48FCF7E1F808BDDC
:1043300070B504460D4635B10120A04081B27A48DF
:10434000FCF783F905E00120A04081B27648FCF734
:104350007EF970BD10B57548007820B100210D20A0
:10436000FFF7E6FF03E001210D20FFF7E1FF6F48B3
:104370000078C0436D49087010BD08B501210820C0
:10438000FCF772FB2020ADF8000010208DF8030030
:1043900003208DF8020069466348FCF7A9F808BDC0
:1043A00070B504460D46002616E001210520FFF7F2
:1043B000BFFF00210D20FFF7BBFFA0B2FFF725FFD5
:1043C00000210520FFF7B4FF01210D20FFF7B0FF0A
:1043D000A0B2FFF71AFF761CAE42E6D370BD70B5EF
:1043E00004460D4635B10120A04081B25048FCF78B
:1043F0002CF905E00120A04081B24D48FCF727F9D7
:1044000070BD70B504460D4635B10120A04081B2A3
:104410004848FCF71AF905E00120A04081B2454860
:10442000FCF715F970BD08B501210C20FCF71CFB49
:104430004FF40140ADF8000003208DF80200102079
:104440008DF8030069463A48FCF752F84FF476704D
:10445000ADF8000003208DF8020010208DF8030055
:1044600069463148FCF744F808BD70B504460D466E
:10447000062C22D2DFE804F003080D12171C29468F
:104480000320FFF755FF19E029460820FFF750FFEA
:1044900014E029460920FFF74BFF0FE029460620CC
:1044A000FFF746FF0AE029460720FFF741FF05E036
:1044B00029460420FFF73CFF00E000BF00BF70BDAD
:1044C00008B501210C20FCF7CFFA4FF40060ADF8DD
:1044D000000048208DF8030069461348FCF708F8EF
:1044E0000220ADF8000048208DF80300694610480E
:1044F000FBF7FEFF08BD70B505460C4600260EE032
:1045000001210520FFF714FFA0B2FFF77EFE002176
:104510000520FFF70DFFA0B2FFF777FE761CAE4235
:10452000EEDB70BD00023000000C014026010020CF
:1045300000080140001001401CB501210520FCF7D6
:1045400093FA01214F48FCF7A4F84FF4E040ADF88E
:10455000040010208DF8070003208DF8060001A943
:104560004948FBF7C5FF4FF40040ADF80000282094
:104570008DF8030069464448FBF7BAFF1CBD10B52F
:10458000FFF7DAFF4FF400513F48FCF75EF84FF4B5
:1045900080413D48FCF759F84FF480513A48FCF708
:1045A00054F810BD2DE9F04105462F4600260024A1
:1045B00032E00120A040384028B14FF48041324819
:1045C000FCF743F804E04FF480412F48FCF73FF834
:1045D0000120FFF70EFE4FF480512B48FCF735F811
:1045E0000A20FFF706FE4FF480512748FCF72FF80A
:1045F0000A20FFF7FEFD4FF480512348FCF725F811
:104600004FF400412048FCF706F818B10120A04003
:104610003043C6B2601CC4B2082CCADB3046BDE8C9
:10462000F08110B504464FF400511748FCF70FF81D
:104630000120FFF7B7FF20704220FFF7B3FF607043
:104640002078FFF7AFFFA0702078FFF7ABFFE07096
:104650002078FFF7A7FF20712078FFF7A3FF607194
:104660002078FFF79FFFA0712078FFF79BFFE07194
:104670002078FFF797FF20724FF400510248FBF7B4
:10468000E4FF10BD000430000008014010B5FCF745
:104690007DF84FF48030FCF799F8FCF7D6F8044623
:1046A00000BF002CFDD00020FCF715F94FF480600E
:1046B000FCF71AF90020FCF720F94FF4E0114FF451
:1046C0008030FCF7EBF80120FCF7F4F800BF39204C
:1046D000FCF79FF80028FAD00220FCF7EEF800BFA4
:1046E000FCF7F4F80828FBD110BD000010B5044613
:1046F0000021204606F07EF801D2204610BD84F04D
:104700000040FBE700204FF0E0218861FB48486152
:104710000846006940F007000861704700204FF02C
:10472000E0218861F6480068401CF5490860704740
:10473000F348006870477FB504460D460121C80262
:10474000FCF792F9ADF80840681E80B2ADF804009D
:104750000020ADF80A00ADF806008DF80C0001A9A4
:10476000E848FCF72BFD0121E648FDF749FB012253
:104770004121E448FDF799F819208DF80000002048
:104780008DF801008DF8020001208DF803006846C5
:10479000FCF7D3F90121DB48FDF76CF87FBD7FB54D
:1047A00005460C4601210846FCF76BF9ADF80850A8
:1047B000ADF804400020ADF80A00ADF8060001A9EC
:1047C0004FF08040FCF7FAFC00214FF08040FDF7ED
:1047D00051F9012211469007FDF767F81C208DF86A
:1047E000000001208DF8010002208DF80200012058
:1047F0008DF803006846FCF7A0F901218807FDF752
:1048000039F87FBD7FB505460C4601210220FCF733
:1048100038F9ADF80850ADF804400020ADF80A00B2
:10482000ADF8060001A9B848FCF7C8FC0021B6485D
:10483000FDF720F901221146B348FDF736F81D2097
:104840008DF8000003208DF8010001208DF8020092
:104850008DF803006846FCF770F90121AA48FDF7BE
:1048600009F87FBD30B589B005460C46012102200C
:10487000FCF707F901210820FCF7F6F80320ADF852
:10488000200018208DF8230003208DF8220008A9AD
:104890009E48FBF72DFEADF81850ADF814400020EF
:1048A000ADF81A00ADF8160005A99748FCF786FC8C
:1048B0006020ADF804000120ADF806000020ADF83E
:1048C0000C004FF4FA70ADF80A0001A98E48FCF70D
:1048D00041FD08218C48FDF713F901A98A48FCF72E
:1048E00084FD08218848FDF714F901218648FCF76A
:1048F000C1FF09B030BD30B589B005460C46012175
:104900000420FCF7BEF801210820FCF7ADF84FF4B5
:104910004070ADF8200018208DF8230003208DF89A
:10492000220008A97948FBF7E3FDADF81850ADF86F
:1049300014400020ADF81A00ADF8160005A974481F
:10494000FCF73CFC6020ADF804000120ADF8060047
:104950000020ADF80C004FF4FA70ADF80A0001A980
:104960006B48FCF7F7FC08216948FDF7C9F801A975
:104970006748FCF73AFD08216548FDF7CAF80121B0
:104980006348FCF777FF09B030BD10B5044600213D
:10499000204605F02FFF01D2204610BD84F00040D4
:1049A000FBE72DE9F04704465A4901EB0411C868BA
:1049B000002105F083FD4AD0564800EB04104588DD
:1049C00040F6BA10854201DD054604E0B5F5FA7FF0
:1049D00001DA4FF4FA754F4A02EB0412D1684D4ADE
:1049E00002EB0412D06805F039FC8046FFF7CDFFDA
:1049F0000646284605F0D2FD8146464800EB0410E5
:104A00008168484605F028FF8046FFF7BEFF07464D
:104A1000314605F0EFFD0CD8284605F0BFFD3D49B5
:104A200001EB0411886000203A4901EB0411C860D1
:104A30000DE0384A02EB0412D168364A02EB041248
:104A4000906805F00BFC334901EB04118860BDE868
:104A5000F08710B501218807FDF7D5F9002841D06E
:104A600001218807FDF7E0F92B480078082802D1DA
:104A700000202949087029480078A0B92549264A0C
:104A8000127801EB0211886805F068FD4FF0804153
:104A90008885012120480078FFF7E7FC1E48007850
:104AA000FFF77FFF16E01B491B4A127801EB02114A
:104AB000886805F053FD40F6C4110C1A09078C856F
:104AC000002115480078FFF7D0FC13480078401CFF
:104AD000114908701148007808B9012000E0002051
:104AE0000E49087010BD10B501210748FDF78BF97C
:104AF00018B101210448FDF797F910BD40190100D4
:104B000028010020002C014000040040000C01405E
:104B100000080040F0010020340100203301002093
:104B200030B589B005460C46012140F60400FBF77C
:104B30009BFF4FF48070ADF8040048208DF807000B
:104B400003208DF8060001A92848FBF7D1FC1B20A3
:104B50008DF8080000208DF8090001208DF80A006A
:104B60008DF80B0002A8FBF7E8FF19208DF808006C
:104B700000208DF809008DF80A0001208DF80B0047
:104B800002A8FBF7DAFFADF81050ADF80C4000209A
:104B9000ADF81200ADF80E0003A91548FCF70EFBA6
:104BA0000020ADF818000220ADF81A000020ADF882
:104BB0001E000120ADF81C000020ADF8200006A961
:104BC0000B48FCF78EFD01210948FDF719F9022178
:104BD0000748FDF715F9012202210548FCF765FE9B
:104BE00001210348FCF746FE09B030BD0008014032
:104BF000002C014010B586B0044601210820FBF7C7
:104C000033FF01218804FBF73CFF4FF48060ADF8CF
:104C1000140018208DF8170003208DF8160005A940
:104C2000F748FBF765FC4FF40060ADF81400042072
:104C30008DF8170005A9F248FBF75AFC01940020F3
:104C4000ADF80800ADF80A00ADF80C00ADF81000A2
:104C50000C20ADF80E0001A9EA48FCF71AF827204D
:104C60008DF8000001208DF8010003208DF802006E
:104C700001208DF803006846FBF75FFF012240F238
:104C80002551E048FCF79DF80121DE48FCF78DF83E
:104C900006B010BD10B586B0044601210420FBF714
:104CA000E3FE01214804FBF7ECFED748FBF7AEFF1B
:104CB0000420ADF8140003208DF8160018208DF89C
:104CC000170005A9D148FBF713FC0820ADF8140024
:104CD00004208DF8170005A9CC48FBF709FC0194C6
:104CE0000020ADF80800ADF80A00ADF80C00ADF8F2
:104CF00010000C20ADF80E0001A9C348FBF7C9FF56
:104D000026208DF8000001208DF8010002208DF88A
:104D1000020001208DF803006846FBF70EFF012218
:104D200040F22551B848FCF74CF80121B648FCF791
:104D30003CF806B010BD10B588B00446012144F21D
:104D40000400FBF791FEB248FBF760FF4FF40070E0
:104D5000ADF81C0003208DF81E0018208DF81F00F0
:104D600007A9AA48FBF7C4FB4FF48060ADF81C000C
:104D700004208DF81F0007A9A448FBF7B9FB039492
:104D80000020ADF81000ADF81200ADF81400ADF839
:104D900018000C20ADF816000020ADF80400ADF8A6
:104DA00006004FF40070ADF808000020ADF80A00CE
:104DB00001A99748FBF7E2FF03A99548FBF769FFB4
:104DC0004FF4E060FBF7B4FE25208DF800000120D1
:104DD0008DF801008DF802008DF803006846FBF79E
:104DE000ACFE012240F225518948FBF7EAFF012180
:104DF0008748FBF7DAFF08B010BD10B54FF4E1307B
:104E0000FFF799FF012240F225518148FBF7D9FFB6
:104E10004FF4E130FFF73EFF012240F225517A487E
:104E2000FBF7CFFF4FF4E130FFF7E4FE012240F241
:104E300025517448FBF7C5FF62B610BD10B5044696
:104E400021467348FCF71EF810BD70B505460E46A6
:104E5000002400BF0CE0295D6D48FCF713F800BF8B
:104E600080216B48FCF77CF80028F9D0601C84B2E4
:104E7000B442F0DB70BD10B504460BE014F8011B22
:104E80006348FBF7FFFF00BF80216148FCF768F82B
:104E90000028F9D020780028F0D110BD10B50446C4
:104EA00021465948FBF7EEFF10BD70B505460E468A
:104EB000002400BF0CE0295D5348FBF7E3FF00BF6F
:104EC00080215148FCF74CF80028F9D0601C84B2CE
:104ED000B442F0DB70BD10B504460BE014F8011BC2
:104EE0004948FBF7CFFF00BF80214748FCF738F85F
:104EF0000028F9D020780028F0D110BD10B5044664
:104F000021464048FBF7BEFF10BD70B505460E4672
:104F1000002400BF0CE0295D3A48FBF7B3FF00BF57
:104F200080213848FCF71CF80028F9D0601C84B2B6
:104F3000B442F0DB70BD10B504460BE014F8011B61
:104F40003048FBF79FFF00BF80212E48FCF708F890
:104F50000028F9D020780028F0D110BD10B540F21B
:104F600025512B48FBF7FCFF012879D140F2255150
:104F70002748FCF735F82648FBF788FFC4B22548D8
:104F8000007808B1002010BD3C2C06D10420224935
:104F900008700020214908801CE01F480078C8B92B
:104FA000242C03D101201C49087010E0232C03D1CC
:104FB0000220194908700AE07B2C03D1032016490E
:104FC000087004E03C2C02D1042013490870002032
:104FD00012490880114801880088401C0F4A10803F
:104FE0000F4844540C48007804281BD13E2C19D19A
:104FF00000200B49128888540120064908703EE0C1
:10500000000C0140004800400044004000080140FE
:105010000038014022010020230100203601002039
:1050200070060020C748007801280AD1212C08D139
:105030000020C549C54A128888540120C449087017
:105040001DE0C048007802280BD1212C09D1002195
:10505000BD48BE4A128881540120BD4908700EE047
:1050600015E0B8480078032809D17D2C07D100202D
:10507000B549B64A128888540120B5490870B3482A
:105080000088B0F5806F02DB0020B0490880002066
:1050900079E710B540F22551AE48FBF761FF0128D2
:1050A00078D140F22551AB48FBF79AFFA948FBF7AE
:1050B000EDFEC4B23C2C06D10420A24908700020A9
:1050C000A54908801CE09F480078C8B9242C03D16A
:1050D00001209C49087010E0232C03D1022099493B
:1050E00008700AE07B2C03D103209649087004E085
:1050F0003C2C02D104209349087000209649088076
:10510000954801880088401C934A10808E4844547A
:105110008C480078042809D13E2C07D100208A4908
:105120001288885401208A4908702BE0854800784D
:1051300001280AD1212C08D100218348864A1288EF
:1051400081540120824908701CE07E4800780228C2
:105150000AD1212C08D100217B487F4A1288815432
:1051600001207B4908700DE076480078032809D1BA
:105170007D2C07D100207449774A12888854012079
:105180007349087074480088B0F5806F02DB002016
:1051900071490880002010BD10B540F225516F48BC
:1051A000FBF7DEFE01287FD140F225516B48FBF76B
:1051B00017FF6A48FBF76AFEC4B26548007808B179
:1051C000002010BD3C2C06D104205E490870002050
:1051D000634908801CE05B480078C8B9242C03D1DF
:1051E00001205849087010E0232C03D102205549B2
:1051F00008700AE07B2C03D103205249087004E0B8
:105200003C2C02D104204F490870002054490880EA
:10521000534801880088401C514A10804A48445431
:1052200048480078042809D13E2C07D1002046497F
:10523000128888540120464908702BE041480078C4
:1052400001280AD1212C08D100203F49444A128864
:10525000885401203E4908701CE03A480078022832
:105260000AD1212C08D1002137483D4A12888154A7
:105270000120374908700DE032480078032809D131
:105280007D2C07D100203049354A128888540120EE
:105290002F49087032480088B0F5806F04DB002089
:1052A0002F4900E000E0088000208AE710B504469E
:1052B0002046FFF7E0FD10BD70B504460D462946B7
:1052C0002046FFF7C2FD70BD10B504462046FFF72B
:1052D000B5FD10BD10B504462046FFF7FCFD10BD1E
:1052E00070B504460D4629462046FFF7DEFD70BD29
:1052F00010B504462046FFF7D1FD10BD10B5044699
:105300000120134908702046FFF715FE2046FFF7DD
:10531000B2FD00200E49087010BD10B504462046AD
:10532000FFF709FE10BD70B504460D46294620461C
:10533000FFF7EBFD70BD10B504462046FFF7DEFD1C
:1053400010BD00002301002070060020360100205F
:1053500022010020004400403801002000480040A5
:105360003A01002070B50546002405E0601CC4B277
:10537000C82C01DD002070BD0221FE48FCF7A7FE0D
:105380000028F3D02946FB48FCF74EFE002405E038
:10539000601CC4B2C82C01DD0020ECE70121F548F7
:1053A000FCF795FE0028F3D0F248FCF73FFEC0B2B0
:1053B000E1E710B50446ACB14FF40050EE49088067
:1053C0001820C870ED48FBF793F84FF40051EB48F4
:1053D000FBF73BF90121E748FCF7F5FDFF20FFF75C
:1053E000C1FF0EE00021E348FCF7EDFD4FF4005053
:1053F000E14908801020C87003208870DF48FBF75F
:1054000077F810BD002106E00A2100BF0A1EA1F1B5
:10541000010399B2FAD1021EA0F1010398B2F3D1AF
:10542000704710B50020D6498881D248FCF726FD88
:105430000121D048FCF7C7FD10BD08B501210820A7
:10544000FBF712FB4FF48050ADF8000010208DF8F0
:10545000030003208DF802006946C848FBF748F8AE
:105460004FF48051C548FBF7F0F84FF42040ADF8F9
:10547000000018208DF803006946C048FBF738F893
:105480004FF48040ADF8000048208DF803006946D5
:10549000BA48FBF72DF84FF42041B848FBF7D5F890
:1054A00001218803FBF7EDFA0020B54908804FF48D
:1054B00082704880002088800220C88001200881F6
:1054C00040024881382088810020C8810720088256
:1054D000A848FCF7D3FC0121A648FCF774FDFF2087
:1054E000FFF740FFFFF79DFF08BD10B53020A4492E
:1054F0008881A048FCF7C2FC01219E48FCF763FDAF
:1055000010BD10B5002400224FF480519B48FBF7DA
:10551000A0F89020FFF726FF0020FFF723FF0020D0
:10552000FFF720FF0020FFF71DFFFF20FFF71AFF06
:1055300044EA0024FF20FFF715FF04430122110372
:105540008E48FBF786F8204610BD10B500240022D7
:105550004FF480518948FBF77CF80520FFF702FFE4
:10556000FF20FFF7FFFE0446012211038348FBF7EB
:1055700070F8204610BD10B5044600224FF480514B
:105580007E48FBF766F80120FFF7ECFE2046FFF7A8
:10559000E9FE012211037948FBF75BF810BD10B555
:1055A00000224FF480517548FBF753F80620FFF7AF
:1055B000D9FE012211037148FBF74BF810BD10B55D
:1055C00000224FF480516D48FBF743F80420FFF7A9
:1055D000C9FE012211036948FBF73BF810BD10B565
:1055E000044600224FF480516448FBF732F8032050
:1055F000FFF7B8FEC4F30740FFF7B4FEC4F307207B
:10560000FFF7B0FEE0B2FFF7ADFEFF20FFF7AAFE06
:105610005C490870012211035848FBF71AF85948F1
:10562000007810BD2DE9F04106460C4617460022D1
:105630004FF480515148FBF70CF80320FFF792FE1E
:10564000C4F30740FFF78EFEC4F30720FFF78AFE7E
:10565000E0B2FFF787FE002505E0FF20FFF782FE9E
:105660007055681C85B2BD42F7DB01221103434827
:10567000FAF7EFFFBDE8F08110B500BFFFF765FF57
:1056800000F001000028F9D110BD2DE9F0410746D6
:105690000C461646E0B2C0F58078464500DD464629
:1056A000FFF77DFF00224FF480513448FAF7D1FF15
:1056B0000220FFF757FEC4F30740FFF753FEC4F381
:1056C0000720FFF74FFEE0B2FFF74CFE002504E095
:1056D000785DFFF747FE681C85B2B542F8DB012212
:1056E00011032648FAF7B5FFFFF7C6FFBDE8F081C2
:1056F0002DE9F04107460E461446F0B2C0F580751C
:10570000AC4200DC254612E02A4631463846FFF717
:10571000BCFFAC4200D10BE02F442E44601B84B28E
:10572000B4F5807F02DD4FF4807500E02546EBE79D
:1057300000BFBDE8F08110B504462403FFF72FFF3A
:10574000FFF79AFF00224FF480510C48FAF781FFCF
:105750002020FFF707FEC4F30740FFF703FEC4F362
:105760000720FFF7FFFDE0B2FFF7FCFD0122110368
:10577000024809E0003800403C010020000C0140D4
:10578000300B002040010020FAF763FFFFF774FFA1
:1057900010BD2DE9F04781460F4616464FEA1738EF
:1057A000C7F30B0ACAF58054A64200DC344644E035
:1057B0004FEA08314FF480528A48FFF733FF002543
:1057C00008E00AEB05008749085CFF2800D003E0E9
:1057D000681C85B2A542F4DB00BFA54216DA40463C
:1057E000FFF7A9FF002507E019F8050005EB0A01FE
:1057F0007C4A5054681C85B2A542F5DB4FEA08315B
:105800004FF480527748FFF773FF04E02246394691
:105810004846FFF76DFFA64200D10FE008F10108EE
:105820004FF0000AA1442744301B86B2B6F5805FD2
:1058300002DD4FF4805400E03446B9E700BFBDE814
:10584000F0872DE9F04107460C461546C4F30B00DE
:10585000C0F58056B54200DD35462A462146384619
:10586000FFF746FFBDE8F0812DE9F04381B0ADF5CB
:10587000805D80460F4616464FF00009C7F30B00C7
:10588000C0F58054A64200DC344644E04FEA1739A4
:105890004FEA09314FF4805201A8FFF7C3FE0025FB
:1058A00009E0C7F30B00284401A9085CFF2800D0D9
:1058B00003E0681C85B2A542F3DB00BFA54217DAFE
:1058C0004846FFF738FF002508E018F80500C7F341
:1058D0000B01294401AA5054681C85B2A542F4DB8F
:1058E0004FEA09314FF4805201A8FFF7AAFF04E004
:1058F000224639464046FFF7A4FFA64200D10BE0FE
:10590000A0442744301B86B2B6F5805F02DD4FF419
:10591000805400E03446B9E700BF01B00DF5805D6A
:10592000BDE8F08370B505460C46FFF738FE00224F
:105930004FF480512C48FAF78CFE0220FFF712FD3D
:10594000C4F30740FFF70EFDC4F30720FFF70AFD7D
:10595000E0B2FFF707FD2846FFF704FD012211031F
:105960002148FAF776FEFFF787FE70BD10B5FFF706
:1059700016FEFFF781FE00224FF480511A48FAF715
:1059800068FEC720FFF7EEFC012211031648FAF764
:1059900060FEFFF771FE10BD10B500224FF480517C
:1059A0001148FAF756FEB920FFF7DCFC012211037B
:1059B0000D48FAF74EFE0320FFF724FD10BD10B589
:1059C00000224FF480510848FAF743FEAB20FFF75E
:1059D000C9FC012211030448FAF73BFE0320FFF73C
:1059E00011FD10BD420B0020000C014008B5012143
:1059F0000420FBF739F80B20ADF8000048208DF8A3
:105A000003006946F848FAF773FD01210820FBF707
:105A10002BF80220ADF8000048208DF803006946FD
:105A2000F248FAF765FD08BD08B501210C20FBF727
:105A30001BF80120ADF8000010208DF803000320B2
:105A40008DF802006946E948FAF752FD0420ADF8E6
:105A500000008DF803006946E348FAF749FD472145
:105A600047F23050FEF7CEFE08BD08B501210420F4
:105A7000FAF7FAFF4020ADF8000048208DF8030047
:105A80006946D948FAF734FD08BD10B5F62000F094
:105A9000F6FD10BD10B5FFF7A9FFFFF7E6FFFFF712
:105AA000C3FFFFF7F2FF10BD2DE9F0410221CE4800
:105AB000FAF7B1FD06460121CB48FAF7ACFD0446E2
:105AC0000821C948FAF7A7FD05460221C748FAF799
:105AD000A2FD074617B1012C04D11DB90220C4490B
